{
	"RPS.sol": {
		"RPS": {
			"abi": [
				{
					"inputs": [],
					"stateMutability": "payable",
					"type": "constructor"
				},
				{
					"inputs": [
						{
							"internalType": "enum RPS.Hand",
							"name": "_hand",
							"type": "uint8"
						}
					],
					"name": "createRoom",
					"outputs": [
						{
							"internalType": "uint256",
							"name": "roomNum",
							"type": "uint256"
						}
					],
					"stateMutability": "payable",
					"type": "function"
				},
				{
					"inputs": [
						{
							"internalType": "uint256",
							"name": "roomNum",
							"type": "uint256"
						},
						{
							"internalType": "enum RPS.Hand",
							"name": "_hand",
							"type": "uint8"
						}
					],
					"name": "joinRoom",
					"outputs": [],
					"stateMutability": "payable",
					"type": "function"
				}
			],
			"devdoc": {
				"kind": "dev",
				"methods": {},
				"version": 1
			},
			"evm": {
				"assembly": "    /* \"RPS.sol\":56:1856  contract RPS {... */\n  mstore(0x40, 0x80)\n    /* \"RPS.sol\":642:643  0 */\n  0x00\n    /* \"RPS.sol\":627:643  uint roomLen = 0 */\n  0x01\n  sstore\n    /* \"RPS.sol\":56:1856  contract RPS {... */\n  dataSize(sub_0)\n  dup1\n  dataOffset(sub_0)\n  0x00\n  codecopy\n  0x00\n  return\nstop\n\nsub_0: assembly {\n        /* \"RPS.sol\":56:1856  contract RPS {... */\n      mstore(0x40, 0x80)\n      jumpi(tag_1, lt(calldatasize, 0x04))\n      shr(0xe0, calldataload(0x00))\n      dup1\n      0x0f36f3b5\n      eq\n      tag_2\n      jumpi\n      dup1\n      0x79b15776\n      eq\n      tag_3\n      jumpi\n    tag_1:\n      0x00\n      dup1\n      revert\n        /* \"RPS.sol\":829:1552  function createRoom(Hand _hand) public payable isValidHand(_hand) returns (uint roomNum) {... */\n    tag_2:\n      tag_4\n      0x04\n      dup1\n      calldatasize\n      sub\n      dup2\n      add\n      swap1\n      tag_5\n      swap2\n      swap1\n      tag_6\n      jump\t// in\n    tag_5:\n      tag_7\n      jump\t// in\n    tag_4:\n      mload(0x40)\n      tag_8\n      swap2\n      swap1\n      tag_9\n      jump\t// in\n    tag_8:\n      mload(0x40)\n      dup1\n      swap2\n      sub\n      swap1\n      return\n        /* \"RPS.sol\":1558:1854  function joinRoom(uint roomNum, Hand _hand) public payable isValidHand(_hand) {... */\n    tag_3:\n      tag_10\n      0x04\n      dup1\n      calldatasize\n      sub\n      dup2\n      add\n      swap1\n      tag_11\n      swap2\n      swap1\n      tag_12\n      jump\t// in\n    tag_11:\n      tag_13\n      jump\t// in\n    tag_10:\n      stop\n        /* \"RPS.sol\":829:1552  function createRoom(Hand _hand) public payable isValidHand(_hand) returns (uint roomNum) {... */\n    tag_7:\n        /* \"RPS.sol\":904:916  uint roomNum */\n      0x00\n        /* \"RPS.sol\":888:893  _hand */\n      dup2\n        /* \"RPS.sol\":741:750  Hand.rock */\n      0x00\n        /* \"RPS.sol\":732:750  _hand == Hand.rock */\n      0x02\n      dup2\n      gt\n      iszero\n      tag_15\n      jumpi\n      tag_16\n      tag_17\n      jump\t// in\n    tag_16:\n    tag_15:\n        /* \"RPS.sol\":732:737  _hand */\n      dup2\n        /* \"RPS.sol\":732:750  _hand == Hand.rock */\n      0x02\n      dup2\n      gt\n      iszero\n      tag_18\n      jumpi\n      tag_19\n      tag_17\n      jump\t// in\n    tag_19:\n    tag_18:\n      eq\n        /* \"RPS.sol\":731:776  (_hand == Hand.rock) || (_hand == Hand.paper) */\n      dup1\n      tag_20\n      jumpi\n      pop\n        /* \"RPS.sol\":765:775  Hand.paper */\n      0x01\n        /* \"RPS.sol\":756:775  _hand == Hand.paper */\n      0x02\n      dup2\n      gt\n      iszero\n      tag_21\n      jumpi\n      tag_22\n      tag_17\n      jump\t// in\n    tag_22:\n    tag_21:\n        /* \"RPS.sol\":756:761  _hand */\n      dup2\n        /* \"RPS.sol\":756:775  _hand == Hand.paper */\n      0x02\n      dup2\n      gt\n      iszero\n      tag_23\n      jumpi\n      tag_24\n      tag_17\n      jump\t// in\n    tag_24:\n    tag_23:\n      eq\n        /* \"RPS.sol\":731:776  (_hand == Hand.rock) || (_hand == Hand.paper) */\n    tag_20:\n        /* \"RPS.sol\":731:804  (_hand == Hand.rock) || (_hand == Hand.paper) || (_hand == Hand.scissors) */\n      dup1\n      tag_25\n      jumpi\n      pop\n        /* \"RPS.sol\":790:803  Hand.scissors */\n      0x02\n        /* \"RPS.sol\":781:803  _hand == Hand.scissors */\n      dup1\n      dup2\n      gt\n      iszero\n      tag_26\n      jumpi\n      tag_27\n      tag_17\n      jump\t// in\n    tag_27:\n    tag_26:\n        /* \"RPS.sol\":781:786  _hand */\n      dup2\n        /* \"RPS.sol\":781:803  _hand == Hand.scissors */\n      0x02\n      dup2\n      gt\n      iszero\n      tag_28\n      jumpi\n      tag_29\n      tag_17\n      jump\t// in\n    tag_29:\n    tag_28:\n      eq\n        /* \"RPS.sol\":731:804  (_hand == Hand.rock) || (_hand == Hand.paper) || (_hand == Hand.scissors) */\n    tag_25:\n        /* \"RPS.sol\":723:805  require((_hand == Hand.rock) || (_hand == Hand.paper) || (_hand == Hand.scissors)) */\n      tag_30\n      jumpi\n      0x00\n      dup1\n      revert\n    tag_30:\n        /* \"RPS.sol\":945:1487  Game({... */\n      mload(0x40)\n      dup1\n      0x80\n      add\n      0x40\n      mstore\n      dup1\n        /* \"RPS.sol\":1065:1262  Player({... */\n      mload(0x40)\n      dup1\n      0x80\n      add\n      0x40\n      mstore\n      dup1\n        /* \"RPS.sol\":1133:1143  msg.sender */\n      caller\n        /* \"RPS.sol\":1065:1262  Player({... */\n      0xffffffffffffffffffffffffffffffffffffffff\n      and\n      dup2\n      mstore\n      0x20\n      add\n        /* \"RPS.sol\":1238:1247  msg.value */\n      callvalue\n        /* \"RPS.sol\":1065:1262  Player({... */\n      dup2\n      mstore\n      0x20\n      add\n        /* \"RPS.sol\":1096:1101  _hand */\n      dup7\n        /* \"RPS.sol\":1065:1262  Player({... */\n      0x02\n      dup2\n      gt\n      iszero\n      tag_32\n      jumpi\n      tag_33\n      tag_17\n      jump\t// in\n    tag_33:\n    tag_32:\n      dup2\n      mstore\n      0x20\n      add\n        /* \"RPS.sol\":1176:1203  PlayerStatus.STATUS_PENDING */\n      0x03\n        /* \"RPS.sol\":1065:1262  Player({... */\n      dup1\n      dup2\n      gt\n      iszero\n      tag_34\n      jumpi\n      tag_35\n      tag_17\n      jump\t// in\n    tag_35:\n    tag_34:\n      dup2\n      mstore\n      pop\n        /* \"RPS.sol\":945:1487  Game({... */\n      dup2\n      mstore\n      0x20\n      add\n        /* \"RPS.sol\":1283:1476  Player({... */\n      mload(0x40)\n      dup1\n      0x80\n      add\n      0x40\n      mstore\n      dup1\n        /* \"RPS.sol\":1355:1365  msg.sender */\n      caller\n        /* \"RPS.sol\":1283:1476  Player({... */\n      0xffffffffffffffffffffffffffffffffffffffff\n      and\n      dup2\n      mstore\n      0x20\n      add\n        /* \"RPS.sol\":1460:1461  0 */\n      0x00\n        /* \"RPS.sol\":1283:1476  Player({... */\n      dup2\n      mstore\n      0x20\n      add\n        /* \"RPS.sol\":1314:1323  Hand.rock */\n      0x00\n        /* \"RPS.sol\":1283:1476  Player({... */\n      0x02\n      dup2\n      gt\n      iszero\n      tag_36\n      jumpi\n      tag_37\n      tag_17\n      jump\t// in\n    tag_37:\n    tag_36:\n      dup2\n      mstore\n      0x20\n      add\n        /* \"RPS.sol\":1398:1425  PlayerStatus.STATUS_PENDING */\n      0x03\n        /* \"RPS.sol\":1283:1476  Player({... */\n      dup1\n      dup2\n      gt\n      iszero\n      tag_38\n      jumpi\n      tag_39\n      tag_17\n      jump\t// in\n    tag_39:\n    tag_38:\n      dup2\n      mstore\n      pop\n        /* \"RPS.sol\":945:1487  Game({... */\n      dup2\n      mstore\n      0x20\n      add\n        /* \"RPS.sol\":975:984  msg.value */\n      callvalue\n        /* \"RPS.sol\":945:1487  Game({... */\n      dup2\n      mstore\n      0x20\n      add\n        /* \"RPS.sol\":1010:1039  GameStatus.STATUS_NOT_STARTED */\n      0x00\n        /* \"RPS.sol\":945:1487  Game({... */\n      0x03\n      dup2\n      gt\n      iszero\n      tag_40\n      jumpi\n      tag_41\n      tag_17\n      jump\t// in\n    tag_41:\n    tag_40:\n      dup2\n      mstore\n      pop\n        /* \"RPS.sol\":928:933  rooms */\n      0x00\n        /* \"RPS.sol\":928:942  rooms[roomLen] */\n      dup1\n        /* \"RPS.sol\":934:941  roomLen */\n      sload(0x01)\n        /* \"RPS.sol\":928:942  rooms[roomLen] */\n      dup2\n      mstore\n      0x20\n      add\n      swap1\n      dup2\n      mstore\n      0x20\n      add\n      0x00\n      keccak256\n        /* \"RPS.sol\":928:1487  rooms[roomLen] = Game({... */\n      0x00\n      dup3\n      add\n      mload\n      dup2\n      0x00\n      add\n      0x00\n      dup3\n      add\n      mload\n      dup2\n      0x00\n      add\n      exp(0x0100, 0x00)\n      dup2\n      sload\n      dup2\n      0xffffffffffffffffffffffffffffffffffffffff\n      mul\n      not\n      and\n      swap1\n      dup4\n      0xffffffffffffffffffffffffffffffffffffffff\n      and\n      mul\n      or\n      swap1\n      sstore\n      pop\n      0x20\n      dup3\n      add\n      mload\n      dup2\n      0x01\n      add\n      sstore\n      0x40\n      dup3\n      add\n      mload\n      dup2\n      0x02\n      add\n      exp(0x0100, 0x00)\n      dup2\n      sload\n      dup2\n      0xff\n      mul\n      not\n      and\n      swap1\n      dup4\n      0x02\n      dup2\n      gt\n      iszero\n      tag_42\n      jumpi\n      tag_43\n      tag_17\n      jump\t// in\n    tag_43:\n    tag_42:\n      mul\n      or\n      swap1\n      sstore\n      pop\n      0x60\n      dup3\n      add\n      mload\n      dup2\n      0x02\n      add\n      exp(0x0100, 0x01)\n      dup2\n      sload\n      dup2\n      0xff\n      mul\n      not\n      and\n      swap1\n      dup4\n      0x03\n      dup2\n      gt\n      iszero\n      tag_44\n      jumpi\n      tag_45\n      tag_17\n      jump\t// in\n    tag_45:\n    tag_44:\n      mul\n      or\n      swap1\n      sstore\n      pop\n      pop\n      pop\n      0x20\n      dup3\n      add\n      mload\n      dup2\n      0x03\n      add\n      0x00\n      dup3\n      add\n      mload\n      dup2\n      0x00\n      add\n      exp(0x0100, 0x00)\n      dup2\n      sload\n      dup2\n      0xffffffffffffffffffffffffffffffffffffffff\n      mul\n      not\n      and\n      swap1\n      dup4\n      0xffffffffffffffffffffffffffffffffffffffff\n      and\n      mul\n      or\n      swap1\n      sstore\n      pop\n      0x20\n      dup3\n      add\n      mload\n      dup2\n      0x01\n      add\n      sstore\n      0x40\n      dup3\n      add\n      mload\n      dup2\n      0x02\n      add\n      exp(0x0100, 0x00)\n      dup2\n      sload\n      dup2\n      0xff\n      mul\n      not\n      and\n      swap1\n      dup4\n      0x02\n      dup2\n      gt\n      iszero\n      tag_46\n      jumpi\n      tag_47\n      tag_17\n      jump\t// in\n    tag_47:\n    tag_46:\n      mul\n      or\n      swap1\n      sstore\n      pop\n      0x60\n      dup3\n      add\n      mload\n      dup2\n      0x02\n      add\n      exp(0x0100, 0x01)\n      dup2\n      sload\n      dup2\n      0xff\n      mul\n      not\n      and\n      swap1\n      dup4\n      0x03\n      dup2\n      gt\n      iszero\n      tag_48\n      jumpi\n      tag_49\n      tag_17\n      jump\t// in\n    tag_49:\n    tag_48:\n      mul\n      or\n      swap1\n      sstore\n      pop\n      pop\n      pop\n      0x40\n      dup3\n      add\n      mload\n      dup2\n      0x06\n      add\n      sstore\n      0x60\n      dup3\n      add\n      mload\n      dup2\n      0x07\n      add\n      exp(0x0100, 0x00)\n      dup2\n      sload\n      dup2\n      0xff\n      mul\n      not\n      and\n      swap1\n      dup4\n      0x03\n      dup2\n      gt\n      iszero\n      tag_50\n      jumpi\n      tag_51\n      tag_17\n      jump\t// in\n    tag_51:\n    tag_50:\n      mul\n      or\n      swap1\n      sstore\n      pop\n      swap1\n      pop\n      pop\n        /* \"RPS.sol\":1507:1514  roomLen */\n      sload(0x01)\n        /* \"RPS.sol\":1497:1514  roomNum = roomLen */\n      swap2\n      pop\n        /* \"RPS.sol\":1544:1545  1 */\n      0x01\n        /* \"RPS.sol\":1534:1541  roomLen */\n      dup1\n      sload\n        /* \"RPS.sol\":1534:1545  roomLen + 1 */\n      tag_52\n      swap2\n      swap1\n      tag_53\n      jump\t// in\n    tag_52:\n        /* \"RPS.sol\":1524:1531  roomLen */\n      0x01\n        /* \"RPS.sol\":1524:1545  roomLen = roomLen + 1 */\n      dup2\n      swap1\n      sstore\n      pop\n        /* \"RPS.sol\":829:1552  function createRoom(Hand _hand) public payable isValidHand(_hand) returns (uint roomNum) {... */\n      pop\n      swap2\n      swap1\n      pop\n      jump\t// out\n        /* \"RPS.sol\":1558:1854  function joinRoom(uint roomNum, Hand _hand) public payable isValidHand(_hand) {... */\n    tag_13:\n        /* \"RPS.sol\":1629:1634  _hand */\n      dup1\n        /* \"RPS.sol\":741:750  Hand.rock */\n      0x00\n        /* \"RPS.sol\":732:750  _hand == Hand.rock */\n      0x02\n      dup2\n      gt\n      iszero\n      tag_55\n      jumpi\n      tag_56\n      tag_17\n      jump\t// in\n    tag_56:\n    tag_55:\n        /* \"RPS.sol\":732:737  _hand */\n      dup2\n        /* \"RPS.sol\":732:750  _hand == Hand.rock */\n      0x02\n      dup2\n      gt\n      iszero\n      tag_57\n      jumpi\n      tag_58\n      tag_17\n      jump\t// in\n    tag_58:\n    tag_57:\n      eq\n        /* \"RPS.sol\":731:776  (_hand == Hand.rock) || (_hand == Hand.paper) */\n      dup1\n      tag_59\n      jumpi\n      pop\n        /* \"RPS.sol\":765:775  Hand.paper */\n      0x01\n        /* \"RPS.sol\":756:775  _hand == Hand.paper */\n      0x02\n      dup2\n      gt\n      iszero\n      tag_60\n      jumpi\n      tag_61\n      tag_17\n      jump\t// in\n    tag_61:\n    tag_60:\n        /* \"RPS.sol\":756:761  _hand */\n      dup2\n        /* \"RPS.sol\":756:775  _hand == Hand.paper */\n      0x02\n      dup2\n      gt\n      iszero\n      tag_62\n      jumpi\n      tag_63\n      tag_17\n      jump\t// in\n    tag_63:\n    tag_62:\n      eq\n        /* \"RPS.sol\":731:776  (_hand == Hand.rock) || (_hand == Hand.paper) */\n    tag_59:\n        /* \"RPS.sol\":731:804  (_hand == Hand.rock) || (_hand == Hand.paper) || (_hand == Hand.scissors) */\n      dup1\n      tag_64\n      jumpi\n      pop\n        /* \"RPS.sol\":790:803  Hand.scissors */\n      0x02\n        /* \"RPS.sol\":781:803  _hand == Hand.scissors */\n      dup1\n      dup2\n      gt\n      iszero\n      tag_65\n      jumpi\n      tag_66\n      tag_17\n      jump\t// in\n    tag_66:\n    tag_65:\n        /* \"RPS.sol\":781:786  _hand */\n      dup2\n        /* \"RPS.sol\":781:803  _hand == Hand.scissors */\n      0x02\n      dup2\n      gt\n      iszero\n      tag_67\n      jumpi\n      tag_68\n      tag_17\n      jump\t// in\n    tag_68:\n    tag_67:\n      eq\n        /* \"RPS.sol\":731:804  (_hand == Hand.rock) || (_hand == Hand.paper) || (_hand == Hand.scissors) */\n    tag_64:\n        /* \"RPS.sol\":723:805  require((_hand == Hand.rock) || (_hand == Hand.paper) || (_hand == Hand.scissors)) */\n      tag_69\n      jumpi\n      0x00\n      dup1\n      revert\n    tag_69:\n        /* \"RPS.sol\":1669:1846  Player({... */\n      mload(0x40)\n      dup1\n      0x80\n      add\n      0x40\n      mstore\n      dup1\n        /* \"RPS.sol\":1729:1739  msg.sender */\n      caller\n        /* \"RPS.sol\":1669:1846  Player({... */\n      0xffffffffffffffffffffffffffffffffffffffff\n      and\n      dup2\n      mstore\n      0x20\n      add\n        /* \"RPS.sol\":1826:1835  msg.value */\n      callvalue\n        /* \"RPS.sol\":1669:1846  Player({... */\n      dup2\n      mstore\n      0x20\n      add\n        /* \"RPS.sol\":1696:1701  _hand */\n      dup4\n        /* \"RPS.sol\":1669:1846  Player({... */\n      0x02\n      dup2\n      gt\n      iszero\n      tag_71\n      jumpi\n      tag_72\n      tag_17\n      jump\t// in\n    tag_72:\n    tag_71:\n      dup2\n      mstore\n      0x20\n      add\n        /* \"RPS.sol\":1768:1795  PlayerStatus.STATUS_PENDING */\n      0x03\n        /* \"RPS.sol\":1669:1846  Player({... */\n      dup1\n      dup2\n      gt\n      iszero\n      tag_73\n      jumpi\n      tag_74\n      tag_17\n      jump\t// in\n    tag_74:\n    tag_73:\n      dup2\n      mstore\n      pop\n        /* \"RPS.sol\":1646:1651  rooms */\n      0x00\n        /* \"RPS.sol\":1646:1660  rooms[roomNum] */\n      dup1\n        /* \"RPS.sol\":1652:1659  roomNum */\n      dup6\n        /* \"RPS.sol\":1646:1660  rooms[roomNum] */\n      dup2\n      mstore\n      0x20\n      add\n      swap1\n      dup2\n      mstore\n      0x20\n      add\n      0x00\n      keccak256\n        /* \"RPS.sol\":1646:1666  rooms[roomNum].taker */\n      0x03\n      add\n        /* \"RPS.sol\":1646:1846  rooms[roomNum].taker = Player({... */\n      0x00\n      dup3\n      add\n      mload\n      dup2\n      0x00\n      add\n      exp(0x0100, 0x00)\n      dup2\n      sload\n      dup2\n      0xffffffffffffffffffffffffffffffffffffffff\n      mul\n      not\n      and\n      swap1\n      dup4\n      0xffffffffffffffffffffffffffffffffffffffff\n      and\n      mul\n      or\n      swap1\n      sstore\n      pop\n      0x20\n      dup3\n      add\n      mload\n      dup2\n      0x01\n      add\n      sstore\n      0x40\n      dup3\n      add\n      mload\n      dup2\n      0x02\n      add\n      exp(0x0100, 0x00)\n      dup2\n      sload\n      dup2\n      0xff\n      mul\n      not\n      and\n      swap1\n      dup4\n      0x02\n      dup2\n      gt\n      iszero\n      tag_75\n      jumpi\n      tag_76\n      tag_17\n      jump\t// in\n    tag_76:\n    tag_75:\n      mul\n      or\n      swap1\n      sstore\n      pop\n      0x60\n      dup3\n      add\n      mload\n      dup2\n      0x02\n      add\n      exp(0x0100, 0x01)\n      dup2\n      sload\n      dup2\n      0xff\n      mul\n      not\n      and\n      swap1\n      dup4\n      0x03\n      dup2\n      gt\n      iszero\n      tag_77\n      jumpi\n      tag_78\n      tag_17\n      jump\t// in\n    tag_78:\n    tag_77:\n      mul\n      or\n      swap1\n      sstore\n      pop\n      swap1\n      pop\n      pop\n        /* \"RPS.sol\":1558:1854  function joinRoom(uint roomNum, Hand _hand) public payable isValidHand(_hand) {... */\n      pop\n      pop\n      pop\n      jump\t// out\n        /* \"#utility.yul\":7:158   */\n    tag_80:\n        /* \"#utility.yul\":59:64   */\n      0x00\n        /* \"#utility.yul\":97:103   */\n      dup2\n        /* \"#utility.yul\":84:104   */\n      calldataload\n        /* \"#utility.yul\":75:104   */\n      swap1\n      pop\n        /* \"#utility.yul\":113:152   */\n      tag_82\n        /* \"#utility.yul\":146:151   */\n      dup2\n        /* \"#utility.yul\":113:152   */\n      tag_83\n      jump\t// in\n    tag_82:\n        /* \"#utility.yul\":7:158   */\n      swap3\n      swap2\n      pop\n      pop\n      jump\t// out\n        /* \"#utility.yul\":164:303   */\n    tag_84:\n        /* \"#utility.yul\":210:215   */\n      0x00\n        /* \"#utility.yul\":248:254   */\n      dup2\n        /* \"#utility.yul\":235:255   */\n      calldataload\n        /* \"#utility.yul\":226:255   */\n      swap1\n      pop\n        /* \"#utility.yul\":264:297   */\n      tag_86\n        /* \"#utility.yul\":291:296   */\n      dup2\n        /* \"#utility.yul\":264:297   */\n      tag_87\n      jump\t// in\n    tag_86:\n        /* \"#utility.yul\":164:303   */\n      swap3\n      swap2\n      pop\n      pop\n      jump\t// out\n        /* \"#utility.yul\":309:650   */\n    tag_6:\n        /* \"#utility.yul\":374:380   */\n      0x00\n        /* \"#utility.yul\":423:425   */\n      0x20\n        /* \"#utility.yul\":411:420   */\n      dup3\n        /* \"#utility.yul\":402:409   */\n      dup5\n        /* \"#utility.yul\":398:421   */\n      sub\n        /* \"#utility.yul\":394:426   */\n      slt\n        /* \"#utility.yul\":391:510   */\n      iszero\n      tag_89\n      jumpi\n        /* \"#utility.yul\":429:508   */\n      tag_90\n      tag_91\n      jump\t// in\n    tag_90:\n        /* \"#utility.yul\":391:510   */\n    tag_89:\n        /* \"#utility.yul\":549:550   */\n      0x00\n        /* \"#utility.yul\":574:633   */\n      tag_92\n        /* \"#utility.yul\":625:632   */\n      dup5\n        /* \"#utility.yul\":616:622   */\n      dup3\n        /* \"#utility.yul\":605:614   */\n      dup6\n        /* \"#utility.yul\":601:623   */\n      add\n        /* \"#utility.yul\":574:633   */\n      tag_80\n      jump\t// in\n    tag_92:\n        /* \"#utility.yul\":564:633   */\n      swap2\n      pop\n        /* \"#utility.yul\":520:643   */\n      pop\n        /* \"#utility.yul\":309:650   */\n      swap3\n      swap2\n      pop\n      pop\n      jump\t// out\n        /* \"#utility.yul\":656:1142   */\n    tag_12:\n        /* \"#utility.yul\":730:736   */\n      0x00\n        /* \"#utility.yul\":738:744   */\n      dup1\n        /* \"#utility.yul\":787:789   */\n      0x40\n        /* \"#utility.yul\":775:784   */\n      dup4\n        /* \"#utility.yul\":766:773   */\n      dup6\n        /* \"#utility.yul\":762:785   */\n      sub\n        /* \"#utility.yul\":758:790   */\n      slt\n        /* \"#utility.yul\":755:874   */\n      iszero\n      tag_94\n      jumpi\n        /* \"#utility.yul\":793:872   */\n      tag_95\n      tag_91\n      jump\t// in\n    tag_95:\n        /* \"#utility.yul\":755:874   */\n    tag_94:\n        /* \"#utility.yul\":913:914   */\n      0x00\n        /* \"#utility.yul\":938:991   */\n      tag_96\n        /* \"#utility.yul\":983:990   */\n      dup6\n        /* \"#utility.yul\":974:980   */\n      dup3\n        /* \"#utility.yul\":963:972   */\n      dup7\n        /* \"#utility.yul\":959:981   */\n      add\n        /* \"#utility.yul\":938:991   */\n      tag_84\n      jump\t// in\n    tag_96:\n        /* \"#utility.yul\":928:991   */\n      swap3\n      pop\n        /* \"#utility.yul\":884:1001   */\n      pop\n        /* \"#utility.yul\":1040:1042   */\n      0x20\n        /* \"#utility.yul\":1066:1125   */\n      tag_97\n        /* \"#utility.yul\":1117:1124   */\n      dup6\n        /* \"#utility.yul\":1108:1114   */\n      dup3\n        /* \"#utility.yul\":1097:1106   */\n      dup7\n        /* \"#utility.yul\":1093:1115   */\n      add\n        /* \"#utility.yul\":1066:1125   */\n      tag_80\n      jump\t// in\n    tag_97:\n        /* \"#utility.yul\":1056:1125   */\n      swap2\n      pop\n        /* \"#utility.yul\":1011:1135   */\n      pop\n        /* \"#utility.yul\":656:1142   */\n      swap3\n      pop\n      swap3\n      swap1\n      pop\n      jump\t// out\n        /* \"#utility.yul\":1148:1266   */\n    tag_98:\n        /* \"#utility.yul\":1235:1259   */\n      tag_100\n        /* \"#utility.yul\":1253:1258   */\n      dup2\n        /* \"#utility.yul\":1235:1259   */\n      tag_101\n      jump\t// in\n    tag_100:\n        /* \"#utility.yul\":1230:1233   */\n      dup3\n        /* \"#utility.yul\":1223:1260   */\n      mstore\n        /* \"#utility.yul\":1148:1266   */\n      pop\n      pop\n      jump\t// out\n        /* \"#utility.yul\":1272:1494   */\n    tag_9:\n        /* \"#utility.yul\":1365:1369   */\n      0x00\n        /* \"#utility.yul\":1403:1405   */\n      0x20\n        /* \"#utility.yul\":1392:1401   */\n      dup3\n        /* \"#utility.yul\":1388:1406   */\n      add\n        /* \"#utility.yul\":1380:1406   */\n      swap1\n      pop\n        /* \"#utility.yul\":1416:1487   */\n      tag_103\n        /* \"#utility.yul\":1484:1485   */\n      0x00\n        /* \"#utility.yul\":1473:1482   */\n      dup4\n        /* \"#utility.yul\":1469:1486   */\n      add\n        /* \"#utility.yul\":1460:1466   */\n      dup5\n        /* \"#utility.yul\":1416:1487   */\n      tag_98\n      jump\t// in\n    tag_103:\n        /* \"#utility.yul\":1272:1494   */\n      swap3\n      swap2\n      pop\n      pop\n      jump\t// out\n        /* \"#utility.yul\":1581:1886   */\n    tag_53:\n        /* \"#utility.yul\":1621:1624   */\n      0x00\n        /* \"#utility.yul\":1640:1660   */\n      tag_107\n        /* \"#utility.yul\":1658:1659   */\n      dup3\n        /* \"#utility.yul\":1640:1660   */\n      tag_101\n      jump\t// in\n    tag_107:\n        /* \"#utility.yul\":1635:1660   */\n      swap2\n      pop\n        /* \"#utility.yul\":1674:1694   */\n      tag_108\n        /* \"#utility.yul\":1692:1693   */\n      dup4\n        /* \"#utility.yul\":1674:1694   */\n      tag_101\n      jump\t// in\n    tag_108:\n        /* \"#utility.yul\":1669:1694   */\n      swap3\n      pop\n        /* \"#utility.yul\":1828:1829   */\n      dup3\n        /* \"#utility.yul\":1760:1826   */\n      0xffffffffffffffffffffffffffffffffffffffffffffffffffffffffffffffff\n        /* \"#utility.yul\":1756:1830   */\n      sub\n        /* \"#utility.yul\":1753:1754   */\n      dup3\n        /* \"#utility.yul\":1750:1831   */\n      gt\n        /* \"#utility.yul\":1747:1854   */\n      iszero\n      tag_109\n      jumpi\n        /* \"#utility.yul\":1834:1852   */\n      tag_110\n      tag_111\n      jump\t// in\n    tag_110:\n        /* \"#utility.yul\":1747:1854   */\n    tag_109:\n        /* \"#utility.yul\":1878:1879   */\n      dup3\n        /* \"#utility.yul\":1875:1876   */\n      dup3\n        /* \"#utility.yul\":1871:1880   */\n      add\n        /* \"#utility.yul\":1864:1880   */\n      swap1\n      pop\n        /* \"#utility.yul\":1581:1886   */\n      swap3\n      swap2\n      pop\n      pop\n      jump\t// out\n        /* \"#utility.yul\":1892:1969   */\n    tag_101:\n        /* \"#utility.yul\":1929:1936   */\n      0x00\n        /* \"#utility.yul\":1958:1963   */\n      dup2\n        /* \"#utility.yul\":1947:1963   */\n      swap1\n      pop\n        /* \"#utility.yul\":1892:1969   */\n      swap2\n      swap1\n      pop\n      jump\t// out\n        /* \"#utility.yul\":1975:2155   */\n    tag_111:\n        /* \"#utility.yul\":2023:2100   */\n      0x4e487b7100000000000000000000000000000000000000000000000000000000\n        /* \"#utility.yul\":2020:2021   */\n      0x00\n        /* \"#utility.yul\":2013:2101   */\n      mstore\n        /* \"#utility.yul\":2120:2124   */\n      0x11\n        /* \"#utility.yul\":2117:2118   */\n      0x04\n        /* \"#utility.yul\":2110:2125   */\n      mstore\n        /* \"#utility.yul\":2144:2148   */\n      0x24\n        /* \"#utility.yul\":2141:2142   */\n      0x00\n        /* \"#utility.yul\":2134:2149   */\n      revert\n        /* \"#utility.yul\":2161:2341   */\n    tag_17:\n        /* \"#utility.yul\":2209:2286   */\n      0x4e487b7100000000000000000000000000000000000000000000000000000000\n        /* \"#utility.yul\":2206:2207   */\n      0x00\n        /* \"#utility.yul\":2199:2287   */\n      mstore\n        /* \"#utility.yul\":2306:2310   */\n      0x21\n        /* \"#utility.yul\":2303:2304   */\n      0x04\n        /* \"#utility.yul\":2296:2311   */\n      mstore\n        /* \"#utility.yul\":2330:2334   */\n      0x24\n        /* \"#utility.yul\":2327:2328   */\n      0x00\n        /* \"#utility.yul\":2320:2335   */\n      revert\n        /* \"#utility.yul\":2470:2587   */\n    tag_91:\n        /* \"#utility.yul\":2579:2580   */\n      0x00\n        /* \"#utility.yul\":2576:2577   */\n      dup1\n        /* \"#utility.yul\":2569:2581   */\n      revert\n        /* \"#utility.yul\":2593:2698   */\n    tag_83:\n        /* \"#utility.yul\":2672:2673   */\n      0x03\n        /* \"#utility.yul\":2665:2670   */\n      dup2\n        /* \"#utility.yul\":2662:2674   */\n      lt\n        /* \"#utility.yul\":2652:2692   */\n      tag_119\n      jumpi\n        /* \"#utility.yul\":2688:2689   */\n      0x00\n        /* \"#utility.yul\":2685:2686   */\n      dup1\n        /* \"#utility.yul\":2678:2690   */\n      revert\n        /* \"#utility.yul\":2652:2692   */\n    tag_119:\n        /* \"#utility.yul\":2593:2698   */\n      pop\n      jump\t// out\n        /* \"#utility.yul\":2704:2826   */\n    tag_87:\n        /* \"#utility.yul\":2777:2801   */\n      tag_121\n        /* \"#utility.yul\":2795:2800   */\n      dup2\n        /* \"#utility.yul\":2777:2801   */\n      tag_101\n      jump\t// in\n    tag_121:\n        /* \"#utility.yul\":2770:2775   */\n      dup2\n        /* \"#utility.yul\":2767:2802   */\n      eq\n        /* \"#utility.yul\":2757:2820   */\n      tag_122\n      jumpi\n        /* \"#utility.yul\":2816:2817   */\n      0x00\n        /* \"#utility.yul\":2813:2814   */\n      dup1\n        /* \"#utility.yul\":2806:2818   */\n      revert\n        /* \"#utility.yul\":2757:2820   */\n    tag_122:\n        /* \"#utility.yul\":2704:2826   */\n      pop\n      jump\t// out\n\n    auxdata: 0xa26469706673582212202601f45974c83e8173a393a9521d65f503d0dda194c896237472952ce84e39fd64736f6c63430008070033\n}\n",
				"bytecode": {
					"linkReferences": {},
					"object": "60806040526000600155610776806100186000396000f3fe6080604052600436106100295760003560e01c80630f36f3b51461002e57806379b157761461005e575b600080fd5b610048600480360381019061004391906105bf565b61007a565b604051610055919061063b565b60405180910390f35b610078600480360381019061007391906105ec565b6103dd565b005b60008160006002811115610091576100906106e5565b5b8160028111156100a4576100a36106e5565b5b14806100d45750600160028111156100bf576100be6106e5565b5b8160028111156100d2576100d16106e5565b5b145b8061010257506002808111156100ed576100ec6106e5565b5b816002811115610100576100ff6106e5565b5b145b61010b57600080fd5b604051806080016040528060405180608001604052803373ffffffffffffffffffffffffffffffffffffffff168152602001348152602001866002811115610156576101556106e5565b5b815260200160038081111561016e5761016d6106e5565b5b815250815260200160405180608001604052803373ffffffffffffffffffffffffffffffffffffffff16815260200160008152602001600060028111156101b8576101b76106e5565b5b81526020016003808111156101d0576101cf6106e5565b5b8152508152602001348152602001600060038111156101f2576101f16106e5565b5b815250600080600154815260200190815260200160002060008201518160000160008201518160000160006101000a81548173ffffffffffffffffffffffffffffffffffffffff021916908373ffffffffffffffffffffffffffffffffffffffff1602179055506020820151816001015560408201518160020160006101000a81548160ff0219169083600281111561028e5761028d6106e5565b5b021790555060608201518160020160016101000a81548160ff021916908360038111156102be576102bd6106e5565b5b0217905550505060208201518160030160008201518160000160006101000a81548173ffffffffffffffffffffffffffffffffffffffff021916908373ffffffffffffffffffffffffffffffffffffffff1602179055506020820151816001015560408201518160020160006101000a81548160ff0219169083600281111561034a576103496106e5565b5b021790555060608201518160020160016101000a81548160ff0219169083600381111561037a576103796106e5565b5b021790555050506040820151816006015560608201518160070160006101000a81548160ff021916908360038111156103b6576103b56106e5565b5b02179055509050506001549150600180546103d19190610656565b60018190555050919050565b80600060028111156103f2576103f16106e5565b5b816002811115610405576104046106e5565b5b14806104355750600160028111156104205761041f6106e5565b5b816002811115610433576104326106e5565b5b145b80610463575060028081111561044e5761044d6106e5565b5b816002811115610461576104606106e5565b5b145b61046c57600080fd5b60405180608001604052803373ffffffffffffffffffffffffffffffffffffffff1681526020013481526020018360028111156104ac576104ab6106e5565b5b81526020016003808111156104c4576104c36106e5565b5b81525060008085815260200190815260200160002060030160008201518160000160006101000a81548173ffffffffffffffffffffffffffffffffffffffff021916908373ffffffffffffffffffffffffffffffffffffffff1602179055506020820151816001015560408201518160020160006101000a81548160ff02191690836002811115610558576105576106e5565b5b021790555060608201518160020160016101000a81548160ff02191690836003811115610588576105876106e5565b5b0217905550905050505050565b6000813590506105a481610719565b92915050565b6000813590506105b981610729565b92915050565b6000602082840312156105d5576105d4610714565b5b60006105e384828501610595565b91505092915050565b6000806040838503121561060357610602610714565b5b6000610611858286016105aa565b925050602061062285828601610595565b9150509250929050565b610635816106ac565b82525050565b6000602082019050610650600083018461062c565b92915050565b6000610661826106ac565b915061066c836106ac565b9250827fffffffffffffffffffffffffffffffffffffffffffffffffffffffffffffffff038211156106a1576106a06106b6565b5b828201905092915050565b6000819050919050565b7f4e487b7100000000000000000000000000000000000000000000000000000000600052601160045260246000fd5b7f4e487b7100000000000000000000000000000000000000000000000000000000600052602160045260246000fd5b600080fd5b6003811061072657600080fd5b50565b610732816106ac565b811461073d57600080fd5b5056fea26469706673582212202601f45974c83e8173a393a9521d65f503d0dda194c896237472952ce84e39fd64736f6c63430008070033",
					"opcodes": "PUSH1 0x80 PUSH1 0x40 MSTORE PUSH1 0x0 PUSH1 0x1 SSTORE PUSH2 0x776 DUP1 PUSH2 0x18 PUSH1 0x0 CODECOPY PUSH1 0x0 RETURN INVALID PUSH1 0x80 PUSH1 0x40 MSTORE PUSH1 0x4 CALLDATASIZE LT PUSH2 0x29 JUMPI PUSH1 0x0 CALLDATALOAD PUSH1 0xE0 SHR DUP1 PUSH4 0xF36F3B5 EQ PUSH2 0x2E JUMPI DUP1 PUSH4 0x79B15776 EQ PUSH2 0x5E JUMPI JUMPDEST PUSH1 0x0 DUP1 REVERT JUMPDEST PUSH2 0x48 PUSH1 0x4 DUP1 CALLDATASIZE SUB DUP2 ADD SWAP1 PUSH2 0x43 SWAP2 SWAP1 PUSH2 0x5BF JUMP JUMPDEST PUSH2 0x7A JUMP JUMPDEST PUSH1 0x40 MLOAD PUSH2 0x55 SWAP2 SWAP1 PUSH2 0x63B JUMP JUMPDEST PUSH1 0x40 MLOAD DUP1 SWAP2 SUB SWAP1 RETURN JUMPDEST PUSH2 0x78 PUSH1 0x4 DUP1 CALLDATASIZE SUB DUP2 ADD SWAP1 PUSH2 0x73 SWAP2 SWAP1 PUSH2 0x5EC JUMP JUMPDEST PUSH2 0x3DD JUMP JUMPDEST STOP JUMPDEST PUSH1 0x0 DUP2 PUSH1 0x0 PUSH1 0x2 DUP2 GT ISZERO PUSH2 0x91 JUMPI PUSH2 0x90 PUSH2 0x6E5 JUMP JUMPDEST JUMPDEST DUP2 PUSH1 0x2 DUP2 GT ISZERO PUSH2 0xA4 JUMPI PUSH2 0xA3 PUSH2 0x6E5 JUMP JUMPDEST JUMPDEST EQ DUP1 PUSH2 0xD4 JUMPI POP PUSH1 0x1 PUSH1 0x2 DUP2 GT ISZERO PUSH2 0xBF JUMPI PUSH2 0xBE PUSH2 0x6E5 JUMP JUMPDEST JUMPDEST DUP2 PUSH1 0x2 DUP2 GT ISZERO PUSH2 0xD2 JUMPI PUSH2 0xD1 PUSH2 0x6E5 JUMP JUMPDEST JUMPDEST EQ JUMPDEST DUP1 PUSH2 0x102 JUMPI POP PUSH1 0x2 DUP1 DUP2 GT ISZERO PUSH2 0xED JUMPI PUSH2 0xEC PUSH2 0x6E5 JUMP JUMPDEST JUMPDEST DUP2 PUSH1 0x2 DUP2 GT ISZERO PUSH2 0x100 JUMPI PUSH2 0xFF PUSH2 0x6E5 JUMP JUMPDEST JUMPDEST EQ JUMPDEST PUSH2 0x10B JUMPI PUSH1 0x0 DUP1 REVERT JUMPDEST PUSH1 0x40 MLOAD DUP1 PUSH1 0x80 ADD PUSH1 0x40 MSTORE DUP1 PUSH1 0x40 MLOAD DUP1 PUSH1 0x80 ADD PUSH1 0x40 MSTORE DUP1 CALLER PUSH20 0xFFFFFFFFFFFFFFFFFFFFFFFFFFFFFFFFFFFFFFFF AND DUP2 MSTORE PUSH1 0x20 ADD CALLVALUE DUP2 MSTORE PUSH1 0x20 ADD DUP7 PUSH1 0x2 DUP2 GT ISZERO PUSH2 0x156 JUMPI PUSH2 0x155 PUSH2 0x6E5 JUMP JUMPDEST JUMPDEST DUP2 MSTORE PUSH1 0x20 ADD PUSH1 0x3 DUP1 DUP2 GT ISZERO PUSH2 0x16E JUMPI PUSH2 0x16D PUSH2 0x6E5 JUMP JUMPDEST JUMPDEST DUP2 MSTORE POP DUP2 MSTORE PUSH1 0x20 ADD PUSH1 0x40 MLOAD DUP1 PUSH1 0x80 ADD PUSH1 0x40 MSTORE DUP1 CALLER PUSH20 0xFFFFFFFFFFFFFFFFFFFFFFFFFFFFFFFFFFFFFFFF AND DUP2 MSTORE PUSH1 0x20 ADD PUSH1 0x0 DUP2 MSTORE PUSH1 0x20 ADD PUSH1 0x0 PUSH1 0x2 DUP2 GT ISZERO PUSH2 0x1B8 JUMPI PUSH2 0x1B7 PUSH2 0x6E5 JUMP JUMPDEST JUMPDEST DUP2 MSTORE PUSH1 0x20 ADD PUSH1 0x3 DUP1 DUP2 GT ISZERO PUSH2 0x1D0 JUMPI PUSH2 0x1CF PUSH2 0x6E5 JUMP JUMPDEST JUMPDEST DUP2 MSTORE POP DUP2 MSTORE PUSH1 0x20 ADD CALLVALUE DUP2 MSTORE PUSH1 0x20 ADD PUSH1 0x0 PUSH1 0x3 DUP2 GT ISZERO PUSH2 0x1F2 JUMPI PUSH2 0x1F1 PUSH2 0x6E5 JUMP JUMPDEST JUMPDEST DUP2 MSTORE POP PUSH1 0x0 DUP1 PUSH1 0x1 SLOAD DUP2 MSTORE PUSH1 0x20 ADD SWAP1 DUP2 MSTORE PUSH1 0x20 ADD PUSH1 0x0 KECCAK256 PUSH1 0x0 DUP3 ADD MLOAD DUP2 PUSH1 0x0 ADD PUSH1 0x0 DUP3 ADD MLOAD DUP2 PUSH1 0x0 ADD PUSH1 0x0 PUSH2 0x100 EXP DUP2 SLOAD DUP2 PUSH20 0xFFFFFFFFFFFFFFFFFFFFFFFFFFFFFFFFFFFFFFFF MUL NOT AND SWAP1 DUP4 PUSH20 0xFFFFFFFFFFFFFFFFFFFFFFFFFFFFFFFFFFFFFFFF AND MUL OR SWAP1 SSTORE POP PUSH1 0x20 DUP3 ADD MLOAD DUP2 PUSH1 0x1 ADD SSTORE PUSH1 0x40 DUP3 ADD MLOAD DUP2 PUSH1 0x2 ADD PUSH1 0x0 PUSH2 0x100 EXP DUP2 SLOAD DUP2 PUSH1 0xFF MUL NOT AND SWAP1 DUP4 PUSH1 0x2 DUP2 GT ISZERO PUSH2 0x28E JUMPI PUSH2 0x28D PUSH2 0x6E5 JUMP JUMPDEST JUMPDEST MUL OR SWAP1 SSTORE POP PUSH1 0x60 DUP3 ADD MLOAD DUP2 PUSH1 0x2 ADD PUSH1 0x1 PUSH2 0x100 EXP DUP2 SLOAD DUP2 PUSH1 0xFF MUL NOT AND SWAP1 DUP4 PUSH1 0x3 DUP2 GT ISZERO PUSH2 0x2BE JUMPI PUSH2 0x2BD PUSH2 0x6E5 JUMP JUMPDEST JUMPDEST MUL OR SWAP1 SSTORE POP POP POP PUSH1 0x20 DUP3 ADD MLOAD DUP2 PUSH1 0x3 ADD PUSH1 0x0 DUP3 ADD MLOAD DUP2 PUSH1 0x0 ADD PUSH1 0x0 PUSH2 0x100 EXP DUP2 SLOAD DUP2 PUSH20 0xFFFFFFFFFFFFFFFFFFFFFFFFFFFFFFFFFFFFFFFF MUL NOT AND SWAP1 DUP4 PUSH20 0xFFFFFFFFFFFFFFFFFFFFFFFFFFFFFFFFFFFFFFFF AND MUL OR SWAP1 SSTORE POP PUSH1 0x20 DUP3 ADD MLOAD DUP2 PUSH1 0x1 ADD SSTORE PUSH1 0x40 DUP3 ADD MLOAD DUP2 PUSH1 0x2 ADD PUSH1 0x0 PUSH2 0x100 EXP DUP2 SLOAD DUP2 PUSH1 0xFF MUL NOT AND SWAP1 DUP4 PUSH1 0x2 DUP2 GT ISZERO PUSH2 0x34A JUMPI PUSH2 0x349 PUSH2 0x6E5 JUMP JUMPDEST JUMPDEST MUL OR SWAP1 SSTORE POP PUSH1 0x60 DUP3 ADD MLOAD DUP2 PUSH1 0x2 ADD PUSH1 0x1 PUSH2 0x100 EXP DUP2 SLOAD DUP2 PUSH1 0xFF MUL NOT AND SWAP1 DUP4 PUSH1 0x3 DUP2 GT ISZERO PUSH2 0x37A JUMPI PUSH2 0x379 PUSH2 0x6E5 JUMP JUMPDEST JUMPDEST MUL OR SWAP1 SSTORE POP POP POP PUSH1 0x40 DUP3 ADD MLOAD DUP2 PUSH1 0x6 ADD SSTORE PUSH1 0x60 DUP3 ADD MLOAD DUP2 PUSH1 0x7 ADD PUSH1 0x0 PUSH2 0x100 EXP DUP2 SLOAD DUP2 PUSH1 0xFF MUL NOT AND SWAP1 DUP4 PUSH1 0x3 DUP2 GT ISZERO PUSH2 0x3B6 JUMPI PUSH2 0x3B5 PUSH2 0x6E5 JUMP JUMPDEST JUMPDEST MUL OR SWAP1 SSTORE POP SWAP1 POP POP PUSH1 0x1 SLOAD SWAP2 POP PUSH1 0x1 DUP1 SLOAD PUSH2 0x3D1 SWAP2 SWAP1 PUSH2 0x656 JUMP JUMPDEST PUSH1 0x1 DUP2 SWAP1 SSTORE POP POP SWAP2 SWAP1 POP JUMP JUMPDEST DUP1 PUSH1 0x0 PUSH1 0x2 DUP2 GT ISZERO PUSH2 0x3F2 JUMPI PUSH2 0x3F1 PUSH2 0x6E5 JUMP JUMPDEST JUMPDEST DUP2 PUSH1 0x2 DUP2 GT ISZERO PUSH2 0x405 JUMPI PUSH2 0x404 PUSH2 0x6E5 JUMP JUMPDEST JUMPDEST EQ DUP1 PUSH2 0x435 JUMPI POP PUSH1 0x1 PUSH1 0x2 DUP2 GT ISZERO PUSH2 0x420 JUMPI PUSH2 0x41F PUSH2 0x6E5 JUMP JUMPDEST JUMPDEST DUP2 PUSH1 0x2 DUP2 GT ISZERO PUSH2 0x433 JUMPI PUSH2 0x432 PUSH2 0x6E5 JUMP JUMPDEST JUMPDEST EQ JUMPDEST DUP1 PUSH2 0x463 JUMPI POP PUSH1 0x2 DUP1 DUP2 GT ISZERO PUSH2 0x44E JUMPI PUSH2 0x44D PUSH2 0x6E5 JUMP JUMPDEST JUMPDEST DUP2 PUSH1 0x2 DUP2 GT ISZERO PUSH2 0x461 JUMPI PUSH2 0x460 PUSH2 0x6E5 JUMP JUMPDEST JUMPDEST EQ JUMPDEST PUSH2 0x46C JUMPI PUSH1 0x0 DUP1 REVERT JUMPDEST PUSH1 0x40 MLOAD DUP1 PUSH1 0x80 ADD PUSH1 0x40 MSTORE DUP1 CALLER PUSH20 0xFFFFFFFFFFFFFFFFFFFFFFFFFFFFFFFFFFFFFFFF AND DUP2 MSTORE PUSH1 0x20 ADD CALLVALUE DUP2 MSTORE PUSH1 0x20 ADD DUP4 PUSH1 0x2 DUP2 GT ISZERO PUSH2 0x4AC JUMPI PUSH2 0x4AB PUSH2 0x6E5 JUMP JUMPDEST JUMPDEST DUP2 MSTORE PUSH1 0x20 ADD PUSH1 0x3 DUP1 DUP2 GT ISZERO PUSH2 0x4C4 JUMPI PUSH2 0x4C3 PUSH2 0x6E5 JUMP JUMPDEST JUMPDEST DUP2 MSTORE POP PUSH1 0x0 DUP1 DUP6 DUP2 MSTORE PUSH1 0x20 ADD SWAP1 DUP2 MSTORE PUSH1 0x20 ADD PUSH1 0x0 KECCAK256 PUSH1 0x3 ADD PUSH1 0x0 DUP3 ADD MLOAD DUP2 PUSH1 0x0 ADD PUSH1 0x0 PUSH2 0x100 EXP DUP2 SLOAD DUP2 PUSH20 0xFFFFFFFFFFFFFFFFFFFFFFFFFFFFFFFFFFFFFFFF MUL NOT AND SWAP1 DUP4 PUSH20 0xFFFFFFFFFFFFFFFFFFFFFFFFFFFFFFFFFFFFFFFF AND MUL OR SWAP1 SSTORE POP PUSH1 0x20 DUP3 ADD MLOAD DUP2 PUSH1 0x1 ADD SSTORE PUSH1 0x40 DUP3 ADD MLOAD DUP2 PUSH1 0x2 ADD PUSH1 0x0 PUSH2 0x100 EXP DUP2 SLOAD DUP2 PUSH1 0xFF MUL NOT AND SWAP1 DUP4 PUSH1 0x2 DUP2 GT ISZERO PUSH2 0x558 JUMPI PUSH2 0x557 PUSH2 0x6E5 JUMP JUMPDEST JUMPDEST MUL OR SWAP1 SSTORE POP PUSH1 0x60 DUP3 ADD MLOAD DUP2 PUSH1 0x2 ADD PUSH1 0x1 PUSH2 0x100 EXP DUP2 SLOAD DUP2 PUSH1 0xFF MUL NOT AND SWAP1 DUP4 PUSH1 0x3 DUP2 GT ISZERO PUSH2 0x588 JUMPI PUSH2 0x587 PUSH2 0x6E5 JUMP JUMPDEST JUMPDEST MUL OR SWAP1 SSTORE POP SWAP1 POP POP POP POP POP JUMP JUMPDEST PUSH1 0x0 DUP2 CALLDATALOAD SWAP1 POP PUSH2 0x5A4 DUP2 PUSH2 0x719 JUMP JUMPDEST SWAP3 SWAP2 POP POP JUMP JUMPDEST PUSH1 0x0 DUP2 CALLDATALOAD SWAP1 POP PUSH2 0x5B9 DUP2 PUSH2 0x729 JUMP JUMPDEST SWAP3 SWAP2 POP POP JUMP JUMPDEST PUSH1 0x0 PUSH1 0x20 DUP3 DUP5 SUB SLT ISZERO PUSH2 0x5D5 JUMPI PUSH2 0x5D4 PUSH2 0x714 JUMP JUMPDEST JUMPDEST PUSH1 0x0 PUSH2 0x5E3 DUP5 DUP3 DUP6 ADD PUSH2 0x595 JUMP JUMPDEST SWAP2 POP POP SWAP3 SWAP2 POP POP JUMP JUMPDEST PUSH1 0x0 DUP1 PUSH1 0x40 DUP4 DUP6 SUB SLT ISZERO PUSH2 0x603 JUMPI PUSH2 0x602 PUSH2 0x714 JUMP JUMPDEST JUMPDEST PUSH1 0x0 PUSH2 0x611 DUP6 DUP3 DUP7 ADD PUSH2 0x5AA JUMP JUMPDEST SWAP3 POP POP PUSH1 0x20 PUSH2 0x622 DUP6 DUP3 DUP7 ADD PUSH2 0x595 JUMP JUMPDEST SWAP2 POP POP SWAP3 POP SWAP3 SWAP1 POP JUMP JUMPDEST PUSH2 0x635 DUP2 PUSH2 0x6AC JUMP JUMPDEST DUP3 MSTORE POP POP JUMP JUMPDEST PUSH1 0x0 PUSH1 0x20 DUP3 ADD SWAP1 POP PUSH2 0x650 PUSH1 0x0 DUP4 ADD DUP5 PUSH2 0x62C JUMP JUMPDEST SWAP3 SWAP2 POP POP JUMP JUMPDEST PUSH1 0x0 PUSH2 0x661 DUP3 PUSH2 0x6AC JUMP JUMPDEST SWAP2 POP PUSH2 0x66C DUP4 PUSH2 0x6AC JUMP JUMPDEST SWAP3 POP DUP3 PUSH32 0xFFFFFFFFFFFFFFFFFFFFFFFFFFFFFFFFFFFFFFFFFFFFFFFFFFFFFFFFFFFFFFFF SUB DUP3 GT ISZERO PUSH2 0x6A1 JUMPI PUSH2 0x6A0 PUSH2 0x6B6 JUMP JUMPDEST JUMPDEST DUP3 DUP3 ADD SWAP1 POP SWAP3 SWAP2 POP POP JUMP JUMPDEST PUSH1 0x0 DUP2 SWAP1 POP SWAP2 SWAP1 POP JUMP JUMPDEST PUSH32 0x4E487B7100000000000000000000000000000000000000000000000000000000 PUSH1 0x0 MSTORE PUSH1 0x11 PUSH1 0x4 MSTORE PUSH1 0x24 PUSH1 0x0 REVERT JUMPDEST PUSH32 0x4E487B7100000000000000000000000000000000000000000000000000000000 PUSH1 0x0 MSTORE PUSH1 0x21 PUSH1 0x4 MSTORE PUSH1 0x24 PUSH1 0x0 REVERT JUMPDEST PUSH1 0x0 DUP1 REVERT JUMPDEST PUSH1 0x3 DUP2 LT PUSH2 0x726 JUMPI PUSH1 0x0 DUP1 REVERT JUMPDEST POP JUMP JUMPDEST PUSH2 0x732 DUP2 PUSH2 0x6AC JUMP JUMPDEST DUP2 EQ PUSH2 0x73D JUMPI PUSH1 0x0 DUP1 REVERT JUMPDEST POP JUMP INVALID LOG2 PUSH5 0x6970667358 0x22 SLT KECCAK256 0x26 ADD DELEGATECALL MSIZE PUSH21 0xC83E8173A393A9521D65F503D0DDA194C896237472 SWAP6 0x2C 0xE8 0x4E CODECOPY REVERT PUSH5 0x736F6C6343 STOP ADDMOD SMOD STOP CALLER "
				},
				"gasEstimates": {
					"creation": {
						"codeDepositCost": "382000",
						"executionCost": "5400",
						"totalCost": "387400"
					},
					"external": {
						"createRoom(uint8)": "infinite",
						"joinRoom(uint256,uint8)": "96054"
					}
				},
				"methodIdentifiers": {
					"createRoom(uint8)": "0f36f3b5",
					"joinRoom(uint256,uint8)": "79b15776"
				}
			},
			"userdoc": {
				"kind": "user",
				"methods": {},
				"version": 1
			}
		}
	}
}