{
	"RPS.sol": {
		"RPS": {
			"abi": [
				{
					"inputs": [],
					"stateMutability": "payable",
					"type": "constructor"
				},
				{
					"inputs": [
						{
							"internalType": "enum RPS.Hand",
							"name": "_hand",
							"type": "uint8"
						}
					],
					"name": "createRoom",
					"outputs": [
						{
							"internalType": "uint256",
							"name": "roomNum",
							"type": "uint256"
						}
					],
					"stateMutability": "payable",
					"type": "function"
				},
				{
					"inputs": [
						{
							"internalType": "uint256",
							"name": "roomNum",
							"type": "uint256"
						},
						{
							"internalType": "enum RPS.Hand",
							"name": "_hand",
							"type": "uint8"
						}
					],
					"name": "joinRoom",
					"outputs": [],
					"stateMutability": "payable",
					"type": "function"
				},
				{
					"inputs": [
						{
							"internalType": "uint256",
							"name": "roomNum",
							"type": "uint256"
						}
					],
					"name": "payout",
					"outputs": [],
					"stateMutability": "payable",
					"type": "function"
				}
			],
			"devdoc": {
				"kind": "dev",
				"methods": {},
				"version": 1
			},
			"evm": {
				"assembly": "    /* \"RPS.sol\":56:4092  contract RPS {... */\n  mstore(0x40, 0x80)\n    /* \"RPS.sol\":642:643  0 */\n  0x00\n    /* \"RPS.sol\":627:643  uint roomLen = 0 */\n  0x01\n  sstore\n    /* \"RPS.sol\":56:4092  contract RPS {... */\n  dataSize(sub_0)\n  dup1\n  dataOffset(sub_0)\n  0x00\n  codecopy\n  0x00\n  return\nstop\n\nsub_0: assembly {\n        /* \"RPS.sol\":56:4092  contract RPS {... */\n      mstore(0x40, 0x80)\n      jumpi(tag_1, lt(calldatasize, 0x04))\n      shr(0xe0, calldataload(0x00))\n      dup1\n      0x0f36f3b5\n      eq\n      tag_2\n      jumpi\n      dup1\n      0x79b15776\n      eq\n      tag_3\n      jumpi\n      dup1\n      0xe1152343\n      eq\n      tag_4\n      jumpi\n    tag_1:\n      0x00\n      dup1\n      revert\n        /* \"RPS.sol\":999:1722  function createRoom(Hand _hand) public payable isValidHand(_hand) returns (uint roomNum) {... */\n    tag_2:\n      tag_5\n      0x04\n      dup1\n      calldatasize\n      sub\n      dup2\n      add\n      swap1\n      tag_6\n      swap2\n      swap1\n      tag_7\n      jump\t// in\n    tag_6:\n      tag_8\n      jump\t// in\n    tag_5:\n      mload(0x40)\n      tag_9\n      swap2\n      swap1\n      tag_10\n      jump\t// in\n    tag_9:\n      mload(0x40)\n      dup1\n      swap2\n      sub\n      swap1\n      return\n        /* \"RPS.sol\":1728:2127  function joinRoom(uint roomNum, Hand _hand) public payable isValidHand(_hand) {... */\n    tag_3:\n      tag_11\n      0x04\n      dup1\n      calldatasize\n      sub\n      dup2\n      add\n      swap1\n      tag_12\n      swap2\n      swap1\n      tag_13\n      jump\t// in\n    tag_12:\n      tag_14\n      jump\t// in\n    tag_11:\n      stop\n        /* \"RPS.sol\":3061:4090  function payout(uint roomNum) public payable {... */\n    tag_4:\n      tag_15\n      0x04\n      dup1\n      calldatasize\n      sub\n      dup2\n      add\n      swap1\n      tag_16\n      swap2\n      swap1\n      tag_17\n      jump\t// in\n    tag_16:\n      tag_18\n      jump\t// in\n    tag_15:\n      stop\n        /* \"RPS.sol\":999:1722  function createRoom(Hand _hand) public payable isValidHand(_hand) returns (uint roomNum) {... */\n    tag_8:\n        /* \"RPS.sol\":1074:1086  uint roomNum */\n      0x00\n        /* \"RPS.sol\":1058:1063  _hand */\n      dup2\n        /* \"RPS.sol\":741:750  Hand.rock */\n      0x00\n        /* \"RPS.sol\":732:750  _hand == Hand.rock */\n      0x02\n      dup2\n      gt\n      iszero\n      tag_20\n      jumpi\n      tag_21\n      tag_22\n      jump\t// in\n    tag_21:\n    tag_20:\n        /* \"RPS.sol\":732:737  _hand */\n      dup2\n        /* \"RPS.sol\":732:750  _hand == Hand.rock */\n      0x02\n      dup2\n      gt\n      iszero\n      tag_23\n      jumpi\n      tag_24\n      tag_22\n      jump\t// in\n    tag_24:\n    tag_23:\n      eq\n        /* \"RPS.sol\":731:776  (_hand == Hand.rock) || (_hand == Hand.paper) */\n      dup1\n      tag_25\n      jumpi\n      pop\n        /* \"RPS.sol\":765:775  Hand.paper */\n      0x01\n        /* \"RPS.sol\":756:775  _hand == Hand.paper */\n      0x02\n      dup2\n      gt\n      iszero\n      tag_26\n      jumpi\n      tag_27\n      tag_22\n      jump\t// in\n    tag_27:\n    tag_26:\n        /* \"RPS.sol\":756:761  _hand */\n      dup2\n        /* \"RPS.sol\":756:775  _hand == Hand.paper */\n      0x02\n      dup2\n      gt\n      iszero\n      tag_28\n      jumpi\n      tag_29\n      tag_22\n      jump\t// in\n    tag_29:\n    tag_28:\n      eq\n        /* \"RPS.sol\":731:776  (_hand == Hand.rock) || (_hand == Hand.paper) */\n    tag_25:\n        /* \"RPS.sol\":731:804  (_hand == Hand.rock) || (_hand == Hand.paper) || (_hand == Hand.scissors) */\n      dup1\n      tag_30\n      jumpi\n      pop\n        /* \"RPS.sol\":790:803  Hand.scissors */\n      0x02\n        /* \"RPS.sol\":781:803  _hand == Hand.scissors */\n      dup1\n      dup2\n      gt\n      iszero\n      tag_31\n      jumpi\n      tag_32\n      tag_22\n      jump\t// in\n    tag_32:\n    tag_31:\n        /* \"RPS.sol\":781:786  _hand */\n      dup2\n        /* \"RPS.sol\":781:803  _hand == Hand.scissors */\n      0x02\n      dup2\n      gt\n      iszero\n      tag_33\n      jumpi\n      tag_34\n      tag_22\n      jump\t// in\n    tag_34:\n    tag_33:\n      eq\n        /* \"RPS.sol\":731:804  (_hand == Hand.rock) || (_hand == Hand.paper) || (_hand == Hand.scissors) */\n    tag_30:\n        /* \"RPS.sol\":723:805  require((_hand == Hand.rock) || (_hand == Hand.paper) || (_hand == Hand.scissors)) */\n      tag_35\n      jumpi\n      0x00\n      dup1\n      revert\n    tag_35:\n        /* \"RPS.sol\":1115:1657  Game({... */\n      mload(0x40)\n      dup1\n      0x80\n      add\n      0x40\n      mstore\n      dup1\n        /* \"RPS.sol\":1235:1432  Player({... */\n      mload(0x40)\n      dup1\n      0x80\n      add\n      0x40\n      mstore\n      dup1\n        /* \"RPS.sol\":1303:1313  msg.sender */\n      caller\n        /* \"RPS.sol\":1235:1432  Player({... */\n      0xffffffffffffffffffffffffffffffffffffffff\n      and\n      dup2\n      mstore\n      0x20\n      add\n        /* \"RPS.sol\":1408:1417  msg.value */\n      callvalue\n        /* \"RPS.sol\":1235:1432  Player({... */\n      dup2\n      mstore\n      0x20\n      add\n        /* \"RPS.sol\":1266:1271  _hand */\n      dup7\n        /* \"RPS.sol\":1235:1432  Player({... */\n      0x02\n      dup2\n      gt\n      iszero\n      tag_37\n      jumpi\n      tag_38\n      tag_22\n      jump\t// in\n    tag_38:\n    tag_37:\n      dup2\n      mstore\n      0x20\n      add\n        /* \"RPS.sol\":1346:1373  PlayerStatus.STATUS_PENDING */\n      0x03\n        /* \"RPS.sol\":1235:1432  Player({... */\n      dup1\n      dup2\n      gt\n      iszero\n      tag_39\n      jumpi\n      tag_40\n      tag_22\n      jump\t// in\n    tag_40:\n    tag_39:\n      dup2\n      mstore\n      pop\n        /* \"RPS.sol\":1115:1657  Game({... */\n      dup2\n      mstore\n      0x20\n      add\n        /* \"RPS.sol\":1453:1646  Player({... */\n      mload(0x40)\n      dup1\n      0x80\n      add\n      0x40\n      mstore\n      dup1\n        /* \"RPS.sol\":1525:1535  msg.sender */\n      caller\n        /* \"RPS.sol\":1453:1646  Player({... */\n      0xffffffffffffffffffffffffffffffffffffffff\n      and\n      dup2\n      mstore\n      0x20\n      add\n        /* \"RPS.sol\":1630:1631  0 */\n      0x00\n        /* \"RPS.sol\":1453:1646  Player({... */\n      dup2\n      mstore\n      0x20\n      add\n        /* \"RPS.sol\":1484:1493  Hand.rock */\n      0x00\n        /* \"RPS.sol\":1453:1646  Player({... */\n      0x02\n      dup2\n      gt\n      iszero\n      tag_41\n      jumpi\n      tag_42\n      tag_22\n      jump\t// in\n    tag_42:\n    tag_41:\n      dup2\n      mstore\n      0x20\n      add\n        /* \"RPS.sol\":1568:1595  PlayerStatus.STATUS_PENDING */\n      0x03\n        /* \"RPS.sol\":1453:1646  Player({... */\n      dup1\n      dup2\n      gt\n      iszero\n      tag_43\n      jumpi\n      tag_44\n      tag_22\n      jump\t// in\n    tag_44:\n    tag_43:\n      dup2\n      mstore\n      pop\n        /* \"RPS.sol\":1115:1657  Game({... */\n      dup2\n      mstore\n      0x20\n      add\n        /* \"RPS.sol\":1145:1154  msg.value */\n      callvalue\n        /* \"RPS.sol\":1115:1657  Game({... */\n      dup2\n      mstore\n      0x20\n      add\n        /* \"RPS.sol\":1180:1209  GameStatus.STATUS_NOT_STARTED */\n      0x00\n        /* \"RPS.sol\":1115:1657  Game({... */\n      0x03\n      dup2\n      gt\n      iszero\n      tag_45\n      jumpi\n      tag_46\n      tag_22\n      jump\t// in\n    tag_46:\n    tag_45:\n      dup2\n      mstore\n      pop\n        /* \"RPS.sol\":1098:1103  rooms */\n      0x00\n        /* \"RPS.sol\":1098:1112  rooms[roomLen] */\n      dup1\n        /* \"RPS.sol\":1104:1111  roomLen */\n      sload(0x01)\n        /* \"RPS.sol\":1098:1112  rooms[roomLen] */\n      dup2\n      mstore\n      0x20\n      add\n      swap1\n      dup2\n      mstore\n      0x20\n      add\n      0x00\n      keccak256\n        /* \"RPS.sol\":1098:1657  rooms[roomLen] = Game({... */\n      0x00\n      dup3\n      add\n      mload\n      dup2\n      0x00\n      add\n      0x00\n      dup3\n      add\n      mload\n      dup2\n      0x00\n      add\n      exp(0x0100, 0x00)\n      dup2\n      sload\n      dup2\n      0xffffffffffffffffffffffffffffffffffffffff\n      mul\n      not\n      and\n      swap1\n      dup4\n      0xffffffffffffffffffffffffffffffffffffffff\n      and\n      mul\n      or\n      swap1\n      sstore\n      pop\n      0x20\n      dup3\n      add\n      mload\n      dup2\n      0x01\n      add\n      sstore\n      0x40\n      dup3\n      add\n      mload\n      dup2\n      0x02\n      add\n      exp(0x0100, 0x00)\n      dup2\n      sload\n      dup2\n      0xff\n      mul\n      not\n      and\n      swap1\n      dup4\n      0x02\n      dup2\n      gt\n      iszero\n      tag_47\n      jumpi\n      tag_48\n      tag_22\n      jump\t// in\n    tag_48:\n    tag_47:\n      mul\n      or\n      swap1\n      sstore\n      pop\n      0x60\n      dup3\n      add\n      mload\n      dup2\n      0x02\n      add\n      exp(0x0100, 0x01)\n      dup2\n      sload\n      dup2\n      0xff\n      mul\n      not\n      and\n      swap1\n      dup4\n      0x03\n      dup2\n      gt\n      iszero\n      tag_49\n      jumpi\n      tag_50\n      tag_22\n      jump\t// in\n    tag_50:\n    tag_49:\n      mul\n      or\n      swap1\n      sstore\n      pop\n      pop\n      pop\n      0x20\n      dup3\n      add\n      mload\n      dup2\n      0x03\n      add\n      0x00\n      dup3\n      add\n      mload\n      dup2\n      0x00\n      add\n      exp(0x0100, 0x00)\n      dup2\n      sload\n      dup2\n      0xffffffffffffffffffffffffffffffffffffffff\n      mul\n      not\n      and\n      swap1\n      dup4\n      0xffffffffffffffffffffffffffffffffffffffff\n      and\n      mul\n      or\n      swap1\n      sstore\n      pop\n      0x20\n      dup3\n      add\n      mload\n      dup2\n      0x01\n      add\n      sstore\n      0x40\n      dup3\n      add\n      mload\n      dup2\n      0x02\n      add\n      exp(0x0100, 0x00)\n      dup2\n      sload\n      dup2\n      0xff\n      mul\n      not\n      and\n      swap1\n      dup4\n      0x02\n      dup2\n      gt\n      iszero\n      tag_51\n      jumpi\n      tag_52\n      tag_22\n      jump\t// in\n    tag_52:\n    tag_51:\n      mul\n      or\n      swap1\n      sstore\n      pop\n      0x60\n      dup3\n      add\n      mload\n      dup2\n      0x02\n      add\n      exp(0x0100, 0x01)\n      dup2\n      sload\n      dup2\n      0xff\n      mul\n      not\n      and\n      swap1\n      dup4\n      0x03\n      dup2\n      gt\n      iszero\n      tag_53\n      jumpi\n      tag_54\n      tag_22\n      jump\t// in\n    tag_54:\n    tag_53:\n      mul\n      or\n      swap1\n      sstore\n      pop\n      pop\n      pop\n      0x40\n      dup3\n      add\n      mload\n      dup2\n      0x06\n      add\n      sstore\n      0x60\n      dup3\n      add\n      mload\n      dup2\n      0x07\n      add\n      exp(0x0100, 0x00)\n      dup2\n      sload\n      dup2\n      0xff\n      mul\n      not\n      and\n      swap1\n      dup4\n      0x03\n      dup2\n      gt\n      iszero\n      tag_55\n      jumpi\n      tag_56\n      tag_22\n      jump\t// in\n    tag_56:\n    tag_55:\n      mul\n      or\n      swap1\n      sstore\n      pop\n      swap1\n      pop\n      pop\n        /* \"RPS.sol\":1677:1684  roomLen */\n      sload(0x01)\n        /* \"RPS.sol\":1667:1684  roomNum = roomLen */\n      swap2\n      pop\n        /* \"RPS.sol\":1714:1715  1 */\n      0x01\n        /* \"RPS.sol\":1704:1711  roomLen */\n      dup1\n      sload\n        /* \"RPS.sol\":1704:1715  roomLen + 1 */\n      tag_57\n      swap2\n      swap1\n      tag_58\n      jump\t// in\n    tag_57:\n        /* \"RPS.sol\":1694:1701  roomLen */\n      0x01\n        /* \"RPS.sol\":1694:1715  roomLen = roomLen + 1 */\n      dup2\n      swap1\n      sstore\n      pop\n        /* \"RPS.sol\":999:1722  function createRoom(Hand _hand) public payable isValidHand(_hand) returns (uint roomNum) {... */\n      pop\n      swap2\n      swap1\n      pop\n      jump\t// out\n        /* \"RPS.sol\":1728:2127  function joinRoom(uint roomNum, Hand _hand) public payable isValidHand(_hand) {... */\n    tag_14:\n        /* \"RPS.sol\":1799:1804  _hand */\n      dup1\n        /* \"RPS.sol\":741:750  Hand.rock */\n      0x00\n        /* \"RPS.sol\":732:750  _hand == Hand.rock */\n      0x02\n      dup2\n      gt\n      iszero\n      tag_60\n      jumpi\n      tag_61\n      tag_22\n      jump\t// in\n    tag_61:\n    tag_60:\n        /* \"RPS.sol\":732:737  _hand */\n      dup2\n        /* \"RPS.sol\":732:750  _hand == Hand.rock */\n      0x02\n      dup2\n      gt\n      iszero\n      tag_62\n      jumpi\n      tag_63\n      tag_22\n      jump\t// in\n    tag_63:\n    tag_62:\n      eq\n        /* \"RPS.sol\":731:776  (_hand == Hand.rock) || (_hand == Hand.paper) */\n      dup1\n      tag_64\n      jumpi\n      pop\n        /* \"RPS.sol\":765:775  Hand.paper */\n      0x01\n        /* \"RPS.sol\":756:775  _hand == Hand.paper */\n      0x02\n      dup2\n      gt\n      iszero\n      tag_65\n      jumpi\n      tag_66\n      tag_22\n      jump\t// in\n    tag_66:\n    tag_65:\n        /* \"RPS.sol\":756:761  _hand */\n      dup2\n        /* \"RPS.sol\":756:775  _hand == Hand.paper */\n      0x02\n      dup2\n      gt\n      iszero\n      tag_67\n      jumpi\n      tag_68\n      tag_22\n      jump\t// in\n    tag_68:\n    tag_67:\n      eq\n        /* \"RPS.sol\":731:776  (_hand == Hand.rock) || (_hand == Hand.paper) */\n    tag_64:\n        /* \"RPS.sol\":731:804  (_hand == Hand.rock) || (_hand == Hand.paper) || (_hand == Hand.scissors) */\n      dup1\n      tag_69\n      jumpi\n      pop\n        /* \"RPS.sol\":790:803  Hand.scissors */\n      0x02\n        /* \"RPS.sol\":781:803  _hand == Hand.scissors */\n      dup1\n      dup2\n      gt\n      iszero\n      tag_70\n      jumpi\n      tag_71\n      tag_22\n      jump\t// in\n    tag_71:\n    tag_70:\n        /* \"RPS.sol\":781:786  _hand */\n      dup2\n        /* \"RPS.sol\":781:803  _hand == Hand.scissors */\n      0x02\n      dup2\n      gt\n      iszero\n      tag_72\n      jumpi\n      tag_73\n      tag_22\n      jump\t// in\n    tag_73:\n    tag_72:\n      eq\n        /* \"RPS.sol\":731:804  (_hand == Hand.rock) || (_hand == Hand.paper) || (_hand == Hand.scissors) */\n    tag_69:\n        /* \"RPS.sol\":723:805  require((_hand == Hand.rock) || (_hand == Hand.paper) || (_hand == Hand.scissors)) */\n      tag_74\n      jumpi\n      0x00\n      dup1\n      revert\n    tag_74:\n        /* \"RPS.sol\":1839:2016  Player({... */\n      mload(0x40)\n      dup1\n      0x80\n      add\n      0x40\n      mstore\n      dup1\n        /* \"RPS.sol\":1899:1909  msg.sender */\n      caller\n        /* \"RPS.sol\":1839:2016  Player({... */\n      0xffffffffffffffffffffffffffffffffffffffff\n      and\n      dup2\n      mstore\n      0x20\n      add\n        /* \"RPS.sol\":1996:2005  msg.value */\n      callvalue\n        /* \"RPS.sol\":1839:2016  Player({... */\n      dup2\n      mstore\n      0x20\n      add\n        /* \"RPS.sol\":1866:1871  _hand */\n      dup4\n        /* \"RPS.sol\":1839:2016  Player({... */\n      0x02\n      dup2\n      gt\n      iszero\n      tag_76\n      jumpi\n      tag_77\n      tag_22\n      jump\t// in\n    tag_77:\n    tag_76:\n      dup2\n      mstore\n      0x20\n      add\n        /* \"RPS.sol\":1938:1965  PlayerStatus.STATUS_PENDING */\n      0x03\n        /* \"RPS.sol\":1839:2016  Player({... */\n      dup1\n      dup2\n      gt\n      iszero\n      tag_78\n      jumpi\n      tag_79\n      tag_22\n      jump\t// in\n    tag_79:\n    tag_78:\n      dup2\n      mstore\n      pop\n        /* \"RPS.sol\":1816:1821  rooms */\n      0x00\n        /* \"RPS.sol\":1816:1830  rooms[roomNum] */\n      dup1\n        /* \"RPS.sol\":1822:1829  roomNum */\n      dup6\n        /* \"RPS.sol\":1816:1830  rooms[roomNum] */\n      dup2\n      mstore\n      0x20\n      add\n      swap1\n      dup2\n      mstore\n      0x20\n      add\n      0x00\n      keccak256\n        /* \"RPS.sol\":1816:1836  rooms[roomNum].taker */\n      0x03\n      add\n        /* \"RPS.sol\":1816:2016  rooms[roomNum].taker = Player({... */\n      0x00\n      dup3\n      add\n      mload\n      dup2\n      0x00\n      add\n      exp(0x0100, 0x00)\n      dup2\n      sload\n      dup2\n      0xffffffffffffffffffffffffffffffffffffffff\n      mul\n      not\n      and\n      swap1\n      dup4\n      0xffffffffffffffffffffffffffffffffffffffff\n      and\n      mul\n      or\n      swap1\n      sstore\n      pop\n      0x20\n      dup3\n      add\n      mload\n      dup2\n      0x01\n      add\n      sstore\n      0x40\n      dup3\n      add\n      mload\n      dup2\n      0x02\n      add\n      exp(0x0100, 0x00)\n      dup2\n      sload\n      dup2\n      0xff\n      mul\n      not\n      and\n      swap1\n      dup4\n      0x02\n      dup2\n      gt\n      iszero\n      tag_80\n      jumpi\n      tag_81\n      tag_22\n      jump\t// in\n    tag_81:\n    tag_80:\n      mul\n      or\n      swap1\n      sstore\n      pop\n      0x60\n      dup3\n      add\n      mload\n      dup2\n      0x02\n      add\n      exp(0x0100, 0x01)\n      dup2\n      sload\n      dup2\n      0xff\n      mul\n      not\n      and\n      swap1\n      dup4\n      0x03\n      dup2\n      gt\n      iszero\n      tag_82\n      jumpi\n      tag_83\n      tag_22\n      jump\t// in\n    tag_83:\n    tag_82:\n      mul\n      or\n      swap1\n      sstore\n      pop\n      swap1\n      pop\n      pop\n        /* \"RPS.sol\":2080:2089  msg.value */\n      callvalue\n        /* \"RPS.sol\":2053:2058  rooms */\n      0x00\n        /* \"RPS.sol\":2053:2067  rooms[roomNum] */\n      dup1\n        /* \"RPS.sol\":2059:2066  roomNum */\n      dup6\n        /* \"RPS.sol\":2053:2067  rooms[roomNum] */\n      dup2\n      mstore\n      0x20\n      add\n      swap1\n      dup2\n      mstore\n      0x20\n      add\n      0x00\n      keccak256\n        /* \"RPS.sol\":2053:2077  rooms[roomNum].betAmount */\n      0x06\n      add\n      sload\n        /* \"RPS.sol\":2053:2089  rooms[roomNum].betAmount + msg.value */\n      tag_84\n      swap2\n      swap1\n      tag_58\n      jump\t// in\n    tag_84:\n        /* \"RPS.sol\":2026:2031  rooms */\n      0x00\n        /* \"RPS.sol\":2026:2040  rooms[roomNum] */\n      dup1\n        /* \"RPS.sol\":2032:2039  roomNum */\n      dup6\n        /* \"RPS.sol\":2026:2040  rooms[roomNum] */\n      dup2\n      mstore\n      0x20\n      add\n      swap1\n      dup2\n      mstore\n      0x20\n      add\n      0x00\n      keccak256\n        /* \"RPS.sol\":2026:2050  rooms[roomNum].betAmount */\n      0x06\n      add\n        /* \"RPS.sol\":2026:2089  rooms[roomNum].betAmount = rooms[roomNum].betAmount + msg.value */\n      dup2\n      swap1\n      sstore\n      pop\n        /* \"RPS.sol\":2099:2120  compareHands(roomNum) */\n      tag_85\n        /* \"RPS.sol\":2112:2119  roomNum */\n      dup4\n        /* \"RPS.sol\":2099:2111  compareHands */\n      tag_86\n        /* \"RPS.sol\":2099:2120  compareHands(roomNum) */\n      jump\t// in\n    tag_85:\n        /* \"RPS.sol\":1728:2127  function joinRoom(uint roomNum, Hand _hand) public payable isValidHand(_hand) {... */\n      pop\n      pop\n      pop\n      jump\t// out\n        /* \"RPS.sol\":3061:4090  function payout(uint roomNum) public payable {... */\n    tag_18:\n        /* \"RPS.sol\":3162:3185  PlayerStatus.STATUS_TIE */\n      0x02\n        /* \"RPS.sol\":3120:3185  rooms[roomNum].originator.playerStatus == PlayerStatus.STATUS_TIE */\n      0x03\n      dup2\n      gt\n      iszero\n      tag_88\n      jumpi\n      tag_89\n      tag_22\n      jump\t// in\n    tag_89:\n    tag_88:\n        /* \"RPS.sol\":3120:3125  rooms */\n      0x00\n        /* \"RPS.sol\":3120:3134  rooms[roomNum] */\n      dup1\n        /* \"RPS.sol\":3126:3133  roomNum */\n      dup4\n        /* \"RPS.sol\":3120:3134  rooms[roomNum] */\n      dup2\n      mstore\n      0x20\n      add\n      swap1\n      dup2\n      mstore\n      0x20\n      add\n      0x00\n      keccak256\n        /* \"RPS.sol\":3120:3145  rooms[roomNum].originator */\n      0x00\n      add\n        /* \"RPS.sol\":3120:3158  rooms[roomNum].originator.playerStatus */\n      0x02\n      add\n      0x01\n      swap1\n      sload\n      swap1\n      0x0100\n      exp\n      swap1\n      div\n      0xff\n      and\n        /* \"RPS.sol\":3120:3185  rooms[roomNum].originator.playerStatus == PlayerStatus.STATUS_TIE */\n      0x03\n      dup2\n      gt\n      iszero\n      tag_90\n      jumpi\n      tag_91\n      tag_22\n      jump\t// in\n    tag_91:\n    tag_90:\n      eq\n        /* \"RPS.sol\":3120:3249  rooms[roomNum].originator.playerStatus == PlayerStatus.STATUS_TIE && rooms[roomNum].taker.playerStatus == PlayerStatus.STATUS_TIE */\n      dup1\n      iszero\n      tag_92\n      jumpi\n      pop\n        /* \"RPS.sol\":3226:3249  PlayerStatus.STATUS_TIE */\n      0x02\n        /* \"RPS.sol\":3189:3249  rooms[roomNum].taker.playerStatus == PlayerStatus.STATUS_TIE */\n      0x03\n      dup2\n      gt\n      iszero\n      tag_93\n      jumpi\n      tag_94\n      tag_22\n      jump\t// in\n    tag_94:\n    tag_93:\n        /* \"RPS.sol\":3189:3194  rooms */\n      0x00\n        /* \"RPS.sol\":3189:3203  rooms[roomNum] */\n      dup1\n        /* \"RPS.sol\":3195:3202  roomNum */\n      dup4\n        /* \"RPS.sol\":3189:3203  rooms[roomNum] */\n      dup2\n      mstore\n      0x20\n      add\n      swap1\n      dup2\n      mstore\n      0x20\n      add\n      0x00\n      keccak256\n        /* \"RPS.sol\":3189:3209  rooms[roomNum].taker */\n      0x03\n      add\n        /* \"RPS.sol\":3189:3222  rooms[roomNum].taker.playerStatus */\n      0x02\n      add\n      0x01\n      swap1\n      sload\n      swap1\n      0x0100\n      exp\n      swap1\n      div\n      0xff\n      and\n        /* \"RPS.sol\":3189:3249  rooms[roomNum].taker.playerStatus == PlayerStatus.STATUS_TIE */\n      0x03\n      dup2\n      gt\n      iszero\n      tag_95\n      jumpi\n      tag_96\n      tag_22\n      jump\t// in\n    tag_96:\n    tag_95:\n      eq\n        /* \"RPS.sol\":3120:3249  rooms[roomNum].originator.playerStatus == PlayerStatus.STATUS_TIE && rooms[roomNum].taker.playerStatus == PlayerStatus.STATUS_TIE */\n    tag_92:\n        /* \"RPS.sol\":3116:4019  if (rooms[roomNum].originator.playerStatus == PlayerStatus.STATUS_TIE && rooms[roomNum].taker.playerStatus == PlayerStatus.STATUS_TIE) {... */\n      iszero\n      tag_97\n      jumpi\n        /* \"RPS.sol\":3265:3270  rooms */\n      0x00\n        /* \"RPS.sol\":3265:3279  rooms[roomNum] */\n      dup1\n        /* \"RPS.sol\":3271:3278  roomNum */\n      dup3\n        /* \"RPS.sol\":3265:3279  rooms[roomNum] */\n      dup2\n      mstore\n      0x20\n      add\n      swap1\n      dup2\n      mstore\n      0x20\n      add\n      0x00\n      keccak256\n        /* \"RPS.sol\":3265:3290  rooms[roomNum].originator */\n      0x00\n      add\n        /* \"RPS.sol\":3265:3295  rooms[roomNum].originator.addr */\n      0x00\n      add\n      0x00\n      swap1\n      sload\n      swap1\n      0x0100\n      exp\n      swap1\n      div\n      0xffffffffffffffffffffffffffffffffffffffff\n      and\n        /* \"RPS.sol\":3265:3304  rooms[roomNum].originator.addr.transfer */\n      0xffffffffffffffffffffffffffffffffffffffff\n      and\n        /* \"RPS.sol\":3265:3347  rooms[roomNum].originator.addr.transfer(rooms[roomNum].originator.playerBetAmount) */\n      0x08fc\n        /* \"RPS.sol\":3305:3310  rooms */\n      0x00\n        /* \"RPS.sol\":3305:3319  rooms[roomNum] */\n      dup1\n        /* \"RPS.sol\":3311:3318  roomNum */\n      dup5\n        /* \"RPS.sol\":3305:3319  rooms[roomNum] */\n      dup2\n      mstore\n      0x20\n      add\n      swap1\n      dup2\n      mstore\n      0x20\n      add\n      0x00\n      keccak256\n        /* \"RPS.sol\":3305:3330  rooms[roomNum].originator */\n      0x00\n      add\n        /* \"RPS.sol\":3305:3346  rooms[roomNum].originator.playerBetAmount */\n      0x01\n      add\n      sload\n        /* \"RPS.sol\":3265:3347  rooms[roomNum].originator.addr.transfer(rooms[roomNum].originator.playerBetAmount) */\n      swap1\n      dup2\n      iszero\n      mul\n      swap1\n      mload(0x40)\n      0x00\n      mload(0x40)\n      dup1\n      dup4\n      sub\n      dup2\n      dup6\n      dup9\n      dup9\n      call\n      swap4\n      pop\n      pop\n      pop\n      pop\n      iszero\n      dup1\n      iszero\n      tag_99\n      jumpi\n      returndatasize\n      0x00\n      dup1\n      returndatacopy\n      revert(0x00, returndatasize)\n    tag_99:\n      pop\n        /* \"RPS.sol\":3361:3366  rooms */\n      0x00\n        /* \"RPS.sol\":3361:3375  rooms[roomNum] */\n      dup1\n        /* \"RPS.sol\":3367:3374  roomNum */\n      dup3\n        /* \"RPS.sol\":3361:3375  rooms[roomNum] */\n      dup2\n      mstore\n      0x20\n      add\n      swap1\n      dup2\n      mstore\n      0x20\n      add\n      0x00\n      keccak256\n        /* \"RPS.sol\":3361:3381  rooms[roomNum].taker */\n      0x03\n      add\n        /* \"RPS.sol\":3361:3386  rooms[roomNum].taker.addr */\n      0x00\n      add\n      0x00\n      swap1\n      sload\n      swap1\n      0x0100\n      exp\n      swap1\n      div\n      0xffffffffffffffffffffffffffffffffffffffff\n      and\n        /* \"RPS.sol\":3361:3395  rooms[roomNum].taker.addr.transfer */\n      0xffffffffffffffffffffffffffffffffffffffff\n      and\n        /* \"RPS.sol\":3361:3433  rooms[roomNum].taker.addr.transfer(rooms[roomNum].taker.playerBetAmount) */\n      0x08fc\n        /* \"RPS.sol\":3396:3401  rooms */\n      0x00\n        /* \"RPS.sol\":3396:3410  rooms[roomNum] */\n      dup1\n        /* \"RPS.sol\":3402:3409  roomNum */\n      dup5\n        /* \"RPS.sol\":3396:3410  rooms[roomNum] */\n      dup2\n      mstore\n      0x20\n      add\n      swap1\n      dup2\n      mstore\n      0x20\n      add\n      0x00\n      keccak256\n        /* \"RPS.sol\":3396:3416  rooms[roomNum].taker */\n      0x03\n      add\n        /* \"RPS.sol\":3396:3432  rooms[roomNum].taker.playerBetAmount */\n      0x01\n      add\n      sload\n        /* \"RPS.sol\":3361:3433  rooms[roomNum].taker.addr.transfer(rooms[roomNum].taker.playerBetAmount) */\n      swap1\n      dup2\n      iszero\n      mul\n      swap1\n      mload(0x40)\n      0x00\n      mload(0x40)\n      dup1\n      dup4\n      sub\n      dup2\n      dup6\n      dup9\n      dup9\n      call\n      swap4\n      pop\n      pop\n      pop\n      pop\n      iszero\n      dup1\n      iszero\n      tag_101\n      jumpi\n      returndatasize\n      0x00\n      dup1\n      returndatacopy\n      revert(0x00, returndatasize)\n    tag_101:\n      pop\n        /* \"RPS.sol\":3116:4019  if (rooms[roomNum].originator.playerStatus == PlayerStatus.STATUS_TIE && rooms[roomNum].taker.playerStatus == PlayerStatus.STATUS_TIE) {... */\n      jump(tag_102)\n    tag_97:\n        /* \"RPS.sol\":3510:3533  PlayerStatus.STATUS_WIN */\n      0x00\n        /* \"RPS.sol\":3468:3533  rooms[roomNum].originator.playerStatus == PlayerStatus.STATUS_WIN */\n      0x03\n      dup2\n      gt\n      iszero\n      tag_103\n      jumpi\n      tag_104\n      tag_22\n      jump\t// in\n    tag_104:\n    tag_103:\n        /* \"RPS.sol\":3468:3473  rooms */\n      0x00\n        /* \"RPS.sol\":3468:3482  rooms[roomNum] */\n      dup1\n        /* \"RPS.sol\":3474:3481  roomNum */\n      dup4\n        /* \"RPS.sol\":3468:3482  rooms[roomNum] */\n      dup2\n      mstore\n      0x20\n      add\n      swap1\n      dup2\n      mstore\n      0x20\n      add\n      0x00\n      keccak256\n        /* \"RPS.sol\":3468:3493  rooms[roomNum].originator */\n      0x00\n      add\n        /* \"RPS.sol\":3468:3506  rooms[roomNum].originator.playerStatus */\n      0x02\n      add\n      0x01\n      swap1\n      sload\n      swap1\n      0x0100\n      exp\n      swap1\n      div\n      0xff\n      and\n        /* \"RPS.sol\":3468:3533  rooms[roomNum].originator.playerStatus == PlayerStatus.STATUS_WIN */\n      0x03\n      dup2\n      gt\n      iszero\n      tag_105\n      jumpi\n      tag_106\n      tag_22\n      jump\t// in\n    tag_106:\n    tag_105:\n      eq\n        /* \"RPS.sol\":3464:4009  if (rooms[roomNum].originator.playerStatus == PlayerStatus.STATUS_WIN) {... */\n      iszero\n      tag_107\n      jumpi\n        /* \"RPS.sol\":3553:3558  rooms */\n      0x00\n        /* \"RPS.sol\":3553:3567  rooms[roomNum] */\n      dup1\n        /* \"RPS.sol\":3559:3566  roomNum */\n      dup3\n        /* \"RPS.sol\":3553:3567  rooms[roomNum] */\n      dup2\n      mstore\n      0x20\n      add\n      swap1\n      dup2\n      mstore\n      0x20\n      add\n      0x00\n      keccak256\n        /* \"RPS.sol\":3553:3578  rooms[roomNum].originator */\n      0x00\n      add\n        /* \"RPS.sol\":3553:3583  rooms[roomNum].originator.addr */\n      0x00\n      add\n      0x00\n      swap1\n      sload\n      swap1\n      0x0100\n      exp\n      swap1\n      div\n      0xffffffffffffffffffffffffffffffffffffffff\n      and\n        /* \"RPS.sol\":3553:3592  rooms[roomNum].originator.addr.transfer */\n      0xffffffffffffffffffffffffffffffffffffffff\n      and\n        /* \"RPS.sol\":3553:3618  rooms[roomNum].originator.addr.transfer(rooms[roomNum].betAmount) */\n      0x08fc\n        /* \"RPS.sol\":3593:3598  rooms */\n      0x00\n        /* \"RPS.sol\":3593:3607  rooms[roomNum] */\n      dup1\n        /* \"RPS.sol\":3599:3606  roomNum */\n      dup5\n        /* \"RPS.sol\":3593:3607  rooms[roomNum] */\n      dup2\n      mstore\n      0x20\n      add\n      swap1\n      dup2\n      mstore\n      0x20\n      add\n      0x00\n      keccak256\n        /* \"RPS.sol\":3593:3617  rooms[roomNum].betAmount */\n      0x06\n      add\n      sload\n        /* \"RPS.sol\":3553:3618  rooms[roomNum].originator.addr.transfer(rooms[roomNum].betAmount) */\n      swap1\n      dup2\n      iszero\n      mul\n      swap1\n      mload(0x40)\n      0x00\n      mload(0x40)\n      dup1\n      dup4\n      sub\n      dup2\n      dup6\n      dup9\n      dup9\n      call\n      swap4\n      pop\n      pop\n      pop\n      pop\n      iszero\n      dup1\n      iszero\n      tag_109\n      jumpi\n      returndatasize\n      0x00\n      dup1\n      returndatacopy\n      revert(0x00, returndatasize)\n    tag_109:\n      pop\n        /* \"RPS.sol\":3464:4009  if (rooms[roomNum].originator.playerStatus == PlayerStatus.STATUS_WIN) {... */\n      jump(tag_110)\n    tag_107:\n        /* \"RPS.sol\":3680:3703  PlayerStatus.STATUS_WIN */\n      0x00\n        /* \"RPS.sol\":3643:3703  rooms[roomNum].taker.playerStatus == PlayerStatus.STATUS_WIN */\n      0x03\n      dup2\n      gt\n      iszero\n      tag_111\n      jumpi\n      tag_112\n      tag_22\n      jump\t// in\n    tag_112:\n    tag_111:\n        /* \"RPS.sol\":3643:3648  rooms */\n      0x00\n        /* \"RPS.sol\":3643:3657  rooms[roomNum] */\n      dup1\n        /* \"RPS.sol\":3649:3656  roomNum */\n      dup4\n        /* \"RPS.sol\":3643:3657  rooms[roomNum] */\n      dup2\n      mstore\n      0x20\n      add\n      swap1\n      dup2\n      mstore\n      0x20\n      add\n      0x00\n      keccak256\n        /* \"RPS.sol\":3643:3663  rooms[roomNum].taker */\n      0x03\n      add\n        /* \"RPS.sol\":3643:3676  rooms[roomNum].taker.playerStatus */\n      0x02\n      add\n      0x01\n      swap1\n      sload\n      swap1\n      0x0100\n      exp\n      swap1\n      div\n      0xff\n      and\n        /* \"RPS.sol\":3643:3703  rooms[roomNum].taker.playerStatus == PlayerStatus.STATUS_WIN */\n      0x03\n      dup2\n      gt\n      iszero\n      tag_113\n      jumpi\n      tag_114\n      tag_22\n      jump\t// in\n    tag_114:\n    tag_113:\n      eq\n        /* \"RPS.sol\":3639:4009  if (rooms[roomNum].taker.playerStatus == PlayerStatus.STATUS_WIN) {... */\n      iszero\n      tag_115\n      jumpi\n        /* \"RPS.sol\":3723:3728  rooms */\n      0x00\n        /* \"RPS.sol\":3723:3737  rooms[roomNum] */\n      dup1\n        /* \"RPS.sol\":3729:3736  roomNum */\n      dup3\n        /* \"RPS.sol\":3723:3737  rooms[roomNum] */\n      dup2\n      mstore\n      0x20\n      add\n      swap1\n      dup2\n      mstore\n      0x20\n      add\n      0x00\n      keccak256\n        /* \"RPS.sol\":3723:3743  rooms[roomNum].taker */\n      0x03\n      add\n        /* \"RPS.sol\":3723:3748  rooms[roomNum].taker.addr */\n      0x00\n      add\n      0x00\n      swap1\n      sload\n      swap1\n      0x0100\n      exp\n      swap1\n      div\n      0xffffffffffffffffffffffffffffffffffffffff\n      and\n        /* \"RPS.sol\":3723:3757  rooms[roomNum].taker.addr.transfer */\n      0xffffffffffffffffffffffffffffffffffffffff\n      and\n        /* \"RPS.sol\":3723:3783  rooms[roomNum].taker.addr.transfer(rooms[roomNum].betAmount) */\n      0x08fc\n        /* \"RPS.sol\":3758:3763  rooms */\n      0x00\n        /* \"RPS.sol\":3758:3772  rooms[roomNum] */\n      dup1\n        /* \"RPS.sol\":3764:3771  roomNum */\n      dup5\n        /* \"RPS.sol\":3758:3772  rooms[roomNum] */\n      dup2\n      mstore\n      0x20\n      add\n      swap1\n      dup2\n      mstore\n      0x20\n      add\n      0x00\n      keccak256\n        /* \"RPS.sol\":3758:3782  rooms[roomNum].betAmount */\n      0x06\n      add\n      sload\n        /* \"RPS.sol\":3723:3783  rooms[roomNum].taker.addr.transfer(rooms[roomNum].betAmount) */\n      swap1\n      dup2\n      iszero\n      mul\n      swap1\n      mload(0x40)\n      0x00\n      mload(0x40)\n      dup1\n      dup4\n      sub\n      dup2\n      dup6\n      dup9\n      dup9\n      call\n      swap4\n      pop\n      pop\n      pop\n      pop\n      iszero\n      dup1\n      iszero\n      tag_117\n      jumpi\n      returndatasize\n      0x00\n      dup1\n      returndatacopy\n      revert(0x00, returndatasize)\n    tag_117:\n      pop\n        /* \"RPS.sol\":3639:4009  if (rooms[roomNum].taker.playerStatus == PlayerStatus.STATUS_WIN) {... */\n      jump(tag_118)\n    tag_115:\n        /* \"RPS.sol\":3822:3827  rooms */\n      0x00\n        /* \"RPS.sol\":3822:3836  rooms[roomNum] */\n      dup1\n        /* \"RPS.sol\":3828:3835  roomNum */\n      dup3\n        /* \"RPS.sol\":3822:3836  rooms[roomNum] */\n      dup2\n      mstore\n      0x20\n      add\n      swap1\n      dup2\n      mstore\n      0x20\n      add\n      0x00\n      keccak256\n        /* \"RPS.sol\":3822:3847  rooms[roomNum].originator */\n      0x00\n      add\n        /* \"RPS.sol\":3822:3852  rooms[roomNum].originator.addr */\n      0x00\n      add\n      0x00\n      swap1\n      sload\n      swap1\n      0x0100\n      exp\n      swap1\n      div\n      0xffffffffffffffffffffffffffffffffffffffff\n      and\n        /* \"RPS.sol\":3822:3861  rooms[roomNum].originator.addr.transfer */\n      0xffffffffffffffffffffffffffffffffffffffff\n      and\n        /* \"RPS.sol\":3822:3904  rooms[roomNum].originator.addr.transfer(rooms[roomNum].originator.playerBetAmount) */\n      0x08fc\n        /* \"RPS.sol\":3862:3867  rooms */\n      0x00\n        /* \"RPS.sol\":3862:3876  rooms[roomNum] */\n      dup1\n        /* \"RPS.sol\":3868:3875  roomNum */\n      dup5\n        /* \"RPS.sol\":3862:3876  rooms[roomNum] */\n      dup2\n      mstore\n      0x20\n      add\n      swap1\n      dup2\n      mstore\n      0x20\n      add\n      0x00\n      keccak256\n        /* \"RPS.sol\":3862:3887  rooms[roomNum].originator */\n      0x00\n      add\n        /* \"RPS.sol\":3862:3903  rooms[roomNum].originator.playerBetAmount */\n      0x01\n      add\n      sload\n        /* \"RPS.sol\":3822:3904  rooms[roomNum].originator.addr.transfer(rooms[roomNum].originator.playerBetAmount) */\n      swap1\n      dup2\n      iszero\n      mul\n      swap1\n      mload(0x40)\n      0x00\n      mload(0x40)\n      dup1\n      dup4\n      sub\n      dup2\n      dup6\n      dup9\n      dup9\n      call\n      swap4\n      pop\n      pop\n      pop\n      pop\n      iszero\n      dup1\n      iszero\n      tag_120\n      jumpi\n      returndatasize\n      0x00\n      dup1\n      returndatacopy\n      revert(0x00, returndatasize)\n    tag_120:\n      pop\n        /* \"RPS.sol\":3922:3927  rooms */\n      0x00\n        /* \"RPS.sol\":3922:3936  rooms[roomNum] */\n      dup1\n        /* \"RPS.sol\":3928:3935  roomNum */\n      dup3\n        /* \"RPS.sol\":3922:3936  rooms[roomNum] */\n      dup2\n      mstore\n      0x20\n      add\n      swap1\n      dup2\n      mstore\n      0x20\n      add\n      0x00\n      keccak256\n        /* \"RPS.sol\":3922:3942  rooms[roomNum].taker */\n      0x03\n      add\n        /* \"RPS.sol\":3922:3947  rooms[roomNum].taker.addr */\n      0x00\n      add\n      0x00\n      swap1\n      sload\n      swap1\n      0x0100\n      exp\n      swap1\n      div\n      0xffffffffffffffffffffffffffffffffffffffff\n      and\n        /* \"RPS.sol\":3922:3956  rooms[roomNum].taker.addr.transfer */\n      0xffffffffffffffffffffffffffffffffffffffff\n      and\n        /* \"RPS.sol\":3922:3994  rooms[roomNum].taker.addr.transfer(rooms[roomNum].taker.playerBetAmount) */\n      0x08fc\n        /* \"RPS.sol\":3957:3962  rooms */\n      0x00\n        /* \"RPS.sol\":3957:3971  rooms[roomNum] */\n      dup1\n        /* \"RPS.sol\":3963:3970  roomNum */\n      dup5\n        /* \"RPS.sol\":3957:3971  rooms[roomNum] */\n      dup2\n      mstore\n      0x20\n      add\n      swap1\n      dup2\n      mstore\n      0x20\n      add\n      0x00\n      keccak256\n        /* \"RPS.sol\":3957:3977  rooms[roomNum].taker */\n      0x03\n      add\n        /* \"RPS.sol\":3957:3993  rooms[roomNum].taker.playerBetAmount */\n      0x01\n      add\n      sload\n        /* \"RPS.sol\":3922:3994  rooms[roomNum].taker.addr.transfer(rooms[roomNum].taker.playerBetAmount) */\n      swap1\n      dup2\n      iszero\n      mul\n      swap1\n      mload(0x40)\n      0x00\n      mload(0x40)\n      dup1\n      dup4\n      sub\n      dup2\n      dup6\n      dup9\n      dup9\n      call\n      swap4\n      pop\n      pop\n      pop\n      pop\n      iszero\n      dup1\n      iszero\n      tag_122\n      jumpi\n      returndatasize\n      0x00\n      dup1\n      returndatacopy\n      revert(0x00, returndatasize)\n    tag_122:\n      pop\n        /* \"RPS.sol\":3639:4009  if (rooms[roomNum].taker.playerStatus == PlayerStatus.STATUS_WIN) {... */\n    tag_118:\n        /* \"RPS.sol\":3464:4009  if (rooms[roomNum].originator.playerStatus == PlayerStatus.STATUS_WIN) {... */\n    tag_110:\n        /* \"RPS.sol\":3116:4019  if (rooms[roomNum].originator.playerStatus == PlayerStatus.STATUS_TIE && rooms[roomNum].taker.playerStatus == PlayerStatus.STATUS_TIE) {... */\n    tag_102:\n        /* \"RPS.sol\":4057:4083  GameStatus.STATUS_COMPLETE */\n      0x02\n        /* \"RPS.sol\":4029:4034  rooms */\n      0x00\n        /* \"RPS.sol\":4029:4043  rooms[roomNum] */\n      dup1\n        /* \"RPS.sol\":4035:4042  roomNum */\n      dup4\n        /* \"RPS.sol\":4029:4043  rooms[roomNum] */\n      dup2\n      mstore\n      0x20\n      add\n      swap1\n      dup2\n      mstore\n      0x20\n      add\n      0x00\n      keccak256\n        /* \"RPS.sol\":4029:4054  rooms[roomNum].gameStatus */\n      0x07\n      add\n      0x00\n        /* \"RPS.sol\":4029:4083  rooms[roomNum].gameStatus = GameStatus.STATUS_COMPLETE */\n      0x0100\n      exp\n      dup2\n      sload\n      dup2\n      0xff\n      mul\n      not\n      and\n      swap1\n      dup4\n      0x03\n      dup2\n      gt\n      iszero\n      tag_123\n      jumpi\n      tag_124\n      tag_22\n      jump\t// in\n    tag_124:\n    tag_123:\n      mul\n      or\n      swap1\n      sstore\n      pop\n        /* \"RPS.sol\":3061:4090  function payout(uint roomNum) public payable {... */\n      pop\n      jump\t// out\n        /* \"RPS.sol\":2133:3055  function compareHands(uint roomNum) private {... */\n    tag_86:\n        /* \"RPS.sol\":2187:2202  uint originator */\n      0x00\n        /* \"RPS.sol\":2211:2216  rooms */\n      dup1\n        /* \"RPS.sol\":2211:2225  rooms[roomNum] */\n      0x00\n        /* \"RPS.sol\":2217:2224  roomNum */\n      dup4\n        /* \"RPS.sol\":2211:2225  rooms[roomNum] */\n      dup2\n      mstore\n      0x20\n      add\n      swap1\n      dup2\n      mstore\n      0x20\n      add\n      0x00\n      keccak256\n        /* \"RPS.sol\":2211:2236  rooms[roomNum].originator */\n      0x00\n      add\n        /* \"RPS.sol\":2211:2241  rooms[roomNum].originator.hand */\n      0x02\n      add\n      0x00\n      swap1\n      sload\n      swap1\n      0x0100\n      exp\n      swap1\n      div\n      0xff\n      and\n        /* \"RPS.sol\":2205:2242  uint8(rooms[roomNum].originator.hand) */\n      0x02\n      dup2\n      gt\n      iszero\n      tag_126\n      jumpi\n      tag_127\n      tag_22\n      jump\t// in\n    tag_127:\n    tag_126:\n        /* \"RPS.sol\":2187:2242  uint originator = uint8(rooms[roomNum].originator.hand) */\n      0xff\n      and\n      swap1\n      pop\n        /* \"RPS.sol\":2252:2262  uint taker */\n      0x00\n        /* \"RPS.sol\":2271:2276  rooms */\n      dup1\n        /* \"RPS.sol\":2271:2285  rooms[roomNum] */\n      0x00\n        /* \"RPS.sol\":2277:2284  roomNum */\n      dup5\n        /* \"RPS.sol\":2271:2285  rooms[roomNum] */\n      dup2\n      mstore\n      0x20\n      add\n      swap1\n      dup2\n      mstore\n      0x20\n      add\n      0x00\n      keccak256\n        /* \"RPS.sol\":2271:2291  rooms[roomNum].taker */\n      0x03\n      add\n        /* \"RPS.sol\":2271:2296  rooms[roomNum].taker.hand */\n      0x02\n      add\n      0x00\n      swap1\n      sload\n      swap1\n      0x0100\n      exp\n      swap1\n      div\n      0xff\n      and\n        /* \"RPS.sol\":2265:2297  uint8(rooms[roomNum].taker.hand) */\n      0x02\n      dup2\n      gt\n      iszero\n      tag_128\n      jumpi\n      tag_129\n      tag_22\n      jump\t// in\n    tag_129:\n    tag_128:\n        /* \"RPS.sol\":2252:2297  uint taker = uint8(rooms[roomNum].taker.hand) */\n      0xff\n      and\n      swap1\n      pop\n        /* \"RPS.sol\":2336:2361  GameStatus.STATUS_STARTED */\n      0x01\n        /* \"RPS.sol\":2308:2313  rooms */\n      0x00\n        /* \"RPS.sol\":2308:2322  rooms[roomNum] */\n      dup1\n        /* \"RPS.sol\":2314:2321  roomNum */\n      dup6\n        /* \"RPS.sol\":2308:2322  rooms[roomNum] */\n      dup2\n      mstore\n      0x20\n      add\n      swap1\n      dup2\n      mstore\n      0x20\n      add\n      0x00\n      keccak256\n        /* \"RPS.sol\":2308:2333  rooms[roomNum].gameStatus */\n      0x07\n      add\n      0x00\n        /* \"RPS.sol\":2308:2361  rooms[roomNum].gameStatus = GameStatus.STATUS_STARTED */\n      0x0100\n      exp\n      dup2\n      sload\n      dup2\n      0xff\n      mul\n      not\n      and\n      swap1\n      dup4\n      0x03\n      dup2\n      gt\n      iszero\n      tag_130\n      jumpi\n      tag_131\n      tag_22\n      jump\t// in\n    tag_131:\n    tag_130:\n      mul\n      or\n      swap1\n      sstore\n      pop\n        /* \"RPS.sol\":2385:2395  originator */\n      dup2\n        /* \"RPS.sol\":2376:2381  taker */\n      dup2\n        /* \"RPS.sol\":2376:2395  taker == originator */\n      eq\n        /* \"RPS.sol\":2372:3049  if (taker == originator) {... */\n      iszero\n      tag_132\n      jumpi\n        /* \"RPS.sol\":2452:2475  PlayerStatus.STATUS_TIE */\n      0x02\n        /* \"RPS.sol\":2411:2416  rooms */\n      0x00\n        /* \"RPS.sol\":2411:2425  rooms[roomNum] */\n      dup1\n        /* \"RPS.sol\":2417:2424  roomNum */\n      dup6\n        /* \"RPS.sol\":2411:2425  rooms[roomNum] */\n      dup2\n      mstore\n      0x20\n      add\n      swap1\n      dup2\n      mstore\n      0x20\n      add\n      0x00\n      keccak256\n        /* \"RPS.sol\":2411:2436  rooms[roomNum].originator */\n      0x00\n      add\n        /* \"RPS.sol\":2411:2449  rooms[roomNum].originator.playerStatus */\n      0x02\n      add\n      0x01\n        /* \"RPS.sol\":2411:2475  rooms[roomNum].originator.playerStatus = PlayerStatus.STATUS_TIE */\n      0x0100\n      exp\n      dup2\n      sload\n      dup2\n      0xff\n      mul\n      not\n      and\n      swap1\n      dup4\n      0x03\n      dup2\n      gt\n      iszero\n      tag_133\n      jumpi\n      tag_134\n      tag_22\n      jump\t// in\n    tag_134:\n    tag_133:\n      mul\n      or\n      swap1\n      sstore\n      pop\n        /* \"RPS.sol\":2525:2548  PlayerStatus.STATUS_TIE */\n      0x02\n        /* \"RPS.sol\":2489:2494  rooms */\n      0x00\n        /* \"RPS.sol\":2489:2503  rooms[roomNum] */\n      dup1\n        /* \"RPS.sol\":2495:2502  roomNum */\n      dup6\n        /* \"RPS.sol\":2489:2503  rooms[roomNum] */\n      dup2\n      mstore\n      0x20\n      add\n      swap1\n      dup2\n      mstore\n      0x20\n      add\n      0x00\n      keccak256\n        /* \"RPS.sol\":2489:2509  rooms[roomNum].taker */\n      0x03\n      add\n        /* \"RPS.sol\":2489:2522  rooms[roomNum].taker.playerStatus */\n      0x02\n      add\n      0x01\n        /* \"RPS.sol\":2489:2548  rooms[roomNum].taker.playerStatus = PlayerStatus.STATUS_TIE */\n      0x0100\n      exp\n      dup2\n      sload\n      dup2\n      0xff\n      mul\n      not\n      and\n      swap1\n      dup4\n      0x03\n      dup2\n      gt\n      iszero\n      tag_135\n      jumpi\n      tag_136\n      tag_22\n      jump\t// in\n    tag_136:\n    tag_135:\n      mul\n      or\n      swap1\n      sstore\n      pop\n        /* \"RPS.sol\":2372:3049  if (taker == originator) {... */\n      jump(tag_137)\n    tag_132:\n        /* \"RPS.sol\":2588:2598  originator */\n      dup2\n        /* \"RPS.sol\":2583:2584  3 */\n      0x03\n        /* \"RPS.sol\":2578:2579  1 */\n      0x01\n        /* \"RPS.sol\":2570:2575  taker */\n      dup4\n        /* \"RPS.sol\":2570:2579  taker + 1 */\n      tag_138\n      swap2\n      swap1\n      tag_58\n      jump\t// in\n    tag_138:\n        /* \"RPS.sol\":2569:2584  (taker + 1) % 3 */\n      tag_139\n      swap2\n      swap1\n      tag_140\n      jump\t// in\n    tag_139:\n        /* \"RPS.sol\":2569:2598  (taker + 1) % 3 == originator */\n      eq\n        /* \"RPS.sol\":2565:3049  if ((taker + 1) % 3 == originator) {... */\n      iszero\n      tag_141\n      jumpi\n        /* \"RPS.sol\":2655:2678  PlayerStatus.STATUS_WIN */\n      0x00\n        /* \"RPS.sol\":2614:2619  rooms */\n      dup1\n        /* \"RPS.sol\":2614:2628  rooms[roomNum] */\n      0x00\n        /* \"RPS.sol\":2620:2627  roomNum */\n      dup6\n        /* \"RPS.sol\":2614:2628  rooms[roomNum] */\n      dup2\n      mstore\n      0x20\n      add\n      swap1\n      dup2\n      mstore\n      0x20\n      add\n      0x00\n      keccak256\n        /* \"RPS.sol\":2614:2639  rooms[roomNum].originator */\n      0x00\n      add\n        /* \"RPS.sol\":2614:2652  rooms[roomNum].originator.playerStatus */\n      0x02\n      add\n      0x01\n        /* \"RPS.sol\":2614:2678  rooms[roomNum].originator.playerStatus = PlayerStatus.STATUS_WIN */\n      0x0100\n      exp\n      dup2\n      sload\n      dup2\n      0xff\n      mul\n      not\n      and\n      swap1\n      dup4\n      0x03\n      dup2\n      gt\n      iszero\n      tag_142\n      jumpi\n      tag_143\n      tag_22\n      jump\t// in\n    tag_143:\n    tag_142:\n      mul\n      or\n      swap1\n      sstore\n      pop\n        /* \"RPS.sol\":2728:2752  PlayerStatus.STATUS_LOSE */\n      0x01\n        /* \"RPS.sol\":2692:2697  rooms */\n      0x00\n        /* \"RPS.sol\":2692:2706  rooms[roomNum] */\n      dup1\n        /* \"RPS.sol\":2698:2705  roomNum */\n      dup6\n        /* \"RPS.sol\":2692:2706  rooms[roomNum] */\n      dup2\n      mstore\n      0x20\n      add\n      swap1\n      dup2\n      mstore\n      0x20\n      add\n      0x00\n      keccak256\n        /* \"RPS.sol\":2692:2712  rooms[roomNum].taker */\n      0x03\n      add\n        /* \"RPS.sol\":2692:2725  rooms[roomNum].taker.playerStatus */\n      0x02\n      add\n      0x01\n        /* \"RPS.sol\":2692:2752  rooms[roomNum].taker.playerStatus = PlayerStatus.STATUS_LOSE */\n      0x0100\n      exp\n      dup2\n      sload\n      dup2\n      0xff\n      mul\n      not\n      and\n      swap1\n      dup4\n      0x03\n      dup2\n      gt\n      iszero\n      tag_144\n      jumpi\n      tag_145\n      tag_22\n      jump\t// in\n    tag_145:\n    tag_144:\n      mul\n      or\n      swap1\n      sstore\n      pop\n        /* \"RPS.sol\":2565:3049  if ((taker + 1) % 3 == originator) {... */\n      jump(tag_146)\n    tag_141:\n        /* \"RPS.sol\":2797:2802  taker */\n      dup1\n        /* \"RPS.sol\":2792:2793  3 */\n      0x03\n        /* \"RPS.sol\":2787:2788  1 */\n      0x01\n        /* \"RPS.sol\":2774:2784  originator */\n      dup5\n        /* \"RPS.sol\":2774:2788  originator + 1 */\n      tag_147\n      swap2\n      swap1\n      tag_58\n      jump\t// in\n    tag_147:\n        /* \"RPS.sol\":2773:2793  (originator + 1) % 3 */\n      tag_148\n      swap2\n      swap1\n      tag_140\n      jump\t// in\n    tag_148:\n        /* \"RPS.sol\":2773:2802  (originator + 1) % 3 == taker */\n      eq\n        /* \"RPS.sol\":2769:3049  if ((originator + 1) % 3 == taker) {... */\n      iszero\n      tag_149\n      jumpi\n        /* \"RPS.sol\":2859:2883  PlayerStatus.STATUS_LOSE */\n      0x01\n        /* \"RPS.sol\":2818:2823  rooms */\n      0x00\n        /* \"RPS.sol\":2818:2832  rooms[roomNum] */\n      dup1\n        /* \"RPS.sol\":2824:2831  roomNum */\n      dup6\n        /* \"RPS.sol\":2818:2832  rooms[roomNum] */\n      dup2\n      mstore\n      0x20\n      add\n      swap1\n      dup2\n      mstore\n      0x20\n      add\n      0x00\n      keccak256\n        /* \"RPS.sol\":2818:2843  rooms[roomNum].originator */\n      0x00\n      add\n        /* \"RPS.sol\":2818:2856  rooms[roomNum].originator.playerStatus */\n      0x02\n      add\n      0x01\n        /* \"RPS.sol\":2818:2883  rooms[roomNum].originator.playerStatus = PlayerStatus.STATUS_LOSE */\n      0x0100\n      exp\n      dup2\n      sload\n      dup2\n      0xff\n      mul\n      not\n      and\n      swap1\n      dup4\n      0x03\n      dup2\n      gt\n      iszero\n      tag_150\n      jumpi\n      tag_151\n      tag_22\n      jump\t// in\n    tag_151:\n    tag_150:\n      mul\n      or\n      swap1\n      sstore\n      pop\n        /* \"RPS.sol\":2933:2956  PlayerStatus.STATUS_WIN */\n      0x00\n        /* \"RPS.sol\":2897:2902  rooms */\n      dup1\n        /* \"RPS.sol\":2897:2911  rooms[roomNum] */\n      0x00\n        /* \"RPS.sol\":2903:2910  roomNum */\n      dup6\n        /* \"RPS.sol\":2897:2911  rooms[roomNum] */\n      dup2\n      mstore\n      0x20\n      add\n      swap1\n      dup2\n      mstore\n      0x20\n      add\n      0x00\n      keccak256\n        /* \"RPS.sol\":2897:2917  rooms[roomNum].taker */\n      0x03\n      add\n        /* \"RPS.sol\":2897:2930  rooms[roomNum].taker.playerStatus */\n      0x02\n      add\n      0x01\n        /* \"RPS.sol\":2897:2956  rooms[roomNum].taker.playerStatus = PlayerStatus.STATUS_WIN */\n      0x0100\n      exp\n      dup2\n      sload\n      dup2\n      0xff\n      mul\n      not\n      and\n      swap1\n      dup4\n      0x03\n      dup2\n      gt\n      iszero\n      tag_152\n      jumpi\n      tag_153\n      tag_22\n      jump\t// in\n    tag_153:\n    tag_152:\n      mul\n      or\n      swap1\n      sstore\n      pop\n        /* \"RPS.sol\":2769:3049  if ((originator + 1) % 3 == taker) {... */\n      jump(tag_154)\n    tag_149:\n        /* \"RPS.sol\":3015:3038  GameStatus.STATUS_ERROR */\n      0x03\n        /* \"RPS.sol\":2987:2992  rooms */\n      0x00\n        /* \"RPS.sol\":2987:3001  rooms[roomNum] */\n      dup1\n        /* \"RPS.sol\":2993:3000  roomNum */\n      dup6\n        /* \"RPS.sol\":2987:3001  rooms[roomNum] */\n      dup2\n      mstore\n      0x20\n      add\n      swap1\n      dup2\n      mstore\n      0x20\n      add\n      0x00\n      keccak256\n        /* \"RPS.sol\":2987:3012  rooms[roomNum].gameStatus */\n      0x07\n      add\n      0x00\n        /* \"RPS.sol\":2987:3038  rooms[roomNum].gameStatus = GameStatus.STATUS_ERROR */\n      0x0100\n      exp\n      dup2\n      sload\n      dup2\n      0xff\n      mul\n      not\n      and\n      swap1\n      dup4\n      0x03\n      dup2\n      gt\n      iszero\n      tag_155\n      jumpi\n      tag_156\n      tag_22\n      jump\t// in\n    tag_156:\n    tag_155:\n      mul\n      or\n      swap1\n      sstore\n      pop\n        /* \"RPS.sol\":2769:3049  if ((originator + 1) % 3 == taker) {... */\n    tag_154:\n        /* \"RPS.sol\":2565:3049  if ((taker + 1) % 3 == originator) {... */\n    tag_146:\n        /* \"RPS.sol\":2372:3049  if (taker == originator) {... */\n    tag_137:\n        /* \"RPS.sol\":2177:3055  {... */\n      pop\n      pop\n        /* \"RPS.sol\":2133:3055  function compareHands(uint roomNum) private {... */\n      pop\n      jump\t// out\n        /* \"#utility.yul\":7:158   */\n    tag_158:\n        /* \"#utility.yul\":59:64   */\n      0x00\n        /* \"#utility.yul\":97:103   */\n      dup2\n        /* \"#utility.yul\":84:104   */\n      calldataload\n        /* \"#utility.yul\":75:104   */\n      swap1\n      pop\n        /* \"#utility.yul\":113:152   */\n      tag_160\n        /* \"#utility.yul\":146:151   */\n      dup2\n        /* \"#utility.yul\":113:152   */\n      tag_161\n      jump\t// in\n    tag_160:\n        /* \"#utility.yul\":7:158   */\n      swap3\n      swap2\n      pop\n      pop\n      jump\t// out\n        /* \"#utility.yul\":164:303   */\n    tag_162:\n        /* \"#utility.yul\":210:215   */\n      0x00\n        /* \"#utility.yul\":248:254   */\n      dup2\n        /* \"#utility.yul\":235:255   */\n      calldataload\n        /* \"#utility.yul\":226:255   */\n      swap1\n      pop\n        /* \"#utility.yul\":264:297   */\n      tag_164\n        /* \"#utility.yul\":291:296   */\n      dup2\n        /* \"#utility.yul\":264:297   */\n      tag_165\n      jump\t// in\n    tag_164:\n        /* \"#utility.yul\":164:303   */\n      swap3\n      swap2\n      pop\n      pop\n      jump\t// out\n        /* \"#utility.yul\":309:650   */\n    tag_7:\n        /* \"#utility.yul\":374:380   */\n      0x00\n        /* \"#utility.yul\":423:425   */\n      0x20\n        /* \"#utility.yul\":411:420   */\n      dup3\n        /* \"#utility.yul\":402:409   */\n      dup5\n        /* \"#utility.yul\":398:421   */\n      sub\n        /* \"#utility.yul\":394:426   */\n      slt\n        /* \"#utility.yul\":391:510   */\n      iszero\n      tag_167\n      jumpi\n        /* \"#utility.yul\":429:508   */\n      tag_168\n      tag_169\n      jump\t// in\n    tag_168:\n        /* \"#utility.yul\":391:510   */\n    tag_167:\n        /* \"#utility.yul\":549:550   */\n      0x00\n        /* \"#utility.yul\":574:633   */\n      tag_170\n        /* \"#utility.yul\":625:632   */\n      dup5\n        /* \"#utility.yul\":616:622   */\n      dup3\n        /* \"#utility.yul\":605:614   */\n      dup6\n        /* \"#utility.yul\":601:623   */\n      add\n        /* \"#utility.yul\":574:633   */\n      tag_158\n      jump\t// in\n    tag_170:\n        /* \"#utility.yul\":564:633   */\n      swap2\n      pop\n        /* \"#utility.yul\":520:643   */\n      pop\n        /* \"#utility.yul\":309:650   */\n      swap3\n      swap2\n      pop\n      pop\n      jump\t// out\n        /* \"#utility.yul\":656:985   */\n    tag_17:\n        /* \"#utility.yul\":715:721   */\n      0x00\n        /* \"#utility.yul\":764:766   */\n      0x20\n        /* \"#utility.yul\":752:761   */\n      dup3\n        /* \"#utility.yul\":743:750   */\n      dup5\n        /* \"#utility.yul\":739:762   */\n      sub\n        /* \"#utility.yul\":735:767   */\n      slt\n        /* \"#utility.yul\":732:851   */\n      iszero\n      tag_172\n      jumpi\n        /* \"#utility.yul\":770:849   */\n      tag_173\n      tag_169\n      jump\t// in\n    tag_173:\n        /* \"#utility.yul\":732:851   */\n    tag_172:\n        /* \"#utility.yul\":890:891   */\n      0x00\n        /* \"#utility.yul\":915:968   */\n      tag_174\n        /* \"#utility.yul\":960:967   */\n      dup5\n        /* \"#utility.yul\":951:957   */\n      dup3\n        /* \"#utility.yul\":940:949   */\n      dup6\n        /* \"#utility.yul\":936:958   */\n      add\n        /* \"#utility.yul\":915:968   */\n      tag_162\n      jump\t// in\n    tag_174:\n        /* \"#utility.yul\":905:968   */\n      swap2\n      pop\n        /* \"#utility.yul\":861:978   */\n      pop\n        /* \"#utility.yul\":656:985   */\n      swap3\n      swap2\n      pop\n      pop\n      jump\t// out\n        /* \"#utility.yul\":991:1477   */\n    tag_13:\n        /* \"#utility.yul\":1065:1071   */\n      0x00\n        /* \"#utility.yul\":1073:1079   */\n      dup1\n        /* \"#utility.yul\":1122:1124   */\n      0x40\n        /* \"#utility.yul\":1110:1119   */\n      dup4\n        /* \"#utility.yul\":1101:1108   */\n      dup6\n        /* \"#utility.yul\":1097:1120   */\n      sub\n        /* \"#utility.yul\":1093:1125   */\n      slt\n        /* \"#utility.yul\":1090:1209   */\n      iszero\n      tag_176\n      jumpi\n        /* \"#utility.yul\":1128:1207   */\n      tag_177\n      tag_169\n      jump\t// in\n    tag_177:\n        /* \"#utility.yul\":1090:1209   */\n    tag_176:\n        /* \"#utility.yul\":1248:1249   */\n      0x00\n        /* \"#utility.yul\":1273:1326   */\n      tag_178\n        /* \"#utility.yul\":1318:1325   */\n      dup6\n        /* \"#utility.yul\":1309:1315   */\n      dup3\n        /* \"#utility.yul\":1298:1307   */\n      dup7\n        /* \"#utility.yul\":1294:1316   */\n      add\n        /* \"#utility.yul\":1273:1326   */\n      tag_162\n      jump\t// in\n    tag_178:\n        /* \"#utility.yul\":1263:1326   */\n      swap3\n      pop\n        /* \"#utility.yul\":1219:1336   */\n      pop\n        /* \"#utility.yul\":1375:1377   */\n      0x20\n        /* \"#utility.yul\":1401:1460   */\n      tag_179\n        /* \"#utility.yul\":1452:1459   */\n      dup6\n        /* \"#utility.yul\":1443:1449   */\n      dup3\n        /* \"#utility.yul\":1432:1441   */\n      dup7\n        /* \"#utility.yul\":1428:1450   */\n      add\n        /* \"#utility.yul\":1401:1460   */\n      tag_158\n      jump\t// in\n    tag_179:\n        /* \"#utility.yul\":1391:1460   */\n      swap2\n      pop\n        /* \"#utility.yul\":1346:1470   */\n      pop\n        /* \"#utility.yul\":991:1477   */\n      swap3\n      pop\n      swap3\n      swap1\n      pop\n      jump\t// out\n        /* \"#utility.yul\":1483:1601   */\n    tag_180:\n        /* \"#utility.yul\":1570:1594   */\n      tag_182\n        /* \"#utility.yul\":1588:1593   */\n      dup2\n        /* \"#utility.yul\":1570:1594   */\n      tag_183\n      jump\t// in\n    tag_182:\n        /* \"#utility.yul\":1565:1568   */\n      dup3\n        /* \"#utility.yul\":1558:1595   */\n      mstore\n        /* \"#utility.yul\":1483:1601   */\n      pop\n      pop\n      jump\t// out\n        /* \"#utility.yul\":1607:1829   */\n    tag_10:\n        /* \"#utility.yul\":1700:1704   */\n      0x00\n        /* \"#utility.yul\":1738:1740   */\n      0x20\n        /* \"#utility.yul\":1727:1736   */\n      dup3\n        /* \"#utility.yul\":1723:1741   */\n      add\n        /* \"#utility.yul\":1715:1741   */\n      swap1\n      pop\n        /* \"#utility.yul\":1751:1822   */\n      tag_185\n        /* \"#utility.yul\":1819:1820   */\n      0x00\n        /* \"#utility.yul\":1808:1817   */\n      dup4\n        /* \"#utility.yul\":1804:1821   */\n      add\n        /* \"#utility.yul\":1795:1801   */\n      dup5\n        /* \"#utility.yul\":1751:1822   */\n      tag_180\n      jump\t// in\n    tag_185:\n        /* \"#utility.yul\":1607:1829   */\n      swap3\n      swap2\n      pop\n      pop\n      jump\t// out\n        /* \"#utility.yul\":1916:2221   */\n    tag_58:\n        /* \"#utility.yul\":1956:1959   */\n      0x00\n        /* \"#utility.yul\":1975:1995   */\n      tag_189\n        /* \"#utility.yul\":1993:1994   */\n      dup3\n        /* \"#utility.yul\":1975:1995   */\n      tag_183\n      jump\t// in\n    tag_189:\n        /* \"#utility.yul\":1970:1995   */\n      swap2\n      pop\n        /* \"#utility.yul\":2009:2029   */\n      tag_190\n        /* \"#utility.yul\":2027:2028   */\n      dup4\n        /* \"#utility.yul\":2009:2029   */\n      tag_183\n      jump\t// in\n    tag_190:\n        /* \"#utility.yul\":2004:2029   */\n      swap3\n      pop\n        /* \"#utility.yul\":2163:2164   */\n      dup3\n        /* \"#utility.yul\":2095:2161   */\n      0xffffffffffffffffffffffffffffffffffffffffffffffffffffffffffffffff\n        /* \"#utility.yul\":2091:2165   */\n      sub\n        /* \"#utility.yul\":2088:2089   */\n      dup3\n        /* \"#utility.yul\":2085:2166   */\n      gt\n        /* \"#utility.yul\":2082:2189   */\n      iszero\n      tag_191\n      jumpi\n        /* \"#utility.yul\":2169:2187   */\n      tag_192\n      tag_193\n      jump\t// in\n    tag_192:\n        /* \"#utility.yul\":2082:2189   */\n    tag_191:\n        /* \"#utility.yul\":2213:2214   */\n      dup3\n        /* \"#utility.yul\":2210:2211   */\n      dup3\n        /* \"#utility.yul\":2206:2215   */\n      add\n        /* \"#utility.yul\":2199:2215   */\n      swap1\n      pop\n        /* \"#utility.yul\":1916:2221   */\n      swap3\n      swap2\n      pop\n      pop\n      jump\t// out\n        /* \"#utility.yul\":2227:2304   */\n    tag_183:\n        /* \"#utility.yul\":2264:2271   */\n      0x00\n        /* \"#utility.yul\":2293:2298   */\n      dup2\n        /* \"#utility.yul\":2282:2298   */\n      swap1\n      pop\n        /* \"#utility.yul\":2227:2304   */\n      swap2\n      swap1\n      pop\n      jump\t// out\n        /* \"#utility.yul\":2310:2486   */\n    tag_140:\n        /* \"#utility.yul\":2342:2343   */\n      0x00\n        /* \"#utility.yul\":2359:2379   */\n      tag_196\n        /* \"#utility.yul\":2377:2378   */\n      dup3\n        /* \"#utility.yul\":2359:2379   */\n      tag_183\n      jump\t// in\n    tag_196:\n        /* \"#utility.yul\":2354:2379   */\n      swap2\n      pop\n        /* \"#utility.yul\":2393:2413   */\n      tag_197\n        /* \"#utility.yul\":2411:2412   */\n      dup4\n        /* \"#utility.yul\":2393:2413   */\n      tag_183\n      jump\t// in\n    tag_197:\n        /* \"#utility.yul\":2388:2413   */\n      swap3\n      pop\n        /* \"#utility.yul\":2432:2433   */\n      dup3\n        /* \"#utility.yul\":2422:2457   */\n      tag_198\n      jumpi\n        /* \"#utility.yul\":2437:2455   */\n      tag_199\n      tag_200\n      jump\t// in\n    tag_199:\n        /* \"#utility.yul\":2422:2457   */\n    tag_198:\n        /* \"#utility.yul\":2478:2479   */\n      dup3\n        /* \"#utility.yul\":2475:2476   */\n      dup3\n        /* \"#utility.yul\":2471:2480   */\n      mod\n        /* \"#utility.yul\":2466:2480   */\n      swap1\n      pop\n        /* \"#utility.yul\":2310:2486   */\n      swap3\n      swap2\n      pop\n      pop\n      jump\t// out\n        /* \"#utility.yul\":2492:2672   */\n    tag_193:\n        /* \"#utility.yul\":2540:2617   */\n      0x4e487b7100000000000000000000000000000000000000000000000000000000\n        /* \"#utility.yul\":2537:2538   */\n      0x00\n        /* \"#utility.yul\":2530:2618   */\n      mstore\n        /* \"#utility.yul\":2637:2641   */\n      0x11\n        /* \"#utility.yul\":2634:2635   */\n      0x04\n        /* \"#utility.yul\":2627:2642   */\n      mstore\n        /* \"#utility.yul\":2661:2665   */\n      0x24\n        /* \"#utility.yul\":2658:2659   */\n      0x00\n        /* \"#utility.yul\":2651:2666   */\n      revert\n        /* \"#utility.yul\":2678:2858   */\n    tag_200:\n        /* \"#utility.yul\":2726:2803   */\n      0x4e487b7100000000000000000000000000000000000000000000000000000000\n        /* \"#utility.yul\":2723:2724   */\n      0x00\n        /* \"#utility.yul\":2716:2804   */\n      mstore\n        /* \"#utility.yul\":2823:2827   */\n      0x12\n        /* \"#utility.yul\":2820:2821   */\n      0x04\n        /* \"#utility.yul\":2813:2828   */\n      mstore\n        /* \"#utility.yul\":2847:2851   */\n      0x24\n        /* \"#utility.yul\":2844:2845   */\n      0x00\n        /* \"#utility.yul\":2837:2852   */\n      revert\n        /* \"#utility.yul\":2864:3044   */\n    tag_22:\n        /* \"#utility.yul\":2912:2989   */\n      0x4e487b7100000000000000000000000000000000000000000000000000000000\n        /* \"#utility.yul\":2909:2910   */\n      0x00\n        /* \"#utility.yul\":2902:2990   */\n      mstore\n        /* \"#utility.yul\":3009:3013   */\n      0x21\n        /* \"#utility.yul\":3006:3007   */\n      0x04\n        /* \"#utility.yul\":2999:3014   */\n      mstore\n        /* \"#utility.yul\":3033:3037   */\n      0x24\n        /* \"#utility.yul\":3030:3031   */\n      0x00\n        /* \"#utility.yul\":3023:3038   */\n      revert\n        /* \"#utility.yul\":3173:3290   */\n    tag_169:\n        /* \"#utility.yul\":3282:3283   */\n      0x00\n        /* \"#utility.yul\":3279:3280   */\n      dup1\n        /* \"#utility.yul\":3272:3284   */\n      revert\n        /* \"#utility.yul\":3296:3401   */\n    tag_161:\n        /* \"#utility.yul\":3375:3376   */\n      0x03\n        /* \"#utility.yul\":3368:3373   */\n      dup2\n        /* \"#utility.yul\":3365:3377   */\n      lt\n        /* \"#utility.yul\":3355:3395   */\n      tag_208\n      jumpi\n        /* \"#utility.yul\":3391:3392   */\n      0x00\n        /* \"#utility.yul\":3388:3389   */\n      dup1\n        /* \"#utility.yul\":3381:3393   */\n      revert\n        /* \"#utility.yul\":3355:3395   */\n    tag_208:\n        /* \"#utility.yul\":3296:3401   */\n      pop\n      jump\t// out\n        /* \"#utility.yul\":3407:3529   */\n    tag_165:\n        /* \"#utility.yul\":3480:3504   */\n      tag_210\n        /* \"#utility.yul\":3498:3503   */\n      dup2\n        /* \"#utility.yul\":3480:3504   */\n      tag_183\n      jump\t// in\n    tag_210:\n        /* \"#utility.yul\":3473:3478   */\n      dup2\n        /* \"#utility.yul\":3470:3505   */\n      eq\n        /* \"#utility.yul\":3460:3523   */\n      tag_211\n      jumpi\n        /* \"#utility.yul\":3519:3520   */\n      0x00\n        /* \"#utility.yul\":3516:3517   */\n      dup1\n        /* \"#utility.yul\":3509:3521   */\n      revert\n        /* \"#utility.yul\":3460:3523   */\n    tag_211:\n        /* \"#utility.yul\":3407:3529   */\n      pop\n      jump\t// out\n\n    auxdata: 0xa264697066735822122099149dfab6fc71be87df6a3bd7d57dfa5f6dfa7d000683795c884691d452f9aa64736f6c63430008070033\n}\n",
				"bytecode": {
					"linkReferences": {},
					"object": "6080604052600060015561106e806100186000396000f3fe6080604052600436106100345760003560e01c80630f36f3b51461003957806379b1577614610069578063e115234314610085575b600080fd5b610053600480360381019061004e9190610e2a565b6100a1565b6040516100609190610ed3565b60405180910390f35b610083600480360381019061007e9190610e84565b610404565b005b61009f600480360381019061009a9190610e57565b6105ff565b005b600081600060028111156100b8576100b7610fdd565b5b8160028111156100cb576100ca610fdd565b5b14806100fb5750600160028111156100e6576100e5610fdd565b5b8160028111156100f9576100f8610fdd565b5b145b80610129575060028081111561011457610113610fdd565b5b81600281111561012757610126610fdd565b5b145b61013257600080fd5b604051806080016040528060405180608001604052803373ffffffffffffffffffffffffffffffffffffffff16815260200134815260200186600281111561017d5761017c610fdd565b5b815260200160038081111561019557610194610fdd565b5b815250815260200160405180608001604052803373ffffffffffffffffffffffffffffffffffffffff16815260200160008152602001600060028111156101df576101de610fdd565b5b81526020016003808111156101f7576101f6610fdd565b5b81525081526020013481526020016000600381111561021957610218610fdd565b5b815250600080600154815260200190815260200160002060008201518160000160008201518160000160006101000a81548173ffffffffffffffffffffffffffffffffffffffff021916908373ffffffffffffffffffffffffffffffffffffffff1602179055506020820151816001015560408201518160020160006101000a81548160ff021916908360028111156102b5576102b4610fdd565b5b021790555060608201518160020160016101000a81548160ff021916908360038111156102e5576102e4610fdd565b5b0217905550505060208201518160030160008201518160000160006101000a81548173ffffffffffffffffffffffffffffffffffffffff021916908373ffffffffffffffffffffffffffffffffffffffff1602179055506020820151816001015560408201518160020160006101000a81548160ff0219169083600281111561037157610370610fdd565b5b021790555060608201518160020160016101000a81548160ff021916908360038111156103a1576103a0610fdd565b5b021790555050506040820151816006015560608201518160070160006101000a81548160ff021916908360038111156103dd576103dc610fdd565b5b02179055509050506001549150600180546103f89190610eee565b60018190555050919050565b806000600281111561041957610418610fdd565b5b81600281111561042c5761042b610fdd565b5b148061045c57506001600281111561044757610446610fdd565b5b81600281111561045a57610459610fdd565b5b145b8061048a575060028081111561047557610474610fdd565b5b81600281111561048857610487610fdd565b5b145b61049357600080fd5b60405180608001604052803373ffffffffffffffffffffffffffffffffffffffff1681526020013481526020018360028111156104d3576104d2610fdd565b5b81526020016003808111156104eb576104ea610fdd565b5b81525060008085815260200190815260200160002060030160008201518160000160006101000a81548173ffffffffffffffffffffffffffffffffffffffff021916908373ffffffffffffffffffffffffffffffffffffffff1602179055506020820151816001015560408201518160020160006101000a81548160ff0219169083600281111561057f5761057e610fdd565b5b021790555060608201518160020160016101000a81548160ff021916908360038111156105af576105ae610fdd565b5b021790555090505034600080858152602001908152602001600020600601546105d89190610eee565b600080858152602001908152602001600020600601819055506105fa83610b21565b505050565b6002600381111561061357610612610fdd565b5b60008083815260200190815260200160002060000160020160019054906101000a900460ff16600381111561064b5761064a610fdd565b5b1480156106a157506002600381111561066757610666610fdd565b5b60008083815260200190815260200160002060030160020160019054906101000a900460ff16600381111561069f5761069e610fdd565b5b145b156107d95760008082815260200190815260200160002060000160000160009054906101000a900473ffffffffffffffffffffffffffffffffffffffff1673ffffffffffffffffffffffffffffffffffffffff166108fc600080848152602001908152602001600020600001600101549081150290604051600060405180830381858888f1935050505015801561073c573d6000803e3d6000fd5b5060008082815260200190815260200160002060030160000160009054906101000a900473ffffffffffffffffffffffffffffffffffffffff1673ffffffffffffffffffffffffffffffffffffffff166108fc600080848152602001908152602001600020600301600101549081150290604051600060405180830381858888f193505050501580156107d3573d6000803e3d6000fd5b50610ae0565b600060038111156107ed576107ec610fdd565b5b60008083815260200190815260200160002060000160020160019054906101000a900460ff16600381111561082557610824610fdd565b5b14156108c45760008082815260200190815260200160002060000160000160009054906101000a900473ffffffffffffffffffffffffffffffffffffffff1673ffffffffffffffffffffffffffffffffffffffff166108fc600080848152602001908152602001600020600601549081150290604051600060405180830381858888f193505050501580156108be573d6000803e3d6000fd5b50610adf565b600060038111156108d8576108d7610fdd565b5b60008083815260200190815260200160002060030160020160019054906101000a900460ff1660038111156109105761090f610fdd565b5b14156109af5760008082815260200190815260200160002060030160000160009054906101000a900473ffffffffffffffffffffffffffffffffffffffff1673ffffffffffffffffffffffffffffffffffffffff166108fc600080848152602001908152602001600020600601549081150290604051600060405180830381858888f193505050501580156109a9573d6000803e3d6000fd5b50610ade565b60008082815260200190815260200160002060000160000160009054906101000a900473ffffffffffffffffffffffffffffffffffffffff1673ffffffffffffffffffffffffffffffffffffffff166108fc600080848152602001908152602001600020600001600101549081150290604051600060405180830381858888f19350505050158015610a45573d6000803e3d6000fd5b5060008082815260200190815260200160002060030160000160009054906101000a900473ffffffffffffffffffffffffffffffffffffffff1673ffffffffffffffffffffffffffffffffffffffff166108fc600080848152602001908152602001600020600301600101549081150290604051600060405180830381858888f19350505050158015610adc573d6000803e3d6000fd5b505b5b5b600260008083815260200190815260200160002060070160006101000a81548160ff02191690836003811115610b1957610b18610fdd565b5b021790555050565b600080600083815260200190815260200160002060000160020160009054906101000a900460ff166002811115610b5b57610b5a610fdd565b5b60ff169050600080600084815260200190815260200160002060030160020160009054906101000a900460ff166002811115610b9a57610b99610fdd565b5b60ff169050600160008085815260200190815260200160002060070160006101000a81548160ff02191690836003811115610bd857610bd7610fdd565b5b021790555081811415610c6c57600260008085815260200190815260200160002060000160020160016101000a81548160ff02191690836003811115610c2157610c20610fdd565b5b0217905550600260008085815260200190815260200160002060030160020160016101000a81548160ff02191690836003811115610c6257610c61610fdd565b5b0217905550610dfb565b816003600183610c7c9190610eee565b610c869190610f4e565b1415610d1357600080600085815260200190815260200160002060000160020160016101000a81548160ff02191690836003811115610cc857610cc7610fdd565b5b0217905550600160008085815260200190815260200160002060030160020160016101000a81548160ff02191690836003811115610d0957610d08610fdd565b5b0217905550610dfa565b806003600184610d239190610eee565b610d2d9190610f4e565b1415610dba57600160008085815260200190815260200160002060000160020160016101000a81548160ff02191690836003811115610d6f57610d6e610fdd565b5b0217905550600080600085815260200190815260200160002060030160020160016101000a81548160ff02191690836003811115610db057610daf610fdd565b5b0217905550610df9565b600360008085815260200190815260200160002060070160006101000a81548160ff02191690836003811115610df357610df2610fdd565b5b02179055505b5b5b505050565b600081359050610e0f81611011565b92915050565b600081359050610e2481611021565b92915050565b600060208284031215610e4057610e3f61100c565b5b6000610e4e84828501610e00565b91505092915050565b600060208284031215610e6d57610e6c61100c565b5b6000610e7b84828501610e15565b91505092915050565b60008060408385031215610e9b57610e9a61100c565b5b6000610ea985828601610e15565b9250506020610eba85828601610e00565b9150509250929050565b610ecd81610f44565b82525050565b6000602082019050610ee86000830184610ec4565b92915050565b6000610ef982610f44565b9150610f0483610f44565b9250827fffffffffffffffffffffffffffffffffffffffffffffffffffffffffffffffff03821115610f3957610f38610f7f565b5b828201905092915050565b6000819050919050565b6000610f5982610f44565b9150610f6483610f44565b925082610f7457610f73610fae565b5b828206905092915050565b7f4e487b7100000000000000000000000000000000000000000000000000000000600052601160045260246000fd5b7f4e487b7100000000000000000000000000000000000000000000000000000000600052601260045260246000fd5b7f4e487b7100000000000000000000000000000000000000000000000000000000600052602160045260246000fd5b600080fd5b6003811061101e57600080fd5b50565b61102a81610f44565b811461103557600080fd5b5056fea264697066735822122099149dfab6fc71be87df6a3bd7d57dfa5f6dfa7d000683795c884691d452f9aa64736f6c63430008070033",
					"opcodes": "PUSH1 0x80 PUSH1 0x40 MSTORE PUSH1 0x0 PUSH1 0x1 SSTORE PUSH2 0x106E DUP1 PUSH2 0x18 PUSH1 0x0 CODECOPY PUSH1 0x0 RETURN INVALID PUSH1 0x80 PUSH1 0x40 MSTORE PUSH1 0x4 CALLDATASIZE LT PUSH2 0x34 JUMPI PUSH1 0x0 CALLDATALOAD PUSH1 0xE0 SHR DUP1 PUSH4 0xF36F3B5 EQ PUSH2 0x39 JUMPI DUP1 PUSH4 0x79B15776 EQ PUSH2 0x69 JUMPI DUP1 PUSH4 0xE1152343 EQ PUSH2 0x85 JUMPI JUMPDEST PUSH1 0x0 DUP1 REVERT JUMPDEST PUSH2 0x53 PUSH1 0x4 DUP1 CALLDATASIZE SUB DUP2 ADD SWAP1 PUSH2 0x4E SWAP2 SWAP1 PUSH2 0xE2A JUMP JUMPDEST PUSH2 0xA1 JUMP JUMPDEST PUSH1 0x40 MLOAD PUSH2 0x60 SWAP2 SWAP1 PUSH2 0xED3 JUMP JUMPDEST PUSH1 0x40 MLOAD DUP1 SWAP2 SUB SWAP1 RETURN JUMPDEST PUSH2 0x83 PUSH1 0x4 DUP1 CALLDATASIZE SUB DUP2 ADD SWAP1 PUSH2 0x7E SWAP2 SWAP1 PUSH2 0xE84 JUMP JUMPDEST PUSH2 0x404 JUMP JUMPDEST STOP JUMPDEST PUSH2 0x9F PUSH1 0x4 DUP1 CALLDATASIZE SUB DUP2 ADD SWAP1 PUSH2 0x9A SWAP2 SWAP1 PUSH2 0xE57 JUMP JUMPDEST PUSH2 0x5FF JUMP JUMPDEST STOP JUMPDEST PUSH1 0x0 DUP2 PUSH1 0x0 PUSH1 0x2 DUP2 GT ISZERO PUSH2 0xB8 JUMPI PUSH2 0xB7 PUSH2 0xFDD JUMP JUMPDEST JUMPDEST DUP2 PUSH1 0x2 DUP2 GT ISZERO PUSH2 0xCB JUMPI PUSH2 0xCA PUSH2 0xFDD JUMP JUMPDEST JUMPDEST EQ DUP1 PUSH2 0xFB JUMPI POP PUSH1 0x1 PUSH1 0x2 DUP2 GT ISZERO PUSH2 0xE6 JUMPI PUSH2 0xE5 PUSH2 0xFDD JUMP JUMPDEST JUMPDEST DUP2 PUSH1 0x2 DUP2 GT ISZERO PUSH2 0xF9 JUMPI PUSH2 0xF8 PUSH2 0xFDD JUMP JUMPDEST JUMPDEST EQ JUMPDEST DUP1 PUSH2 0x129 JUMPI POP PUSH1 0x2 DUP1 DUP2 GT ISZERO PUSH2 0x114 JUMPI PUSH2 0x113 PUSH2 0xFDD JUMP JUMPDEST JUMPDEST DUP2 PUSH1 0x2 DUP2 GT ISZERO PUSH2 0x127 JUMPI PUSH2 0x126 PUSH2 0xFDD JUMP JUMPDEST JUMPDEST EQ JUMPDEST PUSH2 0x132 JUMPI PUSH1 0x0 DUP1 REVERT JUMPDEST PUSH1 0x40 MLOAD DUP1 PUSH1 0x80 ADD PUSH1 0x40 MSTORE DUP1 PUSH1 0x40 MLOAD DUP1 PUSH1 0x80 ADD PUSH1 0x40 MSTORE DUP1 CALLER PUSH20 0xFFFFFFFFFFFFFFFFFFFFFFFFFFFFFFFFFFFFFFFF AND DUP2 MSTORE PUSH1 0x20 ADD CALLVALUE DUP2 MSTORE PUSH1 0x20 ADD DUP7 PUSH1 0x2 DUP2 GT ISZERO PUSH2 0x17D JUMPI PUSH2 0x17C PUSH2 0xFDD JUMP JUMPDEST JUMPDEST DUP2 MSTORE PUSH1 0x20 ADD PUSH1 0x3 DUP1 DUP2 GT ISZERO PUSH2 0x195 JUMPI PUSH2 0x194 PUSH2 0xFDD JUMP JUMPDEST JUMPDEST DUP2 MSTORE POP DUP2 MSTORE PUSH1 0x20 ADD PUSH1 0x40 MLOAD DUP1 PUSH1 0x80 ADD PUSH1 0x40 MSTORE DUP1 CALLER PUSH20 0xFFFFFFFFFFFFFFFFFFFFFFFFFFFFFFFFFFFFFFFF AND DUP2 MSTORE PUSH1 0x20 ADD PUSH1 0x0 DUP2 MSTORE PUSH1 0x20 ADD PUSH1 0x0 PUSH1 0x2 DUP2 GT ISZERO PUSH2 0x1DF JUMPI PUSH2 0x1DE PUSH2 0xFDD JUMP JUMPDEST JUMPDEST DUP2 MSTORE PUSH1 0x20 ADD PUSH1 0x3 DUP1 DUP2 GT ISZERO PUSH2 0x1F7 JUMPI PUSH2 0x1F6 PUSH2 0xFDD JUMP JUMPDEST JUMPDEST DUP2 MSTORE POP DUP2 MSTORE PUSH1 0x20 ADD CALLVALUE DUP2 MSTORE PUSH1 0x20 ADD PUSH1 0x0 PUSH1 0x3 DUP2 GT ISZERO PUSH2 0x219 JUMPI PUSH2 0x218 PUSH2 0xFDD JUMP JUMPDEST JUMPDEST DUP2 MSTORE POP PUSH1 0x0 DUP1 PUSH1 0x1 SLOAD DUP2 MSTORE PUSH1 0x20 ADD SWAP1 DUP2 MSTORE PUSH1 0x20 ADD PUSH1 0x0 KECCAK256 PUSH1 0x0 DUP3 ADD MLOAD DUP2 PUSH1 0x0 ADD PUSH1 0x0 DUP3 ADD MLOAD DUP2 PUSH1 0x0 ADD PUSH1 0x0 PUSH2 0x100 EXP DUP2 SLOAD DUP2 PUSH20 0xFFFFFFFFFFFFFFFFFFFFFFFFFFFFFFFFFFFFFFFF MUL NOT AND SWAP1 DUP4 PUSH20 0xFFFFFFFFFFFFFFFFFFFFFFFFFFFFFFFFFFFFFFFF AND MUL OR SWAP1 SSTORE POP PUSH1 0x20 DUP3 ADD MLOAD DUP2 PUSH1 0x1 ADD SSTORE PUSH1 0x40 DUP3 ADD MLOAD DUP2 PUSH1 0x2 ADD PUSH1 0x0 PUSH2 0x100 EXP DUP2 SLOAD DUP2 PUSH1 0xFF MUL NOT AND SWAP1 DUP4 PUSH1 0x2 DUP2 GT ISZERO PUSH2 0x2B5 JUMPI PUSH2 0x2B4 PUSH2 0xFDD JUMP JUMPDEST JUMPDEST MUL OR SWAP1 SSTORE POP PUSH1 0x60 DUP3 ADD MLOAD DUP2 PUSH1 0x2 ADD PUSH1 0x1 PUSH2 0x100 EXP DUP2 SLOAD DUP2 PUSH1 0xFF MUL NOT AND SWAP1 DUP4 PUSH1 0x3 DUP2 GT ISZERO PUSH2 0x2E5 JUMPI PUSH2 0x2E4 PUSH2 0xFDD JUMP JUMPDEST JUMPDEST MUL OR SWAP1 SSTORE POP POP POP PUSH1 0x20 DUP3 ADD MLOAD DUP2 PUSH1 0x3 ADD PUSH1 0x0 DUP3 ADD MLOAD DUP2 PUSH1 0x0 ADD PUSH1 0x0 PUSH2 0x100 EXP DUP2 SLOAD DUP2 PUSH20 0xFFFFFFFFFFFFFFFFFFFFFFFFFFFFFFFFFFFFFFFF MUL NOT AND SWAP1 DUP4 PUSH20 0xFFFFFFFFFFFFFFFFFFFFFFFFFFFFFFFFFFFFFFFF AND MUL OR SWAP1 SSTORE POP PUSH1 0x20 DUP3 ADD MLOAD DUP2 PUSH1 0x1 ADD SSTORE PUSH1 0x40 DUP3 ADD MLOAD DUP2 PUSH1 0x2 ADD PUSH1 0x0 PUSH2 0x100 EXP DUP2 SLOAD DUP2 PUSH1 0xFF MUL NOT AND SWAP1 DUP4 PUSH1 0x2 DUP2 GT ISZERO PUSH2 0x371 JUMPI PUSH2 0x370 PUSH2 0xFDD JUMP JUMPDEST JUMPDEST MUL OR SWAP1 SSTORE POP PUSH1 0x60 DUP3 ADD MLOAD DUP2 PUSH1 0x2 ADD PUSH1 0x1 PUSH2 0x100 EXP DUP2 SLOAD DUP2 PUSH1 0xFF MUL NOT AND SWAP1 DUP4 PUSH1 0x3 DUP2 GT ISZERO PUSH2 0x3A1 JUMPI PUSH2 0x3A0 PUSH2 0xFDD JUMP JUMPDEST JUMPDEST MUL OR SWAP1 SSTORE POP POP POP PUSH1 0x40 DUP3 ADD MLOAD DUP2 PUSH1 0x6 ADD SSTORE PUSH1 0x60 DUP3 ADD MLOAD DUP2 PUSH1 0x7 ADD PUSH1 0x0 PUSH2 0x100 EXP DUP2 SLOAD DUP2 PUSH1 0xFF MUL NOT AND SWAP1 DUP4 PUSH1 0x3 DUP2 GT ISZERO PUSH2 0x3DD JUMPI PUSH2 0x3DC PUSH2 0xFDD JUMP JUMPDEST JUMPDEST MUL OR SWAP1 SSTORE POP SWAP1 POP POP PUSH1 0x1 SLOAD SWAP2 POP PUSH1 0x1 DUP1 SLOAD PUSH2 0x3F8 SWAP2 SWAP1 PUSH2 0xEEE JUMP JUMPDEST PUSH1 0x1 DUP2 SWAP1 SSTORE POP POP SWAP2 SWAP1 POP JUMP JUMPDEST DUP1 PUSH1 0x0 PUSH1 0x2 DUP2 GT ISZERO PUSH2 0x419 JUMPI PUSH2 0x418 PUSH2 0xFDD JUMP JUMPDEST JUMPDEST DUP2 PUSH1 0x2 DUP2 GT ISZERO PUSH2 0x42C JUMPI PUSH2 0x42B PUSH2 0xFDD JUMP JUMPDEST JUMPDEST EQ DUP1 PUSH2 0x45C JUMPI POP PUSH1 0x1 PUSH1 0x2 DUP2 GT ISZERO PUSH2 0x447 JUMPI PUSH2 0x446 PUSH2 0xFDD JUMP JUMPDEST JUMPDEST DUP2 PUSH1 0x2 DUP2 GT ISZERO PUSH2 0x45A JUMPI PUSH2 0x459 PUSH2 0xFDD JUMP JUMPDEST JUMPDEST EQ JUMPDEST DUP1 PUSH2 0x48A JUMPI POP PUSH1 0x2 DUP1 DUP2 GT ISZERO PUSH2 0x475 JUMPI PUSH2 0x474 PUSH2 0xFDD JUMP JUMPDEST JUMPDEST DUP2 PUSH1 0x2 DUP2 GT ISZERO PUSH2 0x488 JUMPI PUSH2 0x487 PUSH2 0xFDD JUMP JUMPDEST JUMPDEST EQ JUMPDEST PUSH2 0x493 JUMPI PUSH1 0x0 DUP1 REVERT JUMPDEST PUSH1 0x40 MLOAD DUP1 PUSH1 0x80 ADD PUSH1 0x40 MSTORE DUP1 CALLER PUSH20 0xFFFFFFFFFFFFFFFFFFFFFFFFFFFFFFFFFFFFFFFF AND DUP2 MSTORE PUSH1 0x20 ADD CALLVALUE DUP2 MSTORE PUSH1 0x20 ADD DUP4 PUSH1 0x2 DUP2 GT ISZERO PUSH2 0x4D3 JUMPI PUSH2 0x4D2 PUSH2 0xFDD JUMP JUMPDEST JUMPDEST DUP2 MSTORE PUSH1 0x20 ADD PUSH1 0x3 DUP1 DUP2 GT ISZERO PUSH2 0x4EB JUMPI PUSH2 0x4EA PUSH2 0xFDD JUMP JUMPDEST JUMPDEST DUP2 MSTORE POP PUSH1 0x0 DUP1 DUP6 DUP2 MSTORE PUSH1 0x20 ADD SWAP1 DUP2 MSTORE PUSH1 0x20 ADD PUSH1 0x0 KECCAK256 PUSH1 0x3 ADD PUSH1 0x0 DUP3 ADD MLOAD DUP2 PUSH1 0x0 ADD PUSH1 0x0 PUSH2 0x100 EXP DUP2 SLOAD DUP2 PUSH20 0xFFFFFFFFFFFFFFFFFFFFFFFFFFFFFFFFFFFFFFFF MUL NOT AND SWAP1 DUP4 PUSH20 0xFFFFFFFFFFFFFFFFFFFFFFFFFFFFFFFFFFFFFFFF AND MUL OR SWAP1 SSTORE POP PUSH1 0x20 DUP3 ADD MLOAD DUP2 PUSH1 0x1 ADD SSTORE PUSH1 0x40 DUP3 ADD MLOAD DUP2 PUSH1 0x2 ADD PUSH1 0x0 PUSH2 0x100 EXP DUP2 SLOAD DUP2 PUSH1 0xFF MUL NOT AND SWAP1 DUP4 PUSH1 0x2 DUP2 GT ISZERO PUSH2 0x57F JUMPI PUSH2 0x57E PUSH2 0xFDD JUMP JUMPDEST JUMPDEST MUL OR SWAP1 SSTORE POP PUSH1 0x60 DUP3 ADD MLOAD DUP2 PUSH1 0x2 ADD PUSH1 0x1 PUSH2 0x100 EXP DUP2 SLOAD DUP2 PUSH1 0xFF MUL NOT AND SWAP1 DUP4 PUSH1 0x3 DUP2 GT ISZERO PUSH2 0x5AF JUMPI PUSH2 0x5AE PUSH2 0xFDD JUMP JUMPDEST JUMPDEST MUL OR SWAP1 SSTORE POP SWAP1 POP POP CALLVALUE PUSH1 0x0 DUP1 DUP6 DUP2 MSTORE PUSH1 0x20 ADD SWAP1 DUP2 MSTORE PUSH1 0x20 ADD PUSH1 0x0 KECCAK256 PUSH1 0x6 ADD SLOAD PUSH2 0x5D8 SWAP2 SWAP1 PUSH2 0xEEE JUMP JUMPDEST PUSH1 0x0 DUP1 DUP6 DUP2 MSTORE PUSH1 0x20 ADD SWAP1 DUP2 MSTORE PUSH1 0x20 ADD PUSH1 0x0 KECCAK256 PUSH1 0x6 ADD DUP2 SWAP1 SSTORE POP PUSH2 0x5FA DUP4 PUSH2 0xB21 JUMP JUMPDEST POP POP POP JUMP JUMPDEST PUSH1 0x2 PUSH1 0x3 DUP2 GT ISZERO PUSH2 0x613 JUMPI PUSH2 0x612 PUSH2 0xFDD JUMP JUMPDEST JUMPDEST PUSH1 0x0 DUP1 DUP4 DUP2 MSTORE PUSH1 0x20 ADD SWAP1 DUP2 MSTORE PUSH1 0x20 ADD PUSH1 0x0 KECCAK256 PUSH1 0x0 ADD PUSH1 0x2 ADD PUSH1 0x1 SWAP1 SLOAD SWAP1 PUSH2 0x100 EXP SWAP1 DIV PUSH1 0xFF AND PUSH1 0x3 DUP2 GT ISZERO PUSH2 0x64B JUMPI PUSH2 0x64A PUSH2 0xFDD JUMP JUMPDEST JUMPDEST EQ DUP1 ISZERO PUSH2 0x6A1 JUMPI POP PUSH1 0x2 PUSH1 0x3 DUP2 GT ISZERO PUSH2 0x667 JUMPI PUSH2 0x666 PUSH2 0xFDD JUMP JUMPDEST JUMPDEST PUSH1 0x0 DUP1 DUP4 DUP2 MSTORE PUSH1 0x20 ADD SWAP1 DUP2 MSTORE PUSH1 0x20 ADD PUSH1 0x0 KECCAK256 PUSH1 0x3 ADD PUSH1 0x2 ADD PUSH1 0x1 SWAP1 SLOAD SWAP1 PUSH2 0x100 EXP SWAP1 DIV PUSH1 0xFF AND PUSH1 0x3 DUP2 GT ISZERO PUSH2 0x69F JUMPI PUSH2 0x69E PUSH2 0xFDD JUMP JUMPDEST JUMPDEST EQ JUMPDEST ISZERO PUSH2 0x7D9 JUMPI PUSH1 0x0 DUP1 DUP3 DUP2 MSTORE PUSH1 0x20 ADD SWAP1 DUP2 MSTORE PUSH1 0x20 ADD PUSH1 0x0 KECCAK256 PUSH1 0x0 ADD PUSH1 0x0 ADD PUSH1 0x0 SWAP1 SLOAD SWAP1 PUSH2 0x100 EXP SWAP1 DIV PUSH20 0xFFFFFFFFFFFFFFFFFFFFFFFFFFFFFFFFFFFFFFFF AND PUSH20 0xFFFFFFFFFFFFFFFFFFFFFFFFFFFFFFFFFFFFFFFF AND PUSH2 0x8FC PUSH1 0x0 DUP1 DUP5 DUP2 MSTORE PUSH1 0x20 ADD SWAP1 DUP2 MSTORE PUSH1 0x20 ADD PUSH1 0x0 KECCAK256 PUSH1 0x0 ADD PUSH1 0x1 ADD SLOAD SWAP1 DUP2 ISZERO MUL SWAP1 PUSH1 0x40 MLOAD PUSH1 0x0 PUSH1 0x40 MLOAD DUP1 DUP4 SUB DUP2 DUP6 DUP9 DUP9 CALL SWAP4 POP POP POP POP ISZERO DUP1 ISZERO PUSH2 0x73C JUMPI RETURNDATASIZE PUSH1 0x0 DUP1 RETURNDATACOPY RETURNDATASIZE PUSH1 0x0 REVERT JUMPDEST POP PUSH1 0x0 DUP1 DUP3 DUP2 MSTORE PUSH1 0x20 ADD SWAP1 DUP2 MSTORE PUSH1 0x20 ADD PUSH1 0x0 KECCAK256 PUSH1 0x3 ADD PUSH1 0x0 ADD PUSH1 0x0 SWAP1 SLOAD SWAP1 PUSH2 0x100 EXP SWAP1 DIV PUSH20 0xFFFFFFFFFFFFFFFFFFFFFFFFFFFFFFFFFFFFFFFF AND PUSH20 0xFFFFFFFFFFFFFFFFFFFFFFFFFFFFFFFFFFFFFFFF AND PUSH2 0x8FC PUSH1 0x0 DUP1 DUP5 DUP2 MSTORE PUSH1 0x20 ADD SWAP1 DUP2 MSTORE PUSH1 0x20 ADD PUSH1 0x0 KECCAK256 PUSH1 0x3 ADD PUSH1 0x1 ADD SLOAD SWAP1 DUP2 ISZERO MUL SWAP1 PUSH1 0x40 MLOAD PUSH1 0x0 PUSH1 0x40 MLOAD DUP1 DUP4 SUB DUP2 DUP6 DUP9 DUP9 CALL SWAP4 POP POP POP POP ISZERO DUP1 ISZERO PUSH2 0x7D3 JUMPI RETURNDATASIZE PUSH1 0x0 DUP1 RETURNDATACOPY RETURNDATASIZE PUSH1 0x0 REVERT JUMPDEST POP PUSH2 0xAE0 JUMP JUMPDEST PUSH1 0x0 PUSH1 0x3 DUP2 GT ISZERO PUSH2 0x7ED JUMPI PUSH2 0x7EC PUSH2 0xFDD JUMP JUMPDEST JUMPDEST PUSH1 0x0 DUP1 DUP4 DUP2 MSTORE PUSH1 0x20 ADD SWAP1 DUP2 MSTORE PUSH1 0x20 ADD PUSH1 0x0 KECCAK256 PUSH1 0x0 ADD PUSH1 0x2 ADD PUSH1 0x1 SWAP1 SLOAD SWAP1 PUSH2 0x100 EXP SWAP1 DIV PUSH1 0xFF AND PUSH1 0x3 DUP2 GT ISZERO PUSH2 0x825 JUMPI PUSH2 0x824 PUSH2 0xFDD JUMP JUMPDEST JUMPDEST EQ ISZERO PUSH2 0x8C4 JUMPI PUSH1 0x0 DUP1 DUP3 DUP2 MSTORE PUSH1 0x20 ADD SWAP1 DUP2 MSTORE PUSH1 0x20 ADD PUSH1 0x0 KECCAK256 PUSH1 0x0 ADD PUSH1 0x0 ADD PUSH1 0x0 SWAP1 SLOAD SWAP1 PUSH2 0x100 EXP SWAP1 DIV PUSH20 0xFFFFFFFFFFFFFFFFFFFFFFFFFFFFFFFFFFFFFFFF AND PUSH20 0xFFFFFFFFFFFFFFFFFFFFFFFFFFFFFFFFFFFFFFFF AND PUSH2 0x8FC PUSH1 0x0 DUP1 DUP5 DUP2 MSTORE PUSH1 0x20 ADD SWAP1 DUP2 MSTORE PUSH1 0x20 ADD PUSH1 0x0 KECCAK256 PUSH1 0x6 ADD SLOAD SWAP1 DUP2 ISZERO MUL SWAP1 PUSH1 0x40 MLOAD PUSH1 0x0 PUSH1 0x40 MLOAD DUP1 DUP4 SUB DUP2 DUP6 DUP9 DUP9 CALL SWAP4 POP POP POP POP ISZERO DUP1 ISZERO PUSH2 0x8BE JUMPI RETURNDATASIZE PUSH1 0x0 DUP1 RETURNDATACOPY RETURNDATASIZE PUSH1 0x0 REVERT JUMPDEST POP PUSH2 0xADF JUMP JUMPDEST PUSH1 0x0 PUSH1 0x3 DUP2 GT ISZERO PUSH2 0x8D8 JUMPI PUSH2 0x8D7 PUSH2 0xFDD JUMP JUMPDEST JUMPDEST PUSH1 0x0 DUP1 DUP4 DUP2 MSTORE PUSH1 0x20 ADD SWAP1 DUP2 MSTORE PUSH1 0x20 ADD PUSH1 0x0 KECCAK256 PUSH1 0x3 ADD PUSH1 0x2 ADD PUSH1 0x1 SWAP1 SLOAD SWAP1 PUSH2 0x100 EXP SWAP1 DIV PUSH1 0xFF AND PUSH1 0x3 DUP2 GT ISZERO PUSH2 0x910 JUMPI PUSH2 0x90F PUSH2 0xFDD JUMP JUMPDEST JUMPDEST EQ ISZERO PUSH2 0x9AF JUMPI PUSH1 0x0 DUP1 DUP3 DUP2 MSTORE PUSH1 0x20 ADD SWAP1 DUP2 MSTORE PUSH1 0x20 ADD PUSH1 0x0 KECCAK256 PUSH1 0x3 ADD PUSH1 0x0 ADD PUSH1 0x0 SWAP1 SLOAD SWAP1 PUSH2 0x100 EXP SWAP1 DIV PUSH20 0xFFFFFFFFFFFFFFFFFFFFFFFFFFFFFFFFFFFFFFFF AND PUSH20 0xFFFFFFFFFFFFFFFFFFFFFFFFFFFFFFFFFFFFFFFF AND PUSH2 0x8FC PUSH1 0x0 DUP1 DUP5 DUP2 MSTORE PUSH1 0x20 ADD SWAP1 DUP2 MSTORE PUSH1 0x20 ADD PUSH1 0x0 KECCAK256 PUSH1 0x6 ADD SLOAD SWAP1 DUP2 ISZERO MUL SWAP1 PUSH1 0x40 MLOAD PUSH1 0x0 PUSH1 0x40 MLOAD DUP1 DUP4 SUB DUP2 DUP6 DUP9 DUP9 CALL SWAP4 POP POP POP POP ISZERO DUP1 ISZERO PUSH2 0x9A9 JUMPI RETURNDATASIZE PUSH1 0x0 DUP1 RETURNDATACOPY RETURNDATASIZE PUSH1 0x0 REVERT JUMPDEST POP PUSH2 0xADE JUMP JUMPDEST PUSH1 0x0 DUP1 DUP3 DUP2 MSTORE PUSH1 0x20 ADD SWAP1 DUP2 MSTORE PUSH1 0x20 ADD PUSH1 0x0 KECCAK256 PUSH1 0x0 ADD PUSH1 0x0 ADD PUSH1 0x0 SWAP1 SLOAD SWAP1 PUSH2 0x100 EXP SWAP1 DIV PUSH20 0xFFFFFFFFFFFFFFFFFFFFFFFFFFFFFFFFFFFFFFFF AND PUSH20 0xFFFFFFFFFFFFFFFFFFFFFFFFFFFFFFFFFFFFFFFF AND PUSH2 0x8FC PUSH1 0x0 DUP1 DUP5 DUP2 MSTORE PUSH1 0x20 ADD SWAP1 DUP2 MSTORE PUSH1 0x20 ADD PUSH1 0x0 KECCAK256 PUSH1 0x0 ADD PUSH1 0x1 ADD SLOAD SWAP1 DUP2 ISZERO MUL SWAP1 PUSH1 0x40 MLOAD PUSH1 0x0 PUSH1 0x40 MLOAD DUP1 DUP4 SUB DUP2 DUP6 DUP9 DUP9 CALL SWAP4 POP POP POP POP ISZERO DUP1 ISZERO PUSH2 0xA45 JUMPI RETURNDATASIZE PUSH1 0x0 DUP1 RETURNDATACOPY RETURNDATASIZE PUSH1 0x0 REVERT JUMPDEST POP PUSH1 0x0 DUP1 DUP3 DUP2 MSTORE PUSH1 0x20 ADD SWAP1 DUP2 MSTORE PUSH1 0x20 ADD PUSH1 0x0 KECCAK256 PUSH1 0x3 ADD PUSH1 0x0 ADD PUSH1 0x0 SWAP1 SLOAD SWAP1 PUSH2 0x100 EXP SWAP1 DIV PUSH20 0xFFFFFFFFFFFFFFFFFFFFFFFFFFFFFFFFFFFFFFFF AND PUSH20 0xFFFFFFFFFFFFFFFFFFFFFFFFFFFFFFFFFFFFFFFF AND PUSH2 0x8FC PUSH1 0x0 DUP1 DUP5 DUP2 MSTORE PUSH1 0x20 ADD SWAP1 DUP2 MSTORE PUSH1 0x20 ADD PUSH1 0x0 KECCAK256 PUSH1 0x3 ADD PUSH1 0x1 ADD SLOAD SWAP1 DUP2 ISZERO MUL SWAP1 PUSH1 0x40 MLOAD PUSH1 0x0 PUSH1 0x40 MLOAD DUP1 DUP4 SUB DUP2 DUP6 DUP9 DUP9 CALL SWAP4 POP POP POP POP ISZERO DUP1 ISZERO PUSH2 0xADC JUMPI RETURNDATASIZE PUSH1 0x0 DUP1 RETURNDATACOPY RETURNDATASIZE PUSH1 0x0 REVERT JUMPDEST POP JUMPDEST JUMPDEST JUMPDEST PUSH1 0x2 PUSH1 0x0 DUP1 DUP4 DUP2 MSTORE PUSH1 0x20 ADD SWAP1 DUP2 MSTORE PUSH1 0x20 ADD PUSH1 0x0 KECCAK256 PUSH1 0x7 ADD PUSH1 0x0 PUSH2 0x100 EXP DUP2 SLOAD DUP2 PUSH1 0xFF MUL NOT AND SWAP1 DUP4 PUSH1 0x3 DUP2 GT ISZERO PUSH2 0xB19 JUMPI PUSH2 0xB18 PUSH2 0xFDD JUMP JUMPDEST JUMPDEST MUL OR SWAP1 SSTORE POP POP JUMP JUMPDEST PUSH1 0x0 DUP1 PUSH1 0x0 DUP4 DUP2 MSTORE PUSH1 0x20 ADD SWAP1 DUP2 MSTORE PUSH1 0x20 ADD PUSH1 0x0 KECCAK256 PUSH1 0x0 ADD PUSH1 0x2 ADD PUSH1 0x0 SWAP1 SLOAD SWAP1 PUSH2 0x100 EXP SWAP1 DIV PUSH1 0xFF AND PUSH1 0x2 DUP2 GT ISZERO PUSH2 0xB5B JUMPI PUSH2 0xB5A PUSH2 0xFDD JUMP JUMPDEST JUMPDEST PUSH1 0xFF AND SWAP1 POP PUSH1 0x0 DUP1 PUSH1 0x0 DUP5 DUP2 MSTORE PUSH1 0x20 ADD SWAP1 DUP2 MSTORE PUSH1 0x20 ADD PUSH1 0x0 KECCAK256 PUSH1 0x3 ADD PUSH1 0x2 ADD PUSH1 0x0 SWAP1 SLOAD SWAP1 PUSH2 0x100 EXP SWAP1 DIV PUSH1 0xFF AND PUSH1 0x2 DUP2 GT ISZERO PUSH2 0xB9A JUMPI PUSH2 0xB99 PUSH2 0xFDD JUMP JUMPDEST JUMPDEST PUSH1 0xFF AND SWAP1 POP PUSH1 0x1 PUSH1 0x0 DUP1 DUP6 DUP2 MSTORE PUSH1 0x20 ADD SWAP1 DUP2 MSTORE PUSH1 0x20 ADD PUSH1 0x0 KECCAK256 PUSH1 0x7 ADD PUSH1 0x0 PUSH2 0x100 EXP DUP2 SLOAD DUP2 PUSH1 0xFF MUL NOT AND SWAP1 DUP4 PUSH1 0x3 DUP2 GT ISZERO PUSH2 0xBD8 JUMPI PUSH2 0xBD7 PUSH2 0xFDD JUMP JUMPDEST JUMPDEST MUL OR SWAP1 SSTORE POP DUP2 DUP2 EQ ISZERO PUSH2 0xC6C JUMPI PUSH1 0x2 PUSH1 0x0 DUP1 DUP6 DUP2 MSTORE PUSH1 0x20 ADD SWAP1 DUP2 MSTORE PUSH1 0x20 ADD PUSH1 0x0 KECCAK256 PUSH1 0x0 ADD PUSH1 0x2 ADD PUSH1 0x1 PUSH2 0x100 EXP DUP2 SLOAD DUP2 PUSH1 0xFF MUL NOT AND SWAP1 DUP4 PUSH1 0x3 DUP2 GT ISZERO PUSH2 0xC21 JUMPI PUSH2 0xC20 PUSH2 0xFDD JUMP JUMPDEST JUMPDEST MUL OR SWAP1 SSTORE POP PUSH1 0x2 PUSH1 0x0 DUP1 DUP6 DUP2 MSTORE PUSH1 0x20 ADD SWAP1 DUP2 MSTORE PUSH1 0x20 ADD PUSH1 0x0 KECCAK256 PUSH1 0x3 ADD PUSH1 0x2 ADD PUSH1 0x1 PUSH2 0x100 EXP DUP2 SLOAD DUP2 PUSH1 0xFF MUL NOT AND SWAP1 DUP4 PUSH1 0x3 DUP2 GT ISZERO PUSH2 0xC62 JUMPI PUSH2 0xC61 PUSH2 0xFDD JUMP JUMPDEST JUMPDEST MUL OR SWAP1 SSTORE POP PUSH2 0xDFB JUMP JUMPDEST DUP2 PUSH1 0x3 PUSH1 0x1 DUP4 PUSH2 0xC7C SWAP2 SWAP1 PUSH2 0xEEE JUMP JUMPDEST PUSH2 0xC86 SWAP2 SWAP1 PUSH2 0xF4E JUMP JUMPDEST EQ ISZERO PUSH2 0xD13 JUMPI PUSH1 0x0 DUP1 PUSH1 0x0 DUP6 DUP2 MSTORE PUSH1 0x20 ADD SWAP1 DUP2 MSTORE PUSH1 0x20 ADD PUSH1 0x0 KECCAK256 PUSH1 0x0 ADD PUSH1 0x2 ADD PUSH1 0x1 PUSH2 0x100 EXP DUP2 SLOAD DUP2 PUSH1 0xFF MUL NOT AND SWAP1 DUP4 PUSH1 0x3 DUP2 GT ISZERO PUSH2 0xCC8 JUMPI PUSH2 0xCC7 PUSH2 0xFDD JUMP JUMPDEST JUMPDEST MUL OR SWAP1 SSTORE POP PUSH1 0x1 PUSH1 0x0 DUP1 DUP6 DUP2 MSTORE PUSH1 0x20 ADD SWAP1 DUP2 MSTORE PUSH1 0x20 ADD PUSH1 0x0 KECCAK256 PUSH1 0x3 ADD PUSH1 0x2 ADD PUSH1 0x1 PUSH2 0x100 EXP DUP2 SLOAD DUP2 PUSH1 0xFF MUL NOT AND SWAP1 DUP4 PUSH1 0x3 DUP2 GT ISZERO PUSH2 0xD09 JUMPI PUSH2 0xD08 PUSH2 0xFDD JUMP JUMPDEST JUMPDEST MUL OR SWAP1 SSTORE POP PUSH2 0xDFA JUMP JUMPDEST DUP1 PUSH1 0x3 PUSH1 0x1 DUP5 PUSH2 0xD23 SWAP2 SWAP1 PUSH2 0xEEE JUMP JUMPDEST PUSH2 0xD2D SWAP2 SWAP1 PUSH2 0xF4E JUMP JUMPDEST EQ ISZERO PUSH2 0xDBA JUMPI PUSH1 0x1 PUSH1 0x0 DUP1 DUP6 DUP2 MSTORE PUSH1 0x20 ADD SWAP1 DUP2 MSTORE PUSH1 0x20 ADD PUSH1 0x0 KECCAK256 PUSH1 0x0 ADD PUSH1 0x2 ADD PUSH1 0x1 PUSH2 0x100 EXP DUP2 SLOAD DUP2 PUSH1 0xFF MUL NOT AND SWAP1 DUP4 PUSH1 0x3 DUP2 GT ISZERO PUSH2 0xD6F JUMPI PUSH2 0xD6E PUSH2 0xFDD JUMP JUMPDEST JUMPDEST MUL OR SWAP1 SSTORE POP PUSH1 0x0 DUP1 PUSH1 0x0 DUP6 DUP2 MSTORE PUSH1 0x20 ADD SWAP1 DUP2 MSTORE PUSH1 0x20 ADD PUSH1 0x0 KECCAK256 PUSH1 0x3 ADD PUSH1 0x2 ADD PUSH1 0x1 PUSH2 0x100 EXP DUP2 SLOAD DUP2 PUSH1 0xFF MUL NOT AND SWAP1 DUP4 PUSH1 0x3 DUP2 GT ISZERO PUSH2 0xDB0 JUMPI PUSH2 0xDAF PUSH2 0xFDD JUMP JUMPDEST JUMPDEST MUL OR SWAP1 SSTORE POP PUSH2 0xDF9 JUMP JUMPDEST PUSH1 0x3 PUSH1 0x0 DUP1 DUP6 DUP2 MSTORE PUSH1 0x20 ADD SWAP1 DUP2 MSTORE PUSH1 0x20 ADD PUSH1 0x0 KECCAK256 PUSH1 0x7 ADD PUSH1 0x0 PUSH2 0x100 EXP DUP2 SLOAD DUP2 PUSH1 0xFF MUL NOT AND SWAP1 DUP4 PUSH1 0x3 DUP2 GT ISZERO PUSH2 0xDF3 JUMPI PUSH2 0xDF2 PUSH2 0xFDD JUMP JUMPDEST JUMPDEST MUL OR SWAP1 SSTORE POP JUMPDEST JUMPDEST JUMPDEST POP POP POP JUMP JUMPDEST PUSH1 0x0 DUP2 CALLDATALOAD SWAP1 POP PUSH2 0xE0F DUP2 PUSH2 0x1011 JUMP JUMPDEST SWAP3 SWAP2 POP POP JUMP JUMPDEST PUSH1 0x0 DUP2 CALLDATALOAD SWAP1 POP PUSH2 0xE24 DUP2 PUSH2 0x1021 JUMP JUMPDEST SWAP3 SWAP2 POP POP JUMP JUMPDEST PUSH1 0x0 PUSH1 0x20 DUP3 DUP5 SUB SLT ISZERO PUSH2 0xE40 JUMPI PUSH2 0xE3F PUSH2 0x100C JUMP JUMPDEST JUMPDEST PUSH1 0x0 PUSH2 0xE4E DUP5 DUP3 DUP6 ADD PUSH2 0xE00 JUMP JUMPDEST SWAP2 POP POP SWAP3 SWAP2 POP POP JUMP JUMPDEST PUSH1 0x0 PUSH1 0x20 DUP3 DUP5 SUB SLT ISZERO PUSH2 0xE6D JUMPI PUSH2 0xE6C PUSH2 0x100C JUMP JUMPDEST JUMPDEST PUSH1 0x0 PUSH2 0xE7B DUP5 DUP3 DUP6 ADD PUSH2 0xE15 JUMP JUMPDEST SWAP2 POP POP SWAP3 SWAP2 POP POP JUMP JUMPDEST PUSH1 0x0 DUP1 PUSH1 0x40 DUP4 DUP6 SUB SLT ISZERO PUSH2 0xE9B JUMPI PUSH2 0xE9A PUSH2 0x100C JUMP JUMPDEST JUMPDEST PUSH1 0x0 PUSH2 0xEA9 DUP6 DUP3 DUP7 ADD PUSH2 0xE15 JUMP JUMPDEST SWAP3 POP POP PUSH1 0x20 PUSH2 0xEBA DUP6 DUP3 DUP7 ADD PUSH2 0xE00 JUMP JUMPDEST SWAP2 POP POP SWAP3 POP SWAP3 SWAP1 POP JUMP JUMPDEST PUSH2 0xECD DUP2 PUSH2 0xF44 JUMP JUMPDEST DUP3 MSTORE POP POP JUMP JUMPDEST PUSH1 0x0 PUSH1 0x20 DUP3 ADD SWAP1 POP PUSH2 0xEE8 PUSH1 0x0 DUP4 ADD DUP5 PUSH2 0xEC4 JUMP JUMPDEST SWAP3 SWAP2 POP POP JUMP JUMPDEST PUSH1 0x0 PUSH2 0xEF9 DUP3 PUSH2 0xF44 JUMP JUMPDEST SWAP2 POP PUSH2 0xF04 DUP4 PUSH2 0xF44 JUMP JUMPDEST SWAP3 POP DUP3 PUSH32 0xFFFFFFFFFFFFFFFFFFFFFFFFFFFFFFFFFFFFFFFFFFFFFFFFFFFFFFFFFFFFFFFF SUB DUP3 GT ISZERO PUSH2 0xF39 JUMPI PUSH2 0xF38 PUSH2 0xF7F JUMP JUMPDEST JUMPDEST DUP3 DUP3 ADD SWAP1 POP SWAP3 SWAP2 POP POP JUMP JUMPDEST PUSH1 0x0 DUP2 SWAP1 POP SWAP2 SWAP1 POP JUMP JUMPDEST PUSH1 0x0 PUSH2 0xF59 DUP3 PUSH2 0xF44 JUMP JUMPDEST SWAP2 POP PUSH2 0xF64 DUP4 PUSH2 0xF44 JUMP JUMPDEST SWAP3 POP DUP3 PUSH2 0xF74 JUMPI PUSH2 0xF73 PUSH2 0xFAE JUMP JUMPDEST JUMPDEST DUP3 DUP3 MOD SWAP1 POP SWAP3 SWAP2 POP POP JUMP JUMPDEST PUSH32 0x4E487B7100000000000000000000000000000000000000000000000000000000 PUSH1 0x0 MSTORE PUSH1 0x11 PUSH1 0x4 MSTORE PUSH1 0x24 PUSH1 0x0 REVERT JUMPDEST PUSH32 0x4E487B7100000000000000000000000000000000000000000000000000000000 PUSH1 0x0 MSTORE PUSH1 0x12 PUSH1 0x4 MSTORE PUSH1 0x24 PUSH1 0x0 REVERT JUMPDEST PUSH32 0x4E487B7100000000000000000000000000000000000000000000000000000000 PUSH1 0x0 MSTORE PUSH1 0x21 PUSH1 0x4 MSTORE PUSH1 0x24 PUSH1 0x0 REVERT JUMPDEST PUSH1 0x0 DUP1 REVERT JUMPDEST PUSH1 0x3 DUP2 LT PUSH2 0x101E JUMPI PUSH1 0x0 DUP1 REVERT JUMPDEST POP JUMP JUMPDEST PUSH2 0x102A DUP2 PUSH2 0xF44 JUMP JUMPDEST DUP2 EQ PUSH2 0x1035 JUMPI PUSH1 0x0 DUP1 REVERT JUMPDEST POP JUMP INVALID LOG2 PUSH5 0x6970667358 0x22 SLT KECCAK256 SWAP10 EQ SWAP14 STATICCALL 0xB6 0xFC PUSH18 0xBE87DF6A3BD7D57DFA5F6DFA7D000683795C DUP9 CHAINID SWAP2 0xD4 MSTORE 0xF9 0xAA PUSH5 0x736F6C6343 STOP ADDMOD SMOD STOP CALLER "
				},
				"gasEstimates": {
					"creation": {
						"codeDepositCost": "841200",
						"executionCost": "5859",
						"totalCost": "847059"
					},
					"external": {
						"createRoom(uint8)": "infinite",
						"joinRoom(uint256,uint8)": "infinite",
						"payout(uint256)": "infinite"
					},
					"internal": {
						"compareHands(uint256)": "infinite"
					}
				},
				"methodIdentifiers": {
					"createRoom(uint8)": "0f36f3b5",
					"joinRoom(uint256,uint8)": "79b15776",
					"payout(uint256)": "e1152343"
				}
			},
			"userdoc": {
				"kind": "user",
				"methods": {},
				"version": 1
			}
		}
	}
}