{
	"data": {
		"bytecode": {
			"linkReferences": {},
			"object": "6080604052600060015561106e806100186000396000f3fe6080604052600436106100345760003560e01c80630f36f3b51461003957806379b1577614610069578063e115234314610085575b600080fd5b610053600480360381019061004e9190610e2a565b6100a1565b6040516100609190610ed3565b60405180910390f35b610083600480360381019061007e9190610e84565b610404565b005b61009f600480360381019061009a9190610e57565b6105ff565b005b600081600060028111156100b8576100b7610fdd565b5b8160028111156100cb576100ca610fdd565b5b14806100fb5750600160028111156100e6576100e5610fdd565b5b8160028111156100f9576100f8610fdd565b5b145b80610129575060028081111561011457610113610fdd565b5b81600281111561012757610126610fdd565b5b145b61013257600080fd5b604051806080016040528060405180608001604052803373ffffffffffffffffffffffffffffffffffffffff16815260200134815260200186600281111561017d5761017c610fdd565b5b815260200160038081111561019557610194610fdd565b5b815250815260200160405180608001604052803373ffffffffffffffffffffffffffffffffffffffff16815260200160008152602001600060028111156101df576101de610fdd565b5b81526020016003808111156101f7576101f6610fdd565b5b81525081526020013481526020016000600381111561021957610218610fdd565b5b815250600080600154815260200190815260200160002060008201518160000160008201518160000160006101000a81548173ffffffffffffffffffffffffffffffffffffffff021916908373ffffffffffffffffffffffffffffffffffffffff1602179055506020820151816001015560408201518160020160006101000a81548160ff021916908360028111156102b5576102b4610fdd565b5b021790555060608201518160020160016101000a81548160ff021916908360038111156102e5576102e4610fdd565b5b0217905550505060208201518160030160008201518160000160006101000a81548173ffffffffffffffffffffffffffffffffffffffff021916908373ffffffffffffffffffffffffffffffffffffffff1602179055506020820151816001015560408201518160020160006101000a81548160ff0219169083600281111561037157610370610fdd565b5b021790555060608201518160020160016101000a81548160ff021916908360038111156103a1576103a0610fdd565b5b021790555050506040820151816006015560608201518160070160006101000a81548160ff021916908360038111156103dd576103dc610fdd565b5b02179055509050506001549150600180546103f89190610eee565b60018190555050919050565b806000600281111561041957610418610fdd565b5b81600281111561042c5761042b610fdd565b5b148061045c57506001600281111561044757610446610fdd565b5b81600281111561045a57610459610fdd565b5b145b8061048a575060028081111561047557610474610fdd565b5b81600281111561048857610487610fdd565b5b145b61049357600080fd5b60405180608001604052803373ffffffffffffffffffffffffffffffffffffffff1681526020013481526020018360028111156104d3576104d2610fdd565b5b81526020016003808111156104eb576104ea610fdd565b5b81525060008085815260200190815260200160002060030160008201518160000160006101000a81548173ffffffffffffffffffffffffffffffffffffffff021916908373ffffffffffffffffffffffffffffffffffffffff1602179055506020820151816001015560408201518160020160006101000a81548160ff0219169083600281111561057f5761057e610fdd565b5b021790555060608201518160020160016101000a81548160ff021916908360038111156105af576105ae610fdd565b5b021790555090505034600080858152602001908152602001600020600601546105d89190610eee565b600080858152602001908152602001600020600601819055506105fa83610b21565b505050565b6002600381111561061357610612610fdd565b5b60008083815260200190815260200160002060000160020160019054906101000a900460ff16600381111561064b5761064a610fdd565b5b1480156106a157506002600381111561066757610666610fdd565b5b60008083815260200190815260200160002060030160020160019054906101000a900460ff16600381111561069f5761069e610fdd565b5b145b156107d95760008082815260200190815260200160002060000160000160009054906101000a900473ffffffffffffffffffffffffffffffffffffffff1673ffffffffffffffffffffffffffffffffffffffff166108fc600080848152602001908152602001600020600001600101549081150290604051600060405180830381858888f1935050505015801561073c573d6000803e3d6000fd5b5060008082815260200190815260200160002060030160000160009054906101000a900473ffffffffffffffffffffffffffffffffffffffff1673ffffffffffffffffffffffffffffffffffffffff166108fc600080848152602001908152602001600020600301600101549081150290604051600060405180830381858888f193505050501580156107d3573d6000803e3d6000fd5b50610ae0565b600060038111156107ed576107ec610fdd565b5b60008083815260200190815260200160002060000160020160019054906101000a900460ff16600381111561082557610824610fdd565b5b14156108c45760008082815260200190815260200160002060000160000160009054906101000a900473ffffffffffffffffffffffffffffffffffffffff1673ffffffffffffffffffffffffffffffffffffffff166108fc600080848152602001908152602001600020600601549081150290604051600060405180830381858888f193505050501580156108be573d6000803e3d6000fd5b50610adf565b600060038111156108d8576108d7610fdd565b5b60008083815260200190815260200160002060030160020160019054906101000a900460ff1660038111156109105761090f610fdd565b5b14156109af5760008082815260200190815260200160002060030160000160009054906101000a900473ffffffffffffffffffffffffffffffffffffffff1673ffffffffffffffffffffffffffffffffffffffff166108fc600080848152602001908152602001600020600601549081150290604051600060405180830381858888f193505050501580156109a9573d6000803e3d6000fd5b50610ade565b60008082815260200190815260200160002060000160000160009054906101000a900473ffffffffffffffffffffffffffffffffffffffff1673ffffffffffffffffffffffffffffffffffffffff166108fc600080848152602001908152602001600020600001600101549081150290604051600060405180830381858888f19350505050158015610a45573d6000803e3d6000fd5b5060008082815260200190815260200160002060030160000160009054906101000a900473ffffffffffffffffffffffffffffffffffffffff1673ffffffffffffffffffffffffffffffffffffffff166108fc600080848152602001908152602001600020600301600101549081150290604051600060405180830381858888f19350505050158015610adc573d6000803e3d6000fd5b505b5b5b600260008083815260200190815260200160002060070160006101000a81548160ff02191690836003811115610b1957610b18610fdd565b5b021790555050565b600080600083815260200190815260200160002060000160020160009054906101000a900460ff166002811115610b5b57610b5a610fdd565b5b60ff169050600080600084815260200190815260200160002060030160020160009054906101000a900460ff166002811115610b9a57610b99610fdd565b5b60ff169050600160008085815260200190815260200160002060070160006101000a81548160ff02191690836003811115610bd857610bd7610fdd565b5b021790555081811415610c6c57600260008085815260200190815260200160002060000160020160016101000a81548160ff02191690836003811115610c2157610c20610fdd565b5b0217905550600260008085815260200190815260200160002060030160020160016101000a81548160ff02191690836003811115610c6257610c61610fdd565b5b0217905550610dfb565b816003600183610c7c9190610eee565b610c869190610f4e565b1415610d1357600080600085815260200190815260200160002060000160020160016101000a81548160ff02191690836003811115610cc857610cc7610fdd565b5b0217905550600160008085815260200190815260200160002060030160020160016101000a81548160ff02191690836003811115610d0957610d08610fdd565b5b0217905550610dfa565b806003600184610d239190610eee565b610d2d9190610f4e565b1415610dba57600160008085815260200190815260200160002060000160020160016101000a81548160ff02191690836003811115610d6f57610d6e610fdd565b5b0217905550600080600085815260200190815260200160002060030160020160016101000a81548160ff02191690836003811115610db057610daf610fdd565b5b0217905550610df9565b600360008085815260200190815260200160002060070160006101000a81548160ff02191690836003811115610df357610df2610fdd565b5b02179055505b5b5b505050565b600081359050610e0f81611011565b92915050565b600081359050610e2481611021565b92915050565b600060208284031215610e4057610e3f61100c565b5b6000610e4e84828501610e00565b91505092915050565b600060208284031215610e6d57610e6c61100c565b5b6000610e7b84828501610e15565b91505092915050565b60008060408385031215610e9b57610e9a61100c565b5b6000610ea985828601610e15565b9250506020610eba85828601610e00565b9150509250929050565b610ecd81610f44565b82525050565b6000602082019050610ee86000830184610ec4565b92915050565b6000610ef982610f44565b9150610f0483610f44565b9250827fffffffffffffffffffffffffffffffffffffffffffffffffffffffffffffffff03821115610f3957610f38610f7f565b5b828201905092915050565b6000819050919050565b6000610f5982610f44565b9150610f6483610f44565b925082610f7457610f73610fae565b5b828206905092915050565b7f4e487b7100000000000000000000000000000000000000000000000000000000600052601160045260246000fd5b7f4e487b7100000000000000000000000000000000000000000000000000000000600052601260045260246000fd5b7f4e487b7100000000000000000000000000000000000000000000000000000000600052602160045260246000fd5b600080fd5b6003811061101e57600080fd5b50565b61102a81610f44565b811461103557600080fd5b5056fea264697066735822122099149dfab6fc71be87df6a3bd7d57dfa5f6dfa7d000683795c884691d452f9aa64736f6c63430008070033",
			"opcodes": "PUSH1 0x80 PUSH1 0x40 MSTORE PUSH1 0x0 PUSH1 0x1 SSTORE PUSH2 0x106E DUP1 PUSH2 0x18 PUSH1 0x0 CODECOPY PUSH1 0x0 RETURN INVALID PUSH1 0x80 PUSH1 0x40 MSTORE PUSH1 0x4 CALLDATASIZE LT PUSH2 0x34 JUMPI PUSH1 0x0 CALLDATALOAD PUSH1 0xE0 SHR DUP1 PUSH4 0xF36F3B5 EQ PUSH2 0x39 JUMPI DUP1 PUSH4 0x79B15776 EQ PUSH2 0x69 JUMPI DUP1 PUSH4 0xE1152343 EQ PUSH2 0x85 JUMPI JUMPDEST PUSH1 0x0 DUP1 REVERT JUMPDEST PUSH2 0x53 PUSH1 0x4 DUP1 CALLDATASIZE SUB DUP2 ADD SWAP1 PUSH2 0x4E SWAP2 SWAP1 PUSH2 0xE2A JUMP JUMPDEST PUSH2 0xA1 JUMP JUMPDEST PUSH1 0x40 MLOAD PUSH2 0x60 SWAP2 SWAP1 PUSH2 0xED3 JUMP JUMPDEST PUSH1 0x40 MLOAD DUP1 SWAP2 SUB SWAP1 RETURN JUMPDEST PUSH2 0x83 PUSH1 0x4 DUP1 CALLDATASIZE SUB DUP2 ADD SWAP1 PUSH2 0x7E SWAP2 SWAP1 PUSH2 0xE84 JUMP JUMPDEST PUSH2 0x404 JUMP JUMPDEST STOP JUMPDEST PUSH2 0x9F PUSH1 0x4 DUP1 CALLDATASIZE SUB DUP2 ADD SWAP1 PUSH2 0x9A SWAP2 SWAP1 PUSH2 0xE57 JUMP JUMPDEST PUSH2 0x5FF JUMP JUMPDEST STOP JUMPDEST PUSH1 0x0 DUP2 PUSH1 0x0 PUSH1 0x2 DUP2 GT ISZERO PUSH2 0xB8 JUMPI PUSH2 0xB7 PUSH2 0xFDD JUMP JUMPDEST JUMPDEST DUP2 PUSH1 0x2 DUP2 GT ISZERO PUSH2 0xCB JUMPI PUSH2 0xCA PUSH2 0xFDD JUMP JUMPDEST JUMPDEST EQ DUP1 PUSH2 0xFB JUMPI POP PUSH1 0x1 PUSH1 0x2 DUP2 GT ISZERO PUSH2 0xE6 JUMPI PUSH2 0xE5 PUSH2 0xFDD JUMP JUMPDEST JUMPDEST DUP2 PUSH1 0x2 DUP2 GT ISZERO PUSH2 0xF9 JUMPI PUSH2 0xF8 PUSH2 0xFDD JUMP JUMPDEST JUMPDEST EQ JUMPDEST DUP1 PUSH2 0x129 JUMPI POP PUSH1 0x2 DUP1 DUP2 GT ISZERO PUSH2 0x114 JUMPI PUSH2 0x113 PUSH2 0xFDD JUMP JUMPDEST JUMPDEST DUP2 PUSH1 0x2 DUP2 GT ISZERO PUSH2 0x127 JUMPI PUSH2 0x126 PUSH2 0xFDD JUMP JUMPDEST JUMPDEST EQ JUMPDEST PUSH2 0x132 JUMPI PUSH1 0x0 DUP1 REVERT JUMPDEST PUSH1 0x40 MLOAD DUP1 PUSH1 0x80 ADD PUSH1 0x40 MSTORE DUP1 PUSH1 0x40 MLOAD DUP1 PUSH1 0x80 ADD PUSH1 0x40 MSTORE DUP1 CALLER PUSH20 0xFFFFFFFFFFFFFFFFFFFFFFFFFFFFFFFFFFFFFFFF AND DUP2 MSTORE PUSH1 0x20 ADD CALLVALUE DUP2 MSTORE PUSH1 0x20 ADD DUP7 PUSH1 0x2 DUP2 GT ISZERO PUSH2 0x17D JUMPI PUSH2 0x17C PUSH2 0xFDD JUMP JUMPDEST JUMPDEST DUP2 MSTORE PUSH1 0x20 ADD PUSH1 0x3 DUP1 DUP2 GT ISZERO PUSH2 0x195 JUMPI PUSH2 0x194 PUSH2 0xFDD JUMP JUMPDEST JUMPDEST DUP2 MSTORE POP DUP2 MSTORE PUSH1 0x20 ADD PUSH1 0x40 MLOAD DUP1 PUSH1 0x80 ADD PUSH1 0x40 MSTORE DUP1 CALLER PUSH20 0xFFFFFFFFFFFFFFFFFFFFFFFFFFFFFFFFFFFFFFFF AND DUP2 MSTORE PUSH1 0x20 ADD PUSH1 0x0 DUP2 MSTORE PUSH1 0x20 ADD PUSH1 0x0 PUSH1 0x2 DUP2 GT ISZERO PUSH2 0x1DF JUMPI PUSH2 0x1DE PUSH2 0xFDD JUMP JUMPDEST JUMPDEST DUP2 MSTORE PUSH1 0x20 ADD PUSH1 0x3 DUP1 DUP2 GT ISZERO PUSH2 0x1F7 JUMPI PUSH2 0x1F6 PUSH2 0xFDD JUMP JUMPDEST JUMPDEST DUP2 MSTORE POP DUP2 MSTORE PUSH1 0x20 ADD CALLVALUE DUP2 MSTORE PUSH1 0x20 ADD PUSH1 0x0 PUSH1 0x3 DUP2 GT ISZERO PUSH2 0x219 JUMPI PUSH2 0x218 PUSH2 0xFDD JUMP JUMPDEST JUMPDEST DUP2 MSTORE POP PUSH1 0x0 DUP1 PUSH1 0x1 SLOAD DUP2 MSTORE PUSH1 0x20 ADD SWAP1 DUP2 MSTORE PUSH1 0x20 ADD PUSH1 0x0 KECCAK256 PUSH1 0x0 DUP3 ADD MLOAD DUP2 PUSH1 0x0 ADD PUSH1 0x0 DUP3 ADD MLOAD DUP2 PUSH1 0x0 ADD PUSH1 0x0 PUSH2 0x100 EXP DUP2 SLOAD DUP2 PUSH20 0xFFFFFFFFFFFFFFFFFFFFFFFFFFFFFFFFFFFFFFFF MUL NOT AND SWAP1 DUP4 PUSH20 0xFFFFFFFFFFFFFFFFFFFFFFFFFFFFFFFFFFFFFFFF AND MUL OR SWAP1 SSTORE POP PUSH1 0x20 DUP3 ADD MLOAD DUP2 PUSH1 0x1 ADD SSTORE PUSH1 0x40 DUP3 ADD MLOAD DUP2 PUSH1 0x2 ADD PUSH1 0x0 PUSH2 0x100 EXP DUP2 SLOAD DUP2 PUSH1 0xFF MUL NOT AND SWAP1 DUP4 PUSH1 0x2 DUP2 GT ISZERO PUSH2 0x2B5 JUMPI PUSH2 0x2B4 PUSH2 0xFDD JUMP JUMPDEST JUMPDEST MUL OR SWAP1 SSTORE POP PUSH1 0x60 DUP3 ADD MLOAD DUP2 PUSH1 0x2 ADD PUSH1 0x1 PUSH2 0x100 EXP DUP2 SLOAD DUP2 PUSH1 0xFF MUL NOT AND SWAP1 DUP4 PUSH1 0x3 DUP2 GT ISZERO PUSH2 0x2E5 JUMPI PUSH2 0x2E4 PUSH2 0xFDD JUMP JUMPDEST JUMPDEST MUL OR SWAP1 SSTORE POP POP POP PUSH1 0x20 DUP3 ADD MLOAD DUP2 PUSH1 0x3 ADD PUSH1 0x0 DUP3 ADD MLOAD DUP2 PUSH1 0x0 ADD PUSH1 0x0 PUSH2 0x100 EXP DUP2 SLOAD DUP2 PUSH20 0xFFFFFFFFFFFFFFFFFFFFFFFFFFFFFFFFFFFFFFFF MUL NOT AND SWAP1 DUP4 PUSH20 0xFFFFFFFFFFFFFFFFFFFFFFFFFFFFFFFFFFFFFFFF AND MUL OR SWAP1 SSTORE POP PUSH1 0x20 DUP3 ADD MLOAD DUP2 PUSH1 0x1 ADD SSTORE PUSH1 0x40 DUP3 ADD MLOAD DUP2 PUSH1 0x2 ADD PUSH1 0x0 PUSH2 0x100 EXP DUP2 SLOAD DUP2 PUSH1 0xFF MUL NOT AND SWAP1 DUP4 PUSH1 0x2 DUP2 GT ISZERO PUSH2 0x371 JUMPI PUSH2 0x370 PUSH2 0xFDD JUMP JUMPDEST JUMPDEST MUL OR SWAP1 SSTORE POP PUSH1 0x60 DUP3 ADD MLOAD DUP2 PUSH1 0x2 ADD PUSH1 0x1 PUSH2 0x100 EXP DUP2 SLOAD DUP2 PUSH1 0xFF MUL NOT AND SWAP1 DUP4 PUSH1 0x3 DUP2 GT ISZERO PUSH2 0x3A1 JUMPI PUSH2 0x3A0 PUSH2 0xFDD JUMP JUMPDEST JUMPDEST MUL OR SWAP1 SSTORE POP POP POP PUSH1 0x40 DUP3 ADD MLOAD DUP2 PUSH1 0x6 ADD SSTORE PUSH1 0x60 DUP3 ADD MLOAD DUP2 PUSH1 0x7 ADD PUSH1 0x0 PUSH2 0x100 EXP DUP2 SLOAD DUP2 PUSH1 0xFF MUL NOT AND SWAP1 DUP4 PUSH1 0x3 DUP2 GT ISZERO PUSH2 0x3DD JUMPI PUSH2 0x3DC PUSH2 0xFDD JUMP JUMPDEST JUMPDEST MUL OR SWAP1 SSTORE POP SWAP1 POP POP PUSH1 0x1 SLOAD SWAP2 POP PUSH1 0x1 DUP1 SLOAD PUSH2 0x3F8 SWAP2 SWAP1 PUSH2 0xEEE JUMP JUMPDEST PUSH1 0x1 DUP2 SWAP1 SSTORE POP POP SWAP2 SWAP1 POP JUMP JUMPDEST DUP1 PUSH1 0x0 PUSH1 0x2 DUP2 GT ISZERO PUSH2 0x419 JUMPI PUSH2 0x418 PUSH2 0xFDD JUMP JUMPDEST JUMPDEST DUP2 PUSH1 0x2 DUP2 GT ISZERO PUSH2 0x42C JUMPI PUSH2 0x42B PUSH2 0xFDD JUMP JUMPDEST JUMPDEST EQ DUP1 PUSH2 0x45C JUMPI POP PUSH1 0x1 PUSH1 0x2 DUP2 GT ISZERO PUSH2 0x447 JUMPI PUSH2 0x446 PUSH2 0xFDD JUMP JUMPDEST JUMPDEST DUP2 PUSH1 0x2 DUP2 GT ISZERO PUSH2 0x45A JUMPI PUSH2 0x459 PUSH2 0xFDD JUMP JUMPDEST JUMPDEST EQ JUMPDEST DUP1 PUSH2 0x48A JUMPI POP PUSH1 0x2 DUP1 DUP2 GT ISZERO PUSH2 0x475 JUMPI PUSH2 0x474 PUSH2 0xFDD JUMP JUMPDEST JUMPDEST DUP2 PUSH1 0x2 DUP2 GT ISZERO PUSH2 0x488 JUMPI PUSH2 0x487 PUSH2 0xFDD JUMP JUMPDEST JUMPDEST EQ JUMPDEST PUSH2 0x493 JUMPI PUSH1 0x0 DUP1 REVERT JUMPDEST PUSH1 0x40 MLOAD DUP1 PUSH1 0x80 ADD PUSH1 0x40 MSTORE DUP1 CALLER PUSH20 0xFFFFFFFFFFFFFFFFFFFFFFFFFFFFFFFFFFFFFFFF AND DUP2 MSTORE PUSH1 0x20 ADD CALLVALUE DUP2 MSTORE PUSH1 0x20 ADD DUP4 PUSH1 0x2 DUP2 GT ISZERO PUSH2 0x4D3 JUMPI PUSH2 0x4D2 PUSH2 0xFDD JUMP JUMPDEST JUMPDEST DUP2 MSTORE PUSH1 0x20 ADD PUSH1 0x3 DUP1 DUP2 GT ISZERO PUSH2 0x4EB JUMPI PUSH2 0x4EA PUSH2 0xFDD JUMP JUMPDEST JUMPDEST DUP2 MSTORE POP PUSH1 0x0 DUP1 DUP6 DUP2 MSTORE PUSH1 0x20 ADD SWAP1 DUP2 MSTORE PUSH1 0x20 ADD PUSH1 0x0 KECCAK256 PUSH1 0x3 ADD PUSH1 0x0 DUP3 ADD MLOAD DUP2 PUSH1 0x0 ADD PUSH1 0x0 PUSH2 0x100 EXP DUP2 SLOAD DUP2 PUSH20 0xFFFFFFFFFFFFFFFFFFFFFFFFFFFFFFFFFFFFFFFF MUL NOT AND SWAP1 DUP4 PUSH20 0xFFFFFFFFFFFFFFFFFFFFFFFFFFFFFFFFFFFFFFFF AND MUL OR SWAP1 SSTORE POP PUSH1 0x20 DUP3 ADD MLOAD DUP2 PUSH1 0x1 ADD SSTORE PUSH1 0x40 DUP3 ADD MLOAD DUP2 PUSH1 0x2 ADD PUSH1 0x0 PUSH2 0x100 EXP DUP2 SLOAD DUP2 PUSH1 0xFF MUL NOT AND SWAP1 DUP4 PUSH1 0x2 DUP2 GT ISZERO PUSH2 0x57F JUMPI PUSH2 0x57E PUSH2 0xFDD JUMP JUMPDEST JUMPDEST MUL OR SWAP1 SSTORE POP PUSH1 0x60 DUP3 ADD MLOAD DUP2 PUSH1 0x2 ADD PUSH1 0x1 PUSH2 0x100 EXP DUP2 SLOAD DUP2 PUSH1 0xFF MUL NOT AND SWAP1 DUP4 PUSH1 0x3 DUP2 GT ISZERO PUSH2 0x5AF JUMPI PUSH2 0x5AE PUSH2 0xFDD JUMP JUMPDEST JUMPDEST MUL OR SWAP1 SSTORE POP SWAP1 POP POP CALLVALUE PUSH1 0x0 DUP1 DUP6 DUP2 MSTORE PUSH1 0x20 ADD SWAP1 DUP2 MSTORE PUSH1 0x20 ADD PUSH1 0x0 KECCAK256 PUSH1 0x6 ADD SLOAD PUSH2 0x5D8 SWAP2 SWAP1 PUSH2 0xEEE JUMP JUMPDEST PUSH1 0x0 DUP1 DUP6 DUP2 MSTORE PUSH1 0x20 ADD SWAP1 DUP2 MSTORE PUSH1 0x20 ADD PUSH1 0x0 KECCAK256 PUSH1 0x6 ADD DUP2 SWAP1 SSTORE POP PUSH2 0x5FA DUP4 PUSH2 0xB21 JUMP JUMPDEST POP POP POP JUMP JUMPDEST PUSH1 0x2 PUSH1 0x3 DUP2 GT ISZERO PUSH2 0x613 JUMPI PUSH2 0x612 PUSH2 0xFDD JUMP JUMPDEST JUMPDEST PUSH1 0x0 DUP1 DUP4 DUP2 MSTORE PUSH1 0x20 ADD SWAP1 DUP2 MSTORE PUSH1 0x20 ADD PUSH1 0x0 KECCAK256 PUSH1 0x0 ADD PUSH1 0x2 ADD PUSH1 0x1 SWAP1 SLOAD SWAP1 PUSH2 0x100 EXP SWAP1 DIV PUSH1 0xFF AND PUSH1 0x3 DUP2 GT ISZERO PUSH2 0x64B JUMPI PUSH2 0x64A PUSH2 0xFDD JUMP JUMPDEST JUMPDEST EQ DUP1 ISZERO PUSH2 0x6A1 JUMPI POP PUSH1 0x2 PUSH1 0x3 DUP2 GT ISZERO PUSH2 0x667 JUMPI PUSH2 0x666 PUSH2 0xFDD JUMP JUMPDEST JUMPDEST PUSH1 0x0 DUP1 DUP4 DUP2 MSTORE PUSH1 0x20 ADD SWAP1 DUP2 MSTORE PUSH1 0x20 ADD PUSH1 0x0 KECCAK256 PUSH1 0x3 ADD PUSH1 0x2 ADD PUSH1 0x1 SWAP1 SLOAD SWAP1 PUSH2 0x100 EXP SWAP1 DIV PUSH1 0xFF AND PUSH1 0x3 DUP2 GT ISZERO PUSH2 0x69F JUMPI PUSH2 0x69E PUSH2 0xFDD JUMP JUMPDEST JUMPDEST EQ JUMPDEST ISZERO PUSH2 0x7D9 JUMPI PUSH1 0x0 DUP1 DUP3 DUP2 MSTORE PUSH1 0x20 ADD SWAP1 DUP2 MSTORE PUSH1 0x20 ADD PUSH1 0x0 KECCAK256 PUSH1 0x0 ADD PUSH1 0x0 ADD PUSH1 0x0 SWAP1 SLOAD SWAP1 PUSH2 0x100 EXP SWAP1 DIV PUSH20 0xFFFFFFFFFFFFFFFFFFFFFFFFFFFFFFFFFFFFFFFF AND PUSH20 0xFFFFFFFFFFFFFFFFFFFFFFFFFFFFFFFFFFFFFFFF AND PUSH2 0x8FC PUSH1 0x0 DUP1 DUP5 DUP2 MSTORE PUSH1 0x20 ADD SWAP1 DUP2 MSTORE PUSH1 0x20 ADD PUSH1 0x0 KECCAK256 PUSH1 0x0 ADD PUSH1 0x1 ADD SLOAD SWAP1 DUP2 ISZERO MUL SWAP1 PUSH1 0x40 MLOAD PUSH1 0x0 PUSH1 0x40 MLOAD DUP1 DUP4 SUB DUP2 DUP6 DUP9 DUP9 CALL SWAP4 POP POP POP POP ISZERO DUP1 ISZERO PUSH2 0x73C JUMPI RETURNDATASIZE PUSH1 0x0 DUP1 RETURNDATACOPY RETURNDATASIZE PUSH1 0x0 REVERT JUMPDEST POP PUSH1 0x0 DUP1 DUP3 DUP2 MSTORE PUSH1 0x20 ADD SWAP1 DUP2 MSTORE PUSH1 0x20 ADD PUSH1 0x0 KECCAK256 PUSH1 0x3 ADD PUSH1 0x0 ADD PUSH1 0x0 SWAP1 SLOAD SWAP1 PUSH2 0x100 EXP SWAP1 DIV PUSH20 0xFFFFFFFFFFFFFFFFFFFFFFFFFFFFFFFFFFFFFFFF AND PUSH20 0xFFFFFFFFFFFFFFFFFFFFFFFFFFFFFFFFFFFFFFFF AND PUSH2 0x8FC PUSH1 0x0 DUP1 DUP5 DUP2 MSTORE PUSH1 0x20 ADD SWAP1 DUP2 MSTORE PUSH1 0x20 ADD PUSH1 0x0 KECCAK256 PUSH1 0x3 ADD PUSH1 0x1 ADD SLOAD SWAP1 DUP2 ISZERO MUL SWAP1 PUSH1 0x40 MLOAD PUSH1 0x0 PUSH1 0x40 MLOAD DUP1 DUP4 SUB DUP2 DUP6 DUP9 DUP9 CALL SWAP4 POP POP POP POP ISZERO DUP1 ISZERO PUSH2 0x7D3 JUMPI RETURNDATASIZE PUSH1 0x0 DUP1 RETURNDATACOPY RETURNDATASIZE PUSH1 0x0 REVERT JUMPDEST POP PUSH2 0xAE0 JUMP JUMPDEST PUSH1 0x0 PUSH1 0x3 DUP2 GT ISZERO PUSH2 0x7ED JUMPI PUSH2 0x7EC PUSH2 0xFDD JUMP JUMPDEST JUMPDEST PUSH1 0x0 DUP1 DUP4 DUP2 MSTORE PUSH1 0x20 ADD SWAP1 DUP2 MSTORE PUSH1 0x20 ADD PUSH1 0x0 KECCAK256 PUSH1 0x0 ADD PUSH1 0x2 ADD PUSH1 0x1 SWAP1 SLOAD SWAP1 PUSH2 0x100 EXP SWAP1 DIV PUSH1 0xFF AND PUSH1 0x3 DUP2 GT ISZERO PUSH2 0x825 JUMPI PUSH2 0x824 PUSH2 0xFDD JUMP JUMPDEST JUMPDEST EQ ISZERO PUSH2 0x8C4 JUMPI PUSH1 0x0 DUP1 DUP3 DUP2 MSTORE PUSH1 0x20 ADD SWAP1 DUP2 MSTORE PUSH1 0x20 ADD PUSH1 0x0 KECCAK256 PUSH1 0x0 ADD PUSH1 0x0 ADD PUSH1 0x0 SWAP1 SLOAD SWAP1 PUSH2 0x100 EXP SWAP1 DIV PUSH20 0xFFFFFFFFFFFFFFFFFFFFFFFFFFFFFFFFFFFFFFFF AND PUSH20 0xFFFFFFFFFFFFFFFFFFFFFFFFFFFFFFFFFFFFFFFF AND PUSH2 0x8FC PUSH1 0x0 DUP1 DUP5 DUP2 MSTORE PUSH1 0x20 ADD SWAP1 DUP2 MSTORE PUSH1 0x20 ADD PUSH1 0x0 KECCAK256 PUSH1 0x6 ADD SLOAD SWAP1 DUP2 ISZERO MUL SWAP1 PUSH1 0x40 MLOAD PUSH1 0x0 PUSH1 0x40 MLOAD DUP1 DUP4 SUB DUP2 DUP6 DUP9 DUP9 CALL SWAP4 POP POP POP POP ISZERO DUP1 ISZERO PUSH2 0x8BE JUMPI RETURNDATASIZE PUSH1 0x0 DUP1 RETURNDATACOPY RETURNDATASIZE PUSH1 0x0 REVERT JUMPDEST POP PUSH2 0xADF JUMP JUMPDEST PUSH1 0x0 PUSH1 0x3 DUP2 GT ISZERO PUSH2 0x8D8 JUMPI PUSH2 0x8D7 PUSH2 0xFDD JUMP JUMPDEST JUMPDEST PUSH1 0x0 DUP1 DUP4 DUP2 MSTORE PUSH1 0x20 ADD SWAP1 DUP2 MSTORE PUSH1 0x20 ADD PUSH1 0x0 KECCAK256 PUSH1 0x3 ADD PUSH1 0x2 ADD PUSH1 0x1 SWAP1 SLOAD SWAP1 PUSH2 0x100 EXP SWAP1 DIV PUSH1 0xFF AND PUSH1 0x3 DUP2 GT ISZERO PUSH2 0x910 JUMPI PUSH2 0x90F PUSH2 0xFDD JUMP JUMPDEST JUMPDEST EQ ISZERO PUSH2 0x9AF JUMPI PUSH1 0x0 DUP1 DUP3 DUP2 MSTORE PUSH1 0x20 ADD SWAP1 DUP2 MSTORE PUSH1 0x20 ADD PUSH1 0x0 KECCAK256 PUSH1 0x3 ADD PUSH1 0x0 ADD PUSH1 0x0 SWAP1 SLOAD SWAP1 PUSH2 0x100 EXP SWAP1 DIV PUSH20 0xFFFFFFFFFFFFFFFFFFFFFFFFFFFFFFFFFFFFFFFF AND PUSH20 0xFFFFFFFFFFFFFFFFFFFFFFFFFFFFFFFFFFFFFFFF AND PUSH2 0x8FC PUSH1 0x0 DUP1 DUP5 DUP2 MSTORE PUSH1 0x20 ADD SWAP1 DUP2 MSTORE PUSH1 0x20 ADD PUSH1 0x0 KECCAK256 PUSH1 0x6 ADD SLOAD SWAP1 DUP2 ISZERO MUL SWAP1 PUSH1 0x40 MLOAD PUSH1 0x0 PUSH1 0x40 MLOAD DUP1 DUP4 SUB DUP2 DUP6 DUP9 DUP9 CALL SWAP4 POP POP POP POP ISZERO DUP1 ISZERO PUSH2 0x9A9 JUMPI RETURNDATASIZE PUSH1 0x0 DUP1 RETURNDATACOPY RETURNDATASIZE PUSH1 0x0 REVERT JUMPDEST POP PUSH2 0xADE JUMP JUMPDEST PUSH1 0x0 DUP1 DUP3 DUP2 MSTORE PUSH1 0x20 ADD SWAP1 DUP2 MSTORE PUSH1 0x20 ADD PUSH1 0x0 KECCAK256 PUSH1 0x0 ADD PUSH1 0x0 ADD PUSH1 0x0 SWAP1 SLOAD SWAP1 PUSH2 0x100 EXP SWAP1 DIV PUSH20 0xFFFFFFFFFFFFFFFFFFFFFFFFFFFFFFFFFFFFFFFF AND PUSH20 0xFFFFFFFFFFFFFFFFFFFFFFFFFFFFFFFFFFFFFFFF AND PUSH2 0x8FC PUSH1 0x0 DUP1 DUP5 DUP2 MSTORE PUSH1 0x20 ADD SWAP1 DUP2 MSTORE PUSH1 0x20 ADD PUSH1 0x0 KECCAK256 PUSH1 0x0 ADD PUSH1 0x1 ADD SLOAD SWAP1 DUP2 ISZERO MUL SWAP1 PUSH1 0x40 MLOAD PUSH1 0x0 PUSH1 0x40 MLOAD DUP1 DUP4 SUB DUP2 DUP6 DUP9 DUP9 CALL SWAP4 POP POP POP POP ISZERO DUP1 ISZERO PUSH2 0xA45 JUMPI RETURNDATASIZE PUSH1 0x0 DUP1 RETURNDATACOPY RETURNDATASIZE PUSH1 0x0 REVERT JUMPDEST POP PUSH1 0x0 DUP1 DUP3 DUP2 MSTORE PUSH1 0x20 ADD SWAP1 DUP2 MSTORE PUSH1 0x20 ADD PUSH1 0x0 KECCAK256 PUSH1 0x3 ADD PUSH1 0x0 ADD PUSH1 0x0 SWAP1 SLOAD SWAP1 PUSH2 0x100 EXP SWAP1 DIV PUSH20 0xFFFFFFFFFFFFFFFFFFFFFFFFFFFFFFFFFFFFFFFF AND PUSH20 0xFFFFFFFFFFFFFFFFFFFFFFFFFFFFFFFFFFFFFFFF AND PUSH2 0x8FC PUSH1 0x0 DUP1 DUP5 DUP2 MSTORE PUSH1 0x20 ADD SWAP1 DUP2 MSTORE PUSH1 0x20 ADD PUSH1 0x0 KECCAK256 PUSH1 0x3 ADD PUSH1 0x1 ADD SLOAD SWAP1 DUP2 ISZERO MUL SWAP1 PUSH1 0x40 MLOAD PUSH1 0x0 PUSH1 0x40 MLOAD DUP1 DUP4 SUB DUP2 DUP6 DUP9 DUP9 CALL SWAP4 POP POP POP POP ISZERO DUP1 ISZERO PUSH2 0xADC JUMPI RETURNDATASIZE PUSH1 0x0 DUP1 RETURNDATACOPY RETURNDATASIZE PUSH1 0x0 REVERT JUMPDEST POP JUMPDEST JUMPDEST JUMPDEST PUSH1 0x2 PUSH1 0x0 DUP1 DUP4 DUP2 MSTORE PUSH1 0x20 ADD SWAP1 DUP2 MSTORE PUSH1 0x20 ADD PUSH1 0x0 KECCAK256 PUSH1 0x7 ADD PUSH1 0x0 PUSH2 0x100 EXP DUP2 SLOAD DUP2 PUSH1 0xFF MUL NOT AND SWAP1 DUP4 PUSH1 0x3 DUP2 GT ISZERO PUSH2 0xB19 JUMPI PUSH2 0xB18 PUSH2 0xFDD JUMP JUMPDEST JUMPDEST MUL OR SWAP1 SSTORE POP POP JUMP JUMPDEST PUSH1 0x0 DUP1 PUSH1 0x0 DUP4 DUP2 MSTORE PUSH1 0x20 ADD SWAP1 DUP2 MSTORE PUSH1 0x20 ADD PUSH1 0x0 KECCAK256 PUSH1 0x0 ADD PUSH1 0x2 ADD PUSH1 0x0 SWAP1 SLOAD SWAP1 PUSH2 0x100 EXP SWAP1 DIV PUSH1 0xFF AND PUSH1 0x2 DUP2 GT ISZERO PUSH2 0xB5B JUMPI PUSH2 0xB5A PUSH2 0xFDD JUMP JUMPDEST JUMPDEST PUSH1 0xFF AND SWAP1 POP PUSH1 0x0 DUP1 PUSH1 0x0 DUP5 DUP2 MSTORE PUSH1 0x20 ADD SWAP1 DUP2 MSTORE PUSH1 0x20 ADD PUSH1 0x0 KECCAK256 PUSH1 0x3 ADD PUSH1 0x2 ADD PUSH1 0x0 SWAP1 SLOAD SWAP1 PUSH2 0x100 EXP SWAP1 DIV PUSH1 0xFF AND PUSH1 0x2 DUP2 GT ISZERO PUSH2 0xB9A JUMPI PUSH2 0xB99 PUSH2 0xFDD JUMP JUMPDEST JUMPDEST PUSH1 0xFF AND SWAP1 POP PUSH1 0x1 PUSH1 0x0 DUP1 DUP6 DUP2 MSTORE PUSH1 0x20 ADD SWAP1 DUP2 MSTORE PUSH1 0x20 ADD PUSH1 0x0 KECCAK256 PUSH1 0x7 ADD PUSH1 0x0 PUSH2 0x100 EXP DUP2 SLOAD DUP2 PUSH1 0xFF MUL NOT AND SWAP1 DUP4 PUSH1 0x3 DUP2 GT ISZERO PUSH2 0xBD8 JUMPI PUSH2 0xBD7 PUSH2 0xFDD JUMP JUMPDEST JUMPDEST MUL OR SWAP1 SSTORE POP DUP2 DUP2 EQ ISZERO PUSH2 0xC6C JUMPI PUSH1 0x2 PUSH1 0x0 DUP1 DUP6 DUP2 MSTORE PUSH1 0x20 ADD SWAP1 DUP2 MSTORE PUSH1 0x20 ADD PUSH1 0x0 KECCAK256 PUSH1 0x0 ADD PUSH1 0x2 ADD PUSH1 0x1 PUSH2 0x100 EXP DUP2 SLOAD DUP2 PUSH1 0xFF MUL NOT AND SWAP1 DUP4 PUSH1 0x3 DUP2 GT ISZERO PUSH2 0xC21 JUMPI PUSH2 0xC20 PUSH2 0xFDD JUMP JUMPDEST JUMPDEST MUL OR SWAP1 SSTORE POP PUSH1 0x2 PUSH1 0x0 DUP1 DUP6 DUP2 MSTORE PUSH1 0x20 ADD SWAP1 DUP2 MSTORE PUSH1 0x20 ADD PUSH1 0x0 KECCAK256 PUSH1 0x3 ADD PUSH1 0x2 ADD PUSH1 0x1 PUSH2 0x100 EXP DUP2 SLOAD DUP2 PUSH1 0xFF MUL NOT AND SWAP1 DUP4 PUSH1 0x3 DUP2 GT ISZERO PUSH2 0xC62 JUMPI PUSH2 0xC61 PUSH2 0xFDD JUMP JUMPDEST JUMPDEST MUL OR SWAP1 SSTORE POP PUSH2 0xDFB JUMP JUMPDEST DUP2 PUSH1 0x3 PUSH1 0x1 DUP4 PUSH2 0xC7C SWAP2 SWAP1 PUSH2 0xEEE JUMP JUMPDEST PUSH2 0xC86 SWAP2 SWAP1 PUSH2 0xF4E JUMP JUMPDEST EQ ISZERO PUSH2 0xD13 JUMPI PUSH1 0x0 DUP1 PUSH1 0x0 DUP6 DUP2 MSTORE PUSH1 0x20 ADD SWAP1 DUP2 MSTORE PUSH1 0x20 ADD PUSH1 0x0 KECCAK256 PUSH1 0x0 ADD PUSH1 0x2 ADD PUSH1 0x1 PUSH2 0x100 EXP DUP2 SLOAD DUP2 PUSH1 0xFF MUL NOT AND SWAP1 DUP4 PUSH1 0x3 DUP2 GT ISZERO PUSH2 0xCC8 JUMPI PUSH2 0xCC7 PUSH2 0xFDD JUMP JUMPDEST JUMPDEST MUL OR SWAP1 SSTORE POP PUSH1 0x1 PUSH1 0x0 DUP1 DUP6 DUP2 MSTORE PUSH1 0x20 ADD SWAP1 DUP2 MSTORE PUSH1 0x20 ADD PUSH1 0x0 KECCAK256 PUSH1 0x3 ADD PUSH1 0x2 ADD PUSH1 0x1 PUSH2 0x100 EXP DUP2 SLOAD DUP2 PUSH1 0xFF MUL NOT AND SWAP1 DUP4 PUSH1 0x3 DUP2 GT ISZERO PUSH2 0xD09 JUMPI PUSH2 0xD08 PUSH2 0xFDD JUMP JUMPDEST JUMPDEST MUL OR SWAP1 SSTORE POP PUSH2 0xDFA JUMP JUMPDEST DUP1 PUSH1 0x3 PUSH1 0x1 DUP5 PUSH2 0xD23 SWAP2 SWAP1 PUSH2 0xEEE JUMP JUMPDEST PUSH2 0xD2D SWAP2 SWAP1 PUSH2 0xF4E JUMP JUMPDEST EQ ISZERO PUSH2 0xDBA JUMPI PUSH1 0x1 PUSH1 0x0 DUP1 DUP6 DUP2 MSTORE PUSH1 0x20 ADD SWAP1 DUP2 MSTORE PUSH1 0x20 ADD PUSH1 0x0 KECCAK256 PUSH1 0x0 ADD PUSH1 0x2 ADD PUSH1 0x1 PUSH2 0x100 EXP DUP2 SLOAD DUP2 PUSH1 0xFF MUL NOT AND SWAP1 DUP4 PUSH1 0x3 DUP2 GT ISZERO PUSH2 0xD6F JUMPI PUSH2 0xD6E PUSH2 0xFDD JUMP JUMPDEST JUMPDEST MUL OR SWAP1 SSTORE POP PUSH1 0x0 DUP1 PUSH1 0x0 DUP6 DUP2 MSTORE PUSH1 0x20 ADD SWAP1 DUP2 MSTORE PUSH1 0x20 ADD PUSH1 0x0 KECCAK256 PUSH1 0x3 ADD PUSH1 0x2 ADD PUSH1 0x1 PUSH2 0x100 EXP DUP2 SLOAD DUP2 PUSH1 0xFF MUL NOT AND SWAP1 DUP4 PUSH1 0x3 DUP2 GT ISZERO PUSH2 0xDB0 JUMPI PUSH2 0xDAF PUSH2 0xFDD JUMP JUMPDEST JUMPDEST MUL OR SWAP1 SSTORE POP PUSH2 0xDF9 JUMP JUMPDEST PUSH1 0x3 PUSH1 0x0 DUP1 DUP6 DUP2 MSTORE PUSH1 0x20 ADD SWAP1 DUP2 MSTORE PUSH1 0x20 ADD PUSH1 0x0 KECCAK256 PUSH1 0x7 ADD PUSH1 0x0 PUSH2 0x100 EXP DUP2 SLOAD DUP2 PUSH1 0xFF MUL NOT AND SWAP1 DUP4 PUSH1 0x3 DUP2 GT ISZERO PUSH2 0xDF3 JUMPI PUSH2 0xDF2 PUSH2 0xFDD JUMP JUMPDEST JUMPDEST MUL OR SWAP1 SSTORE POP JUMPDEST JUMPDEST JUMPDEST POP POP POP JUMP JUMPDEST PUSH1 0x0 DUP2 CALLDATALOAD SWAP1 POP PUSH2 0xE0F DUP2 PUSH2 0x1011 JUMP JUMPDEST SWAP3 SWAP2 POP POP JUMP JUMPDEST PUSH1 0x0 DUP2 CALLDATALOAD SWAP1 POP PUSH2 0xE24 DUP2 PUSH2 0x1021 JUMP JUMPDEST SWAP3 SWAP2 POP POP JUMP JUMPDEST PUSH1 0x0 PUSH1 0x20 DUP3 DUP5 SUB SLT ISZERO PUSH2 0xE40 JUMPI PUSH2 0xE3F PUSH2 0x100C JUMP JUMPDEST JUMPDEST PUSH1 0x0 PUSH2 0xE4E DUP5 DUP3 DUP6 ADD PUSH2 0xE00 JUMP JUMPDEST SWAP2 POP POP SWAP3 SWAP2 POP POP JUMP JUMPDEST PUSH1 0x0 PUSH1 0x20 DUP3 DUP5 SUB SLT ISZERO PUSH2 0xE6D JUMPI PUSH2 0xE6C PUSH2 0x100C JUMP JUMPDEST JUMPDEST PUSH1 0x0 PUSH2 0xE7B DUP5 DUP3 DUP6 ADD PUSH2 0xE15 JUMP JUMPDEST SWAP2 POP POP SWAP3 SWAP2 POP POP JUMP JUMPDEST PUSH1 0x0 DUP1 PUSH1 0x40 DUP4 DUP6 SUB SLT ISZERO PUSH2 0xE9B JUMPI PUSH2 0xE9A PUSH2 0x100C JUMP JUMPDEST JUMPDEST PUSH1 0x0 PUSH2 0xEA9 DUP6 DUP3 DUP7 ADD PUSH2 0xE15 JUMP JUMPDEST SWAP3 POP POP PUSH1 0x20 PUSH2 0xEBA DUP6 DUP3 DUP7 ADD PUSH2 0xE00 JUMP JUMPDEST SWAP2 POP POP SWAP3 POP SWAP3 SWAP1 POP JUMP JUMPDEST PUSH2 0xECD DUP2 PUSH2 0xF44 JUMP JUMPDEST DUP3 MSTORE POP POP JUMP JUMPDEST PUSH1 0x0 PUSH1 0x20 DUP3 ADD SWAP1 POP PUSH2 0xEE8 PUSH1 0x0 DUP4 ADD DUP5 PUSH2 0xEC4 JUMP JUMPDEST SWAP3 SWAP2 POP POP JUMP JUMPDEST PUSH1 0x0 PUSH2 0xEF9 DUP3 PUSH2 0xF44 JUMP JUMPDEST SWAP2 POP PUSH2 0xF04 DUP4 PUSH2 0xF44 JUMP JUMPDEST SWAP3 POP DUP3 PUSH32 0xFFFFFFFFFFFFFFFFFFFFFFFFFFFFFFFFFFFFFFFFFFFFFFFFFFFFFFFFFFFFFFFF SUB DUP3 GT ISZERO PUSH2 0xF39 JUMPI PUSH2 0xF38 PUSH2 0xF7F JUMP JUMPDEST JUMPDEST DUP3 DUP3 ADD SWAP1 POP SWAP3 SWAP2 POP POP JUMP JUMPDEST PUSH1 0x0 DUP2 SWAP1 POP SWAP2 SWAP1 POP JUMP JUMPDEST PUSH1 0x0 PUSH2 0xF59 DUP3 PUSH2 0xF44 JUMP JUMPDEST SWAP2 POP PUSH2 0xF64 DUP4 PUSH2 0xF44 JUMP JUMPDEST SWAP3 POP DUP3 PUSH2 0xF74 JUMPI PUSH2 0xF73 PUSH2 0xFAE JUMP JUMPDEST JUMPDEST DUP3 DUP3 MOD SWAP1 POP SWAP3 SWAP2 POP POP JUMP JUMPDEST PUSH32 0x4E487B7100000000000000000000000000000000000000000000000000000000 PUSH1 0x0 MSTORE PUSH1 0x11 PUSH1 0x4 MSTORE PUSH1 0x24 PUSH1 0x0 REVERT JUMPDEST PUSH32 0x4E487B7100000000000000000000000000000000000000000000000000000000 PUSH1 0x0 MSTORE PUSH1 0x12 PUSH1 0x4 MSTORE PUSH1 0x24 PUSH1 0x0 REVERT JUMPDEST PUSH32 0x4E487B7100000000000000000000000000000000000000000000000000000000 PUSH1 0x0 MSTORE PUSH1 0x21 PUSH1 0x4 MSTORE PUSH1 0x24 PUSH1 0x0 REVERT JUMPDEST PUSH1 0x0 DUP1 REVERT JUMPDEST PUSH1 0x3 DUP2 LT PUSH2 0x101E JUMPI PUSH1 0x0 DUP1 REVERT JUMPDEST POP JUMP JUMPDEST PUSH2 0x102A DUP2 PUSH2 0xF44 JUMP JUMPDEST DUP2 EQ PUSH2 0x1035 JUMPI PUSH1 0x0 DUP1 REVERT JUMPDEST POP JUMP INVALID LOG2 PUSH5 0x6970667358 0x22 SLT KECCAK256 SWAP10 EQ SWAP14 STATICCALL 0xB6 0xFC PUSH18 0xBE87DF6A3BD7D57DFA5F6DFA7D000683795C DUP9 CHAINID SWAP2 0xD4 MSTORE 0xF9 0xAA PUSH5 0x736F6C6343 STOP ADDMOD SMOD STOP CALLER "
		},
		"gasEstimates": {
			"creation": {
				"codeDepositCost": "841200",
				"executionCost": "5859",
				"totalCost": "847059"
			},
			"external": {
				"createRoom(uint8)": "infinite",
				"joinRoom(uint256,uint8)": "infinite",
				"payout(uint256)": "infinite"
			},
			"internal": {
				"compareHands(uint256)": "infinite"
			}
		},
		"methodIdentifiers": {
			"createRoom(uint8)": "0f36f3b5",
			"joinRoom(uint256,uint8)": "79b15776",
			"payout(uint256)": "e1152343"
		}
	},
	"abi": [
		{
			"inputs": [],
			"stateMutability": "payable",
			"type": "constructor"
		},
		{
			"inputs": [
				{
					"internalType": "enum RPS.Hand",
					"name": "_hand",
					"type": "uint8"
				}
			],
			"name": "createRoom",
			"outputs": [
				{
					"internalType": "uint256",
					"name": "roomNum",
					"type": "uint256"
				}
			],
			"stateMutability": "payable",
			"type": "function"
		},
		{
			"inputs": [
				{
					"internalType": "uint256",
					"name": "roomNum",
					"type": "uint256"
				},
				{
					"internalType": "enum RPS.Hand",
					"name": "_hand",
					"type": "uint8"
				}
			],
			"name": "joinRoom",
			"outputs": [],
			"stateMutability": "payable",
			"type": "function"
		},
		{
			"inputs": [
				{
					"internalType": "uint256",
					"name": "roomNum",
					"type": "uint256"
				}
			],
			"name": "payout",
			"outputs": [],
			"stateMutability": "payable",
			"type": "function"
		}
	]
}